{
	"simple_parent.sol": {
		"SimpleStorage": {
			"abi": [
				{
					"inputs": [],
					"name": "G",
					"outputs": [
						{
							"internalType": "uint256",
							"name": "",
							"type": "uint256"
						}
					],
					"stateMutability": "view",
					"type": "function"
				},
				{
					"inputs": [
						{
							"internalType": "uint256",
							"name": "id",
							"type": "uint256"
						}
					],
					"name": "createApple",
					"outputs": [],
					"stateMutability": "nonpayable",
					"type": "function"
				},
				{
					"inputs": [
						{
							"internalType": "uint256",
							"name": "id",
							"type": "uint256"
						},
						{
							"internalType": "uint256",
							"name": "data",
							"type": "uint256"
						}
					],
					"name": "edit",
					"outputs": [],
					"stateMutability": "nonpayable",
					"type": "function"
				},
				{
					"inputs": [],
					"name": "hellosir",
					"outputs": [],
					"stateMutability": "nonpayable",
					"type": "function"
				}
			],
			"devdoc": {
				"kind": "dev",
				"methods": {},
				"version": 1
			},
			"evm": {
				"assembly": "    /* \"simple_parent.sol\":60:841  contract SimpleStorage {... */\n  mstore(0x40, 0x80)\n    /* \"simple_parent.sol\":109:110  4 */\n  0x04\n    /* \"simple_parent.sol\":90:110  uint256 public G = 4 */\n  0x00\n  sstore\n    /* \"simple_parent.sol\":60:841  contract SimpleStorage {... */\n  callvalue\n  dup1\n  iszero\n  tag_1\n  jumpi\n  0x00\n  dup1\n  revert\ntag_1:\n  pop\n  dataSize(sub_0)\n  dup1\n  dataOffset(sub_0)\n  0x00\n  codecopy\n  0x00\n  return\nstop\n\nsub_0: assembly {\n        /* \"simple_parent.sol\":60:841  contract SimpleStorage {... */\n      mstore(0x40, 0x80)\n      callvalue\n      dup1\n      iszero\n      tag_1\n      jumpi\n      0x00\n      dup1\n      revert\n    tag_1:\n      pop\n      jumpi(tag_2, lt(calldatasize, 0x04))\n      shr(0xe0, calldataload(0x00))\n      dup1\n      0x53b619a3\n      eq\n      tag_3\n      jumpi\n      dup1\n      0x6fecb623\n      eq\n      tag_4\n      jumpi\n      dup1\n      0x76bf91b0\n      eq\n      tag_5\n      jumpi\n      dup1\n      0x863a654b\n      eq\n      tag_6\n      jumpi\n    tag_2:\n      0x00\n      dup1\n      revert\n        /* \"simple_parent.sol\":426:638  function edit(uint256 id, uint256 data) public onlyValid(id, data) {... */\n    tag_3:\n      tag_7\n      0x04\n      dup1\n      calldatasize\n      sub\n      dup2\n      add\n      swap1\n      tag_8\n      swap2\n      swap1\n      tag_9\n      jump\t// in\n    tag_8:\n      tag_10\n      jump\t// in\n    tag_7:\n      stop\n        /* \"simple_parent.sol\":90:110  uint256 public G = 4 */\n    tag_4:\n      tag_11\n      tag_12\n      jump\t// in\n    tag_11:\n      mload(0x40)\n      tag_13\n      swap2\n      swap1\n      tag_14\n      jump\t// in\n    tag_13:\n      mload(0x40)\n      dup1\n      swap2\n      sub\n      swap1\n      return\n        /* \"simple_parent.sol\":787:838  function hellosir() public {... */\n    tag_5:\n      tag_15\n      tag_16\n      jump\t// in\n    tag_15:\n      stop\n        /* \"simple_parent.sol\":644:781  function createApple(uint256 id) public { ... */\n    tag_6:\n      tag_17\n      0x04\n      dup1\n      calldatasize\n      sub\n      dup2\n      add\n      swap1\n      tag_18\n      swap2\n      swap1\n      tag_19\n      jump\t// in\n    tag_18:\n      tag_20\n      jump\t// in\n    tag_17:\n      stop\n        /* \"simple_parent.sol\":426:638  function edit(uint256 id, uint256 data) public onlyValid(id, data) {... */\n    tag_10:\n        /* \"simple_parent.sol\":483:485  id */\n      dup2\n        /* \"simple_parent.sol\":487:491  data */\n      dup2\n        /* \"simple_parent.sol\":285:286  0 */\n      0x00\n        /* \"simple_parent.sol\":281:282  2 */\n      0x02\n        /* \"simple_parent.sol\":276:280  data */\n      dup3\n        /* \"simple_parent.sol\":276:282  data%2 */\n      tag_22\n      swap2\n      swap1\n      tag_23\n      jump\t// in\n    tag_22:\n        /* \"simple_parent.sol\":276:286  data%2 ==0 */\n      eq\n        /* \"simple_parent.sol\":268:287  require(data%2 ==0) */\n      tag_24\n      jumpi\n      0x00\n      dup1\n      revert\n    tag_24:\n        /* \"simple_parent.sol\":526:532  apples */\n      0x01\n        /* \"simple_parent.sol\":526:536  apples[id] */\n      0x00\n        /* \"simple_parent.sol\":533:535  id */\n      dup6\n        /* \"simple_parent.sol\":526:536  apples[id] */\n      dup2\n      mstore\n      0x20\n      add\n      swap1\n      dup2\n      mstore\n      0x20\n      add\n      0x00\n      keccak256\n        /* \"simple_parent.sol\":526:542  apples[id].owner */\n      0x02\n      add\n      0x00\n      swap1\n      sload\n      swap1\n      0x0100\n      exp\n      swap1\n      div\n      0xffffffffffffffffffffffffffffffffffffffff\n      and\n        /* \"simple_parent.sol\":512:542  msg.sender == apples[id].owner */\n      0xffffffffffffffffffffffffffffffffffffffff\n      and\n        /* \"simple_parent.sol\":512:522  msg.sender */\n      caller\n        /* \"simple_parent.sol\":512:542  msg.sender == apples[id].owner */\n      0xffffffffffffffffffffffffffffffffffffffff\n      and\n      eq\n        /* \"simple_parent.sol\":504:543  require(msg.sender == apples[id].owner) */\n      tag_26\n      jumpi\n      0x00\n      dup1\n      revert\n    tag_26:\n        /* \"simple_parent.sol\":572:576  data */\n      dup3\n        /* \"simple_parent.sol\":554:560  apples */\n      0x01\n        /* \"simple_parent.sol\":554:564  apples[id] */\n      0x00\n        /* \"simple_parent.sol\":561:563  id */\n      dup7\n        /* \"simple_parent.sol\":554:564  apples[id] */\n      dup2\n      mstore\n      0x20\n      add\n      swap1\n      dup2\n      mstore\n      0x20\n      add\n      0x00\n      keccak256\n        /* \"simple_parent.sol\":554:569  apples[id].data */\n      0x01\n      add\n        /* \"simple_parent.sol\":554:576  apples[id].data = data */\n      dup2\n      swap1\n      sstore\n      pop\n        /* \"simple_parent.sol\":606:607  0 */\n      0x00\n        /* \"simple_parent.sol\":602:603  2 */\n      0x02\n        /* \"simple_parent.sol\":597:601  data */\n      dup5\n        /* \"simple_parent.sol\":597:603  data%2 */\n      tag_27\n      swap2\n      swap1\n      tag_23\n      jump\t// in\n    tag_27:\n        /* \"simple_parent.sol\":597:607  data%2 ==0 */\n      eq\n        /* \"simple_parent.sol\":589:608  require(data%2 ==0) */\n      tag_28\n      jumpi\n      0x00\n      dup1\n      revert\n    tag_28:\n        /* \"simple_parent.sol\":355:361  apples */\n      0x01\n        /* \"simple_parent.sol\":355:365  apples[id] */\n      0x00\n        /* \"simple_parent.sol\":362:364  id */\n      dup4\n        /* \"simple_parent.sol\":355:365  apples[id] */\n      dup2\n      mstore\n      0x20\n      add\n      swap1\n      dup2\n      mstore\n      0x20\n      add\n      0x00\n      keccak256\n        /* \"simple_parent.sol\":355:371  apples[id].owner */\n      0x02\n      add\n      0x00\n      swap1\n      sload\n      swap1\n      0x0100\n      exp\n      swap1\n      div\n      0xffffffffffffffffffffffffffffffffffffffff\n      and\n        /* \"simple_parent.sol\":341:371  msg.sender == apples[id].owner */\n      0xffffffffffffffffffffffffffffffffffffffff\n      and\n        /* \"simple_parent.sol\":341:351  msg.sender */\n      caller\n        /* \"simple_parent.sol\":341:371  msg.sender == apples[id].owner */\n      0xffffffffffffffffffffffffffffffffffffffff\n      and\n      eq\n        /* \"simple_parent.sol\":333:372  require(msg.sender == apples[id].owner) */\n      tag_29\n      jumpi\n      0x00\n      dup1\n      revert\n    tag_29:\n        /* \"simple_parent.sol\":426:638  function edit(uint256 id, uint256 data) public onlyValid(id, data) {... */\n      pop\n      pop\n      pop\n      pop\n      jump\t// out\n        /* \"simple_parent.sol\":90:110  uint256 public G = 4 */\n    tag_12:\n      sload(0x00)\n      dup2\n      jump\t// out\n        /* \"simple_parent.sol\":787:838  function hellosir() public {... */\n    tag_16:\n        /* \"simple_parent.sol\":829:830  5 */\n      0x05\n        /* \"simple_parent.sol\":825:826  G */\n      0x00\n        /* \"simple_parent.sol\":825:830  G = 5 */\n      dup2\n      swap1\n      sstore\n      pop\n        /* \"simple_parent.sol\":787:838  function hellosir() public {... */\n      jump\t// out\n        /* \"simple_parent.sol\":644:781  function createApple(uint256 id) public { ... */\n    tag_20:\n        /* \"simple_parent.sol\":696:714  Apple memory apple */\n      0x00\n        /* \"simple_parent.sol\":717:744  Apple(id, 1234, msg.sender) */\n      mload(0x40)\n      dup1\n      0x60\n      add\n      0x40\n      mstore\n      dup1\n        /* \"simple_parent.sol\":723:725  id */\n      dup4\n        /* \"simple_parent.sol\":717:744  Apple(id, 1234, msg.sender) */\n      dup2\n      mstore\n      0x20\n      add\n        /* \"simple_parent.sol\":727:731  1234 */\n      0x04d2\n        /* \"simple_parent.sol\":717:744  Apple(id, 1234, msg.sender) */\n      dup2\n      mstore\n      0x20\n      add\n        /* \"simple_parent.sol\":733:743  msg.sender */\n      caller\n        /* \"simple_parent.sol\":717:744  Apple(id, 1234, msg.sender) */\n      0xffffffffffffffffffffffffffffffffffffffff\n      and\n      dup2\n      mstore\n      pop\n        /* \"simple_parent.sol\":696:744  Apple memory apple = Apple(id, 1234, msg.sender) */\n      swap1\n      pop\n        /* \"simple_parent.sol\":768:773  apple */\n      dup1\n        /* \"simple_parent.sol\":755:761  apples */\n      0x01\n        /* \"simple_parent.sol\":755:765  apples[id] */\n      0x00\n        /* \"simple_parent.sol\":762:764  id */\n      dup5\n        /* \"simple_parent.sol\":755:765  apples[id] */\n      dup2\n      mstore\n      0x20\n      add\n      swap1\n      dup2\n      mstore\n      0x20\n      add\n      0x00\n      keccak256\n        /* \"simple_parent.sol\":755:773  apples[id] = apple */\n      0x00\n      dup3\n      add\n      mload\n      dup2\n      0x00\n      add\n      sstore\n      0x20\n      dup3\n      add\n      mload\n      dup2\n      0x01\n      add\n      sstore\n      0x40\n      dup3\n      add\n      mload\n      dup2\n      0x02\n      add\n      exp(0x0100, 0x00)\n      dup2\n      sload\n      dup2\n      0xffffffffffffffffffffffffffffffffffffffff\n      mul\n      not\n      and\n      swap1\n      dup4\n      0xffffffffffffffffffffffffffffffffffffffff\n      and\n      mul\n      or\n      swap1\n      sstore\n      pop\n      swap1\n      pop\n      pop\n        /* \"simple_parent.sol\":684:781  { ... */\n      pop\n        /* \"simple_parent.sol\":644:781  function createApple(uint256 id) public { ... */\n      pop\n      jump\t// out\n        /* \"#utility.yul\":88:205   */\n    tag_33:\n        /* \"#utility.yul\":197:198   */\n      0x00\n        /* \"#utility.yul\":194:195   */\n      dup1\n        /* \"#utility.yul\":187:199   */\n      revert\n        /* \"#utility.yul\":334:411   */\n    tag_35:\n        /* \"#utility.yul\":371:378   */\n      0x00\n        /* \"#utility.yul\":400:405   */\n      dup2\n        /* \"#utility.yul\":389:405   */\n      swap1\n      pop\n        /* \"#utility.yul\":334:411   */\n      swap2\n      swap1\n      pop\n      jump\t// out\n        /* \"#utility.yul\":417:539   */\n    tag_36:\n        /* \"#utility.yul\":490:514   */\n      tag_46\n        /* \"#utility.yul\":508:513   */\n      dup2\n        /* \"#utility.yul\":490:514   */\n      tag_35\n      jump\t// in\n    tag_46:\n        /* \"#utility.yul\":483:488   */\n      dup2\n        /* \"#utility.yul\":480:515   */\n      eq\n        /* \"#utility.yul\":470:533   */\n      tag_47\n      jumpi\n        /* \"#utility.yul\":529:530   */\n      0x00\n        /* \"#utility.yul\":526:527   */\n      dup1\n        /* \"#utility.yul\":519:531   */\n      revert\n        /* \"#utility.yul\":470:533   */\n    tag_47:\n        /* \"#utility.yul\":417:539   */\n      pop\n      jump\t// out\n        /* \"#utility.yul\":545:684   */\n    tag_37:\n        /* \"#utility.yul\":591:596   */\n      0x00\n        /* \"#utility.yul\":629:635   */\n      dup2\n        /* \"#utility.yul\":616:636   */\n      calldataload\n        /* \"#utility.yul\":607:636   */\n      swap1\n      pop\n        /* \"#utility.yul\":645:678   */\n      tag_49\n        /* \"#utility.yul\":672:677   */\n      dup2\n        /* \"#utility.yul\":645:678   */\n      tag_36\n      jump\t// in\n    tag_49:\n        /* \"#utility.yul\":545:684   */\n      swap3\n      swap2\n      pop\n      pop\n      jump\t// out\n        /* \"#utility.yul\":690:1164   */\n    tag_9:\n        /* \"#utility.yul\":758:764   */\n      0x00\n        /* \"#utility.yul\":766:772   */\n      dup1\n        /* \"#utility.yul\":815:817   */\n      0x40\n        /* \"#utility.yul\":803:812   */\n      dup4\n        /* \"#utility.yul\":794:801   */\n      dup6\n        /* \"#utility.yul\":790:813   */\n      sub\n        /* \"#utility.yul\":786:818   */\n      slt\n        /* \"#utility.yul\":783:902   */\n      iszero\n      tag_51\n      jumpi\n        /* \"#utility.yul\":821:900   */\n      tag_52\n      tag_33\n      jump\t// in\n    tag_52:\n        /* \"#utility.yul\":783:902   */\n    tag_51:\n        /* \"#utility.yul\":941:942   */\n      0x00\n        /* \"#utility.yul\":966:1019   */\n      tag_53\n        /* \"#utility.yul\":1011:1018   */\n      dup6\n        /* \"#utility.yul\":1002:1008   */\n      dup3\n        /* \"#utility.yul\":991:1000   */\n      dup7\n        /* \"#utility.yul\":987:1009   */\n      add\n        /* \"#utility.yul\":966:1019   */\n      tag_37\n      jump\t// in\n    tag_53:\n        /* \"#utility.yul\":956:1019   */\n      swap3\n      pop\n        /* \"#utility.yul\":912:1029   */\n      pop\n        /* \"#utility.yul\":1068:1070   */\n      0x20\n        /* \"#utility.yul\":1094:1147   */\n      tag_54\n        /* \"#utility.yul\":1139:1146   */\n      dup6\n        /* \"#utility.yul\":1130:1136   */\n      dup3\n        /* \"#utility.yul\":1119:1128   */\n      dup7\n        /* \"#utility.yul\":1115:1137   */\n      add\n        /* \"#utility.yul\":1094:1147   */\n      tag_37\n      jump\t// in\n    tag_54:\n        /* \"#utility.yul\":1084:1147   */\n      swap2\n      pop\n        /* \"#utility.yul\":1039:1157   */\n      pop\n        /* \"#utility.yul\":690:1164   */\n      swap3\n      pop\n      swap3\n      swap1\n      pop\n      jump\t// out\n        /* \"#utility.yul\":1170:1288   */\n    tag_38:\n        /* \"#utility.yul\":1257:1281   */\n      tag_56\n        /* \"#utility.yul\":1275:1280   */\n      dup2\n        /* \"#utility.yul\":1257:1281   */\n      tag_35\n      jump\t// in\n    tag_56:\n        /* \"#utility.yul\":1252:1255   */\n      dup3\n        /* \"#utility.yul\":1245:1282   */\n      mstore\n        /* \"#utility.yul\":1170:1288   */\n      pop\n      pop\n      jump\t// out\n        /* \"#utility.yul\":1294:1516   */\n    tag_14:\n        /* \"#utility.yul\":1387:1391   */\n      0x00\n        /* \"#utility.yul\":1425:1427   */\n      0x20\n        /* \"#utility.yul\":1414:1423   */\n      dup3\n        /* \"#utility.yul\":1410:1428   */\n      add\n        /* \"#utility.yul\":1402:1428   */\n      swap1\n      pop\n        /* \"#utility.yul\":1438:1509   */\n      tag_58\n        /* \"#utility.yul\":1506:1507   */\n      0x00\n        /* \"#utility.yul\":1495:1504   */\n      dup4\n        /* \"#utility.yul\":1491:1508   */\n      add\n        /* \"#utility.yul\":1482:1488   */\n      dup5\n        /* \"#utility.yul\":1438:1509   */\n      tag_38\n      jump\t// in\n    tag_58:\n        /* \"#utility.yul\":1294:1516   */\n      swap3\n      swap2\n      pop\n      pop\n      jump\t// out\n        /* \"#utility.yul\":1522:1851   */\n    tag_19:\n        /* \"#utility.yul\":1581:1587   */\n      0x00\n        /* \"#utility.yul\":1630:1632   */\n      0x20\n        /* \"#utility.yul\":1618:1627   */\n      dup3\n        /* \"#utility.yul\":1609:1616   */\n      dup5\n        /* \"#utility.yul\":1605:1628   */\n      sub\n        /* \"#utility.yul\":1601:1633   */\n      slt\n        /* \"#utility.yul\":1598:1717   */\n      iszero\n      tag_60\n      jumpi\n        /* \"#utility.yul\":1636:1715   */\n      tag_61\n      tag_33\n      jump\t// in\n    tag_61:\n        /* \"#utility.yul\":1598:1717   */\n    tag_60:\n        /* \"#utility.yul\":1756:1757   */\n      0x00\n        /* \"#utility.yul\":1781:1834   */\n      tag_62\n        /* \"#utility.yul\":1826:1833   */\n      dup5\n        /* \"#utility.yul\":1817:1823   */\n      dup3\n        /* \"#utility.yul\":1806:1815   */\n      dup6\n        /* \"#utility.yul\":1802:1824   */\n      add\n        /* \"#utility.yul\":1781:1834   */\n      tag_37\n      jump\t// in\n    tag_62:\n        /* \"#utility.yul\":1771:1834   */\n      swap2\n      pop\n        /* \"#utility.yul\":1727:1844   */\n      pop\n        /* \"#utility.yul\":1522:1851   */\n      swap3\n      swap2\n      pop\n      pop\n      jump\t// out\n        /* \"#utility.yul\":1857:2037   */\n    tag_39:\n        /* \"#utility.yul\":1905:1982   */\n      0x4e487b7100000000000000000000000000000000000000000000000000000000\n        /* \"#utility.yul\":1902:1903   */\n      0x00\n        /* \"#utility.yul\":1895:1983   */\n      mstore\n        /* \"#utility.yul\":2002:2006   */\n      0x12\n        /* \"#utility.yul\":1999:2000   */\n      0x04\n        /* \"#utility.yul\":1992:2007   */\n      mstore\n        /* \"#utility.yul\":2026:2030   */\n      0x24\n        /* \"#utility.yul\":2023:2024   */\n      0x00\n        /* \"#utility.yul\":2016:2031   */\n      revert\n        /* \"#utility.yul\":2043:2219   */\n    tag_23:\n        /* \"#utility.yul\":2075:2076   */\n      0x00\n        /* \"#utility.yul\":2092:2112   */\n      tag_65\n        /* \"#utility.yul\":2110:2111   */\n      dup3\n        /* \"#utility.yul\":2092:2112   */\n      tag_35\n      jump\t// in\n    tag_65:\n        /* \"#utility.yul\":2087:2112   */\n      swap2\n      pop\n        /* \"#utility.yul\":2126:2146   */\n      tag_66\n        /* \"#utility.yul\":2144:2145   */\n      dup4\n        /* \"#utility.yul\":2126:2146   */\n      tag_35\n      jump\t// in\n    tag_66:\n        /* \"#utility.yul\":2121:2146   */\n      swap3\n      pop\n        /* \"#utility.yul\":2165:2166   */\n      dup3\n        /* \"#utility.yul\":2155:2190   */\n      tag_67\n      jumpi\n        /* \"#utility.yul\":2170:2188   */\n      tag_68\n      tag_39\n      jump\t// in\n    tag_68:\n        /* \"#utility.yul\":2155:2190   */\n    tag_67:\n        /* \"#utility.yul\":2211:2212   */\n      dup3\n        /* \"#utility.yul\":2208:2209   */\n      dup3\n        /* \"#utility.yul\":2204:2213   */\n      mod\n        /* \"#utility.yul\":2199:2213   */\n      swap1\n      pop\n        /* \"#utility.yul\":2043:2219   */\n      swap3\n      swap2\n      pop\n      pop\n      jump\t// out\n\n    auxdata: 0xa26469706673582212209b29eb95dac4d95736f6e6969557112b202544a9fab2cd0f1fd540800b5cba8464736f6c634300081a0033\n}\n",
				"bytecode": {
					"linkReferences": {},
					"object": "608060405260045f553480156012575f80fd5b506103e1806100205f395ff3fe608060405234801561000f575f80fd5b506004361061004a575f3560e01c806353b619a31461004e5780636fecb6231461006a57806376bf91b014610088578063863a654b14610092575b5f80fd5b610068600480360381019061006391906102bd565b6100ae565b005b6100726101d1565b60405161007f919061030a565b60405180910390f35b6100906101d6565b005b6100ac60048036038101906100a79190610323565b6101df565b005b81815f6002826100be919061037b565b146100c7575f80fd5b60015f8581526020019081526020015f206002015f9054906101000a900473ffffffffffffffffffffffffffffffffffffffff1673ffffffffffffffffffffffffffffffffffffffff163373ffffffffffffffffffffffffffffffffffffffff1614610131575f80fd5b8260015f8681526020019081526020015f20600101819055505f600284610158919061037b565b14610161575f80fd5b60015f8381526020019081526020015f206002015f9054906101000a900473ffffffffffffffffffffffffffffffffffffffff1673ffffffffffffffffffffffffffffffffffffffff163373ffffffffffffffffffffffffffffffffffffffff16146101cb575f80fd5b50505050565b5f5481565b60055f81905550565b5f60405180606001604052808381526020016104d281526020013373ffffffffffffffffffffffffffffffffffffffff1681525090508060015f8481526020019081526020015f205f820151815f0155602082015181600101556040820151816002015f6101000a81548173ffffffffffffffffffffffffffffffffffffffff021916908373ffffffffffffffffffffffffffffffffffffffff1602179055509050505050565b5f80fd5b5f819050919050565b61029c8161028a565b81146102a6575f80fd5b50565b5f813590506102b781610293565b92915050565b5f80604083850312156102d3576102d2610286565b5b5f6102e0858286016102a9565b92505060206102f1858286016102a9565b9150509250929050565b6103048161028a565b82525050565b5f60208201905061031d5f8301846102fb565b92915050565b5f6020828403121561033857610337610286565b5b5f610345848285016102a9565b91505092915050565b7f4e487b71000000000000000000000000000000000000000000000000000000005f52601260045260245ffd5b5f6103858261028a565b91506103908361028a565b9250826103a05761039f61034e565b5b82820690509291505056fea26469706673582212209b29eb95dac4d95736f6e6969557112b202544a9fab2cd0f1fd540800b5cba8464736f6c634300081a0033",
					"opcodes": "PUSH1 0x80 PUSH1 0x40 MSTORE PUSH1 0x4 PUSH0 SSTORE CALLVALUE DUP1 ISZERO PUSH1 0x12 JUMPI PUSH0 DUP1 REVERT JUMPDEST POP PUSH2 0x3E1 DUP1 PUSH2 0x20 PUSH0 CODECOPY PUSH0 RETURN INVALID PUSH1 0x80 PUSH1 0x40 MSTORE CALLVALUE DUP1 ISZERO PUSH2 0xF JUMPI PUSH0 DUP1 REVERT JUMPDEST POP PUSH1 0x4 CALLDATASIZE LT PUSH2 0x4A JUMPI PUSH0 CALLDATALOAD PUSH1 0xE0 SHR DUP1 PUSH4 0x53B619A3 EQ PUSH2 0x4E JUMPI DUP1 PUSH4 0x6FECB623 EQ PUSH2 0x6A JUMPI DUP1 PUSH4 0x76BF91B0 EQ PUSH2 0x88 JUMPI DUP1 PUSH4 0x863A654B EQ PUSH2 0x92 JUMPI JUMPDEST PUSH0 DUP1 REVERT JUMPDEST PUSH2 0x68 PUSH1 0x4 DUP1 CALLDATASIZE SUB DUP2 ADD SWAP1 PUSH2 0x63 SWAP2 SWAP1 PUSH2 0x2BD JUMP JUMPDEST PUSH2 0xAE JUMP JUMPDEST STOP JUMPDEST PUSH2 0x72 PUSH2 0x1D1 JUMP JUMPDEST PUSH1 0x40 MLOAD PUSH2 0x7F SWAP2 SWAP1 PUSH2 0x30A JUMP JUMPDEST PUSH1 0x40 MLOAD DUP1 SWAP2 SUB SWAP1 RETURN JUMPDEST PUSH2 0x90 PUSH2 0x1D6 JUMP JUMPDEST STOP JUMPDEST PUSH2 0xAC PUSH1 0x4 DUP1 CALLDATASIZE SUB DUP2 ADD SWAP1 PUSH2 0xA7 SWAP2 SWAP1 PUSH2 0x323 JUMP JUMPDEST PUSH2 0x1DF JUMP JUMPDEST STOP JUMPDEST DUP2 DUP2 PUSH0 PUSH1 0x2 DUP3 PUSH2 0xBE SWAP2 SWAP1 PUSH2 0x37B JUMP JUMPDEST EQ PUSH2 0xC7 JUMPI PUSH0 DUP1 REVERT JUMPDEST PUSH1 0x1 PUSH0 DUP6 DUP2 MSTORE PUSH1 0x20 ADD SWAP1 DUP2 MSTORE PUSH1 0x20 ADD PUSH0 KECCAK256 PUSH1 0x2 ADD PUSH0 SWAP1 SLOAD SWAP1 PUSH2 0x100 EXP SWAP1 DIV PUSH20 0xFFFFFFFFFFFFFFFFFFFFFFFFFFFFFFFFFFFFFFFF AND PUSH20 0xFFFFFFFFFFFFFFFFFFFFFFFFFFFFFFFFFFFFFFFF AND CALLER PUSH20 0xFFFFFFFFFFFFFFFFFFFFFFFFFFFFFFFFFFFFFFFF AND EQ PUSH2 0x131 JUMPI PUSH0 DUP1 REVERT JUMPDEST DUP3 PUSH1 0x1 PUSH0 DUP7 DUP2 MSTORE PUSH1 0x20 ADD SWAP1 DUP2 MSTORE PUSH1 0x20 ADD PUSH0 KECCAK256 PUSH1 0x1 ADD DUP2 SWAP1 SSTORE POP PUSH0 PUSH1 0x2 DUP5 PUSH2 0x158 SWAP2 SWAP1 PUSH2 0x37B JUMP JUMPDEST EQ PUSH2 0x161 JUMPI PUSH0 DUP1 REVERT JUMPDEST PUSH1 0x1 PUSH0 DUP4 DUP2 MSTORE PUSH1 0x20 ADD SWAP1 DUP2 MSTORE PUSH1 0x20 ADD PUSH0 KECCAK256 PUSH1 0x2 ADD PUSH0 SWAP1 SLOAD SWAP1 PUSH2 0x100 EXP SWAP1 DIV PUSH20 0xFFFFFFFFFFFFFFFFFFFFFFFFFFFFFFFFFFFFFFFF AND PUSH20 0xFFFFFFFFFFFFFFFFFFFFFFFFFFFFFFFFFFFFFFFF AND CALLER PUSH20 0xFFFFFFFFFFFFFFFFFFFFFFFFFFFFFFFFFFFFFFFF AND EQ PUSH2 0x1CB JUMPI PUSH0 DUP1 REVERT JUMPDEST POP POP POP POP JUMP JUMPDEST PUSH0 SLOAD DUP2 JUMP JUMPDEST PUSH1 0x5 PUSH0 DUP2 SWAP1 SSTORE POP JUMP JUMPDEST PUSH0 PUSH1 0x40 MLOAD DUP1 PUSH1 0x60 ADD PUSH1 0x40 MSTORE DUP1 DUP4 DUP2 MSTORE PUSH1 0x20 ADD PUSH2 0x4D2 DUP2 MSTORE PUSH1 0x20 ADD CALLER PUSH20 0xFFFFFFFFFFFFFFFFFFFFFFFFFFFFFFFFFFFFFFFF AND DUP2 MSTORE POP SWAP1 POP DUP1 PUSH1 0x1 PUSH0 DUP5 DUP2 MSTORE PUSH1 0x20 ADD SWAP1 DUP2 MSTORE PUSH1 0x20 ADD PUSH0 KECCAK256 PUSH0 DUP3 ADD MLOAD DUP2 PUSH0 ADD SSTORE PUSH1 0x20 DUP3 ADD MLOAD DUP2 PUSH1 0x1 ADD SSTORE PUSH1 0x40 DUP3 ADD MLOAD DUP2 PUSH1 0x2 ADD PUSH0 PUSH2 0x100 EXP DUP2 SLOAD DUP2 PUSH20 0xFFFFFFFFFFFFFFFFFFFFFFFFFFFFFFFFFFFFFFFF MUL NOT AND SWAP1 DUP4 PUSH20 0xFFFFFFFFFFFFFFFFFFFFFFFFFFFFFFFFFFFFFFFF AND MUL OR SWAP1 SSTORE POP SWAP1 POP POP POP POP JUMP JUMPDEST PUSH0 DUP1 REVERT JUMPDEST PUSH0 DUP2 SWAP1 POP SWAP2 SWAP1 POP JUMP JUMPDEST PUSH2 0x29C DUP2 PUSH2 0x28A JUMP JUMPDEST DUP2 EQ PUSH2 0x2A6 JUMPI PUSH0 DUP1 REVERT JUMPDEST POP JUMP JUMPDEST PUSH0 DUP2 CALLDATALOAD SWAP1 POP PUSH2 0x2B7 DUP2 PUSH2 0x293 JUMP JUMPDEST SWAP3 SWAP2 POP POP JUMP JUMPDEST PUSH0 DUP1 PUSH1 0x40 DUP4 DUP6 SUB SLT ISZERO PUSH2 0x2D3 JUMPI PUSH2 0x2D2 PUSH2 0x286 JUMP JUMPDEST JUMPDEST PUSH0 PUSH2 0x2E0 DUP6 DUP3 DUP7 ADD PUSH2 0x2A9 JUMP JUMPDEST SWAP3 POP POP PUSH1 0x20 PUSH2 0x2F1 DUP6 DUP3 DUP7 ADD PUSH2 0x2A9 JUMP JUMPDEST SWAP2 POP POP SWAP3 POP SWAP3 SWAP1 POP JUMP JUMPDEST PUSH2 0x304 DUP2 PUSH2 0x28A JUMP JUMPDEST DUP3 MSTORE POP POP JUMP JUMPDEST PUSH0 PUSH1 0x20 DUP3 ADD SWAP1 POP PUSH2 0x31D PUSH0 DUP4 ADD DUP5 PUSH2 0x2FB JUMP JUMPDEST SWAP3 SWAP2 POP POP JUMP JUMPDEST PUSH0 PUSH1 0x20 DUP3 DUP5 SUB SLT ISZERO PUSH2 0x338 JUMPI PUSH2 0x337 PUSH2 0x286 JUMP JUMPDEST JUMPDEST PUSH0 PUSH2 0x345 DUP5 DUP3 DUP6 ADD PUSH2 0x2A9 JUMP JUMPDEST SWAP2 POP POP SWAP3 SWAP2 POP POP JUMP JUMPDEST PUSH32 0x4E487B7100000000000000000000000000000000000000000000000000000000 PUSH0 MSTORE PUSH1 0x12 PUSH1 0x4 MSTORE PUSH1 0x24 PUSH0 REVERT JUMPDEST PUSH0 PUSH2 0x385 DUP3 PUSH2 0x28A JUMP JUMPDEST SWAP2 POP PUSH2 0x390 DUP4 PUSH2 0x28A JUMP JUMPDEST SWAP3 POP DUP3 PUSH2 0x3A0 JUMPI PUSH2 0x39F PUSH2 0x34E JUMP JUMPDEST JUMPDEST DUP3 DUP3 MOD SWAP1 POP SWAP3 SWAP2 POP POP JUMP INVALID LOG2 PUSH5 0x6970667358 0x22 SLT KECCAK256 SWAP12 0x29 0xEB SWAP6 0xDA 0xC4 0xD9 JUMPI CALLDATASIZE 0xF6 0xE6 SWAP7 SWAP6 JUMPI GT 0x2B KECCAK256 0x25 PREVRANDAO 0xA9 STATICCALL 0xB2 0xCD 0xF 0x1F 0xD5 BLOCKHASH DUP1 SIGNEXTEND TLOAD 0xBA DUP5 PUSH5 0x736F6C6343 STOP ADDMOD BYTE STOP CALLER "
				},
				"gasEstimates": {
					"creation": {
						"codeDepositCost": "198600",
						"executionCost": "22348",
						"totalCost": "220948"
					},
					"external": {
						"G()": "2424",
						"createApple(uint256)": "69146",
						"edit(uint256,uint256)": "infinite",
						"hellosir()": "22278"
					}
				},
				"methodIdentifiers": {
					"G()": "6fecb623",
					"createApple(uint256)": "863a654b",
					"edit(uint256,uint256)": "53b619a3",
					"hellosir()": "76bf91b0"
				}
			},
			"storageLayout": {
				"storage": [
					{
						"astId": 4,
						"contract": "simple_parent.sol:SimpleStorage",
						"label": "G",
						"offset": 0,
						"slot": "0",
						"type": "t_uint256"
					},
					{
						"astId": 42,
						"contract": "simple_parent.sol:SimpleStorage",
						"label": "apples",
						"offset": 0,
						"slot": "1",
						"type": "t_mapping(t_uint256,t_struct(Apple)11_storage)"
					}
				],
				"types": {
					"t_address": {
						"encoding": "inplace",
						"label": "address",
						"numberOfBytes": "20"
					},
					"t_mapping(t_uint256,t_struct(Apple)11_storage)": {
						"encoding": "mapping",
						"key": "t_uint256",
						"label": "mapping(uint256 => struct SimpleStorage.Apple)",
						"numberOfBytes": "32",
						"value": "t_struct(Apple)11_storage"
					},
					"t_struct(Apple)11_storage": {
						"encoding": "inplace",
						"label": "struct SimpleStorage.Apple",
						"members": [
							{
								"astId": 6,
								"contract": "simple_parent.sol:SimpleStorage",
								"label": "id",
								"offset": 0,
								"slot": "0",
								"type": "t_uint256"
							},
							{
								"astId": 8,
								"contract": "simple_parent.sol:SimpleStorage",
								"label": "data",
								"offset": 0,
								"slot": "1",
								"type": "t_uint256"
							},
							{
								"astId": 10,
								"contract": "simple_parent.sol:SimpleStorage",
								"label": "owner",
								"offset": 0,
								"slot": "2",
								"type": "t_address"
							}
						],
						"numberOfBytes": "96"
					},
					"t_uint256": {
						"encoding": "inplace",
						"label": "uint256",
						"numberOfBytes": "32"
					}
				}
			},
			"userdoc": {
				"kind": "user",
				"methods": {},
				"version": 1
			}
		}
	}
}