{
	"simple_parent.sol": {
		"SimpleStorage": {
			"abi": [
				{
					"inputs": [],
					"name": "G",
					"outputs": [
						{
							"internalType": "uint256",
							"name": "",
							"type": "uint256"
						}
					],
					"stateMutability": "view",
					"type": "function"
				},
				{
					"inputs": [
						{
							"internalType": "uint256",
							"name": "id",
							"type": "uint256"
						},
						{
							"internalType": "uint256",
							"name": "data",
							"type": "uint256"
						}
					],
					"name": "edit",
					"outputs": [],
					"stateMutability": "nonpayable",
					"type": "function"
				}
			],
			"devdoc": {
				"kind": "dev",
				"methods": {},
				"version": 1
			},
			"evm": {
				"assembly": "    /* \"simple_parent.sol\":60:587  contract SimpleStorage {... */\n  mstore(0x40, 0x80)\n    /* \"simple_parent.sol\":109:110  4 */\n  0x04\n    /* \"simple_parent.sol\":90:110  uint256 public G = 4 */\n  0x00\n  sstore\n    /* \"simple_parent.sol\":60:587  contract SimpleStorage {... */\n  callvalue\n  dup1\n  iszero\n  tag_1\n  jumpi\n  0x00\n  dup1\n  revert\ntag_1:\n  pop\n  dataSize(sub_0)\n  dup1\n  dataOffset(sub_0)\n  0x00\n  codecopy\n  0x00\n  return\nstop\n\nsub_0: assembly {\n        /* \"simple_parent.sol\":60:587  contract SimpleStorage {... */\n      mstore(0x40, 0x80)\n      callvalue\n      dup1\n      iszero\n      tag_1\n      jumpi\n      0x00\n      dup1\n      revert\n    tag_1:\n      pop\n      jumpi(tag_2, lt(calldatasize, 0x04))\n      shr(0xe0, calldataload(0x00))\n      dup1\n      0x53b619a3\n      eq\n      tag_3\n      jumpi\n      dup1\n      0x6fecb623\n      eq\n      tag_4\n      jumpi\n    tag_2:\n      0x00\n      dup1\n      revert\n        /* \"simple_parent.sol\":426:584  function edit(uint256 id, uint256 data) public onlyValid(id, data) {... */\n    tag_3:\n      tag_5\n      0x04\n      dup1\n      calldatasize\n      sub\n      dup2\n      add\n      swap1\n      tag_6\n      swap2\n      swap1\n      tag_7\n      jump\t// in\n    tag_6:\n      tag_8\n      jump\t// in\n    tag_5:\n      stop\n        /* \"simple_parent.sol\":90:110  uint256 public G = 4 */\n    tag_4:\n      tag_9\n      tag_10\n      jump\t// in\n    tag_9:\n      mload(0x40)\n      tag_11\n      swap2\n      swap1\n      tag_12\n      jump\t// in\n    tag_11:\n      mload(0x40)\n      dup1\n      swap2\n      sub\n      swap1\n      return\n        /* \"simple_parent.sol\":426:584  function edit(uint256 id, uint256 data) public onlyValid(id, data) {... */\n    tag_8:\n        /* \"simple_parent.sol\":483:485  id */\n      dup2\n        /* \"simple_parent.sol\":487:491  data */\n      dup2\n        /* \"simple_parent.sol\":285:286  0 */\n      0x00\n        /* \"simple_parent.sol\":281:282  2 */\n      0x02\n        /* \"simple_parent.sol\":276:280  data */\n      dup3\n        /* \"simple_parent.sol\":276:282  data%2 */\n      tag_14\n      swap2\n      swap1\n      tag_15\n      jump\t// in\n    tag_14:\n        /* \"simple_parent.sol\":276:286  data%2 ==0 */\n      eq\n        /* \"simple_parent.sol\":268:287  require(data%2 ==0) */\n      tag_16\n      jumpi\n      0x00\n      dup1\n      revert\n    tag_16:\n        /* \"simple_parent.sol\":526:532  apples */\n      0x01\n        /* \"simple_parent.sol\":526:536  apples[id] */\n      0x00\n        /* \"simple_parent.sol\":533:535  id */\n      dup6\n        /* \"simple_parent.sol\":526:536  apples[id] */\n      dup2\n      mstore\n      0x20\n      add\n      swap1\n      dup2\n      mstore\n      0x20\n      add\n      0x00\n      keccak256\n        /* \"simple_parent.sol\":526:542  apples[id].owner */\n      0x02\n      add\n      0x00\n      swap1\n      sload\n      swap1\n      0x0100\n      exp\n      swap1\n      div\n      0xffffffffffffffffffffffffffffffffffffffff\n      and\n        /* \"simple_parent.sol\":512:542  msg.sender == apples[id].owner */\n      0xffffffffffffffffffffffffffffffffffffffff\n      and\n        /* \"simple_parent.sol\":512:522  msg.sender */\n      caller\n        /* \"simple_parent.sol\":512:542  msg.sender == apples[id].owner */\n      0xffffffffffffffffffffffffffffffffffffffff\n      and\n      eq\n        /* \"simple_parent.sol\":504:543  require(msg.sender == apples[id].owner) */\n      tag_18\n      jumpi\n      0x00\n      dup1\n      revert\n    tag_18:\n        /* \"simple_parent.sol\":572:576  data */\n      dup3\n        /* \"simple_parent.sol\":554:560  apples */\n      0x01\n        /* \"simple_parent.sol\":554:564  apples[id] */\n      0x00\n        /* \"simple_parent.sol\":561:563  id */\n      dup7\n        /* \"simple_parent.sol\":554:564  apples[id] */\n      dup2\n      mstore\n      0x20\n      add\n      swap1\n      dup2\n      mstore\n      0x20\n      add\n      0x00\n      keccak256\n        /* \"simple_parent.sol\":554:569  apples[id].data */\n      0x01\n      add\n        /* \"simple_parent.sol\":554:576  apples[id].data = data */\n      dup2\n      swap1\n      sstore\n      pop\n        /* \"simple_parent.sol\":355:361  apples */\n      0x01\n        /* \"simple_parent.sol\":355:365  apples[id] */\n      0x00\n        /* \"simple_parent.sol\":362:364  id */\n      dup4\n        /* \"simple_parent.sol\":355:365  apples[id] */\n      dup2\n      mstore\n      0x20\n      add\n      swap1\n      dup2\n      mstore\n      0x20\n      add\n      0x00\n      keccak256\n        /* \"simple_parent.sol\":355:371  apples[id].owner */\n      0x02\n      add\n      0x00\n      swap1\n      sload\n      swap1\n      0x0100\n      exp\n      swap1\n      div\n      0xffffffffffffffffffffffffffffffffffffffff\n      and\n        /* \"simple_parent.sol\":341:371  msg.sender == apples[id].owner */\n      0xffffffffffffffffffffffffffffffffffffffff\n      and\n        /* \"simple_parent.sol\":341:351  msg.sender */\n      caller\n        /* \"simple_parent.sol\":341:371  msg.sender == apples[id].owner */\n      0xffffffffffffffffffffffffffffffffffffffff\n      and\n      eq\n        /* \"simple_parent.sol\":333:372  require(msg.sender == apples[id].owner) */\n      tag_19\n      jumpi\n      0x00\n      dup1\n      revert\n    tag_19:\n        /* \"simple_parent.sol\":426:584  function edit(uint256 id, uint256 data) public onlyValid(id, data) {... */\n      pop\n      pop\n      pop\n      pop\n      jump\t// out\n        /* \"simple_parent.sol\":90:110  uint256 public G = 4 */\n    tag_10:\n      sload(0x00)\n      dup2\n      jump\t// out\n        /* \"#utility.yul\":88:205   */\n    tag_21:\n        /* \"#utility.yul\":197:198   */\n      0x00\n        /* \"#utility.yul\":194:195   */\n      dup1\n        /* \"#utility.yul\":187:199   */\n      revert\n        /* \"#utility.yul\":334:411   */\n    tag_23:\n        /* \"#utility.yul\":371:378   */\n      0x00\n        /* \"#utility.yul\":400:405   */\n      dup2\n        /* \"#utility.yul\":389:405   */\n      swap1\n      pop\n        /* \"#utility.yul\":334:411   */\n      swap2\n      swap1\n      pop\n      jump\t// out\n        /* \"#utility.yul\":417:539   */\n    tag_24:\n        /* \"#utility.yul\":490:514   */\n      tag_34\n        /* \"#utility.yul\":508:513   */\n      dup2\n        /* \"#utility.yul\":490:514   */\n      tag_23\n      jump\t// in\n    tag_34:\n        /* \"#utility.yul\":483:488   */\n      dup2\n        /* \"#utility.yul\":480:515   */\n      eq\n        /* \"#utility.yul\":470:533   */\n      tag_35\n      jumpi\n        /* \"#utility.yul\":529:530   */\n      0x00\n        /* \"#utility.yul\":526:527   */\n      dup1\n        /* \"#utility.yul\":519:531   */\n      revert\n        /* \"#utility.yul\":470:533   */\n    tag_35:\n        /* \"#utility.yul\":417:539   */\n      pop\n      jump\t// out\n        /* \"#utility.yul\":545:684   */\n    tag_25:\n        /* \"#utility.yul\":591:596   */\n      0x00\n        /* \"#utility.yul\":629:635   */\n      dup2\n        /* \"#utility.yul\":616:636   */\n      calldataload\n        /* \"#utility.yul\":607:636   */\n      swap1\n      pop\n        /* \"#utility.yul\":645:678   */\n      tag_37\n        /* \"#utility.yul\":672:677   */\n      dup2\n        /* \"#utility.yul\":645:678   */\n      tag_24\n      jump\t// in\n    tag_37:\n        /* \"#utility.yul\":545:684   */\n      swap3\n      swap2\n      pop\n      pop\n      jump\t// out\n        /* \"#utility.yul\":690:1164   */\n    tag_7:\n        /* \"#utility.yul\":758:764   */\n      0x00\n        /* \"#utility.yul\":766:772   */\n      dup1\n        /* \"#utility.yul\":815:817   */\n      0x40\n        /* \"#utility.yul\":803:812   */\n      dup4\n        /* \"#utility.yul\":794:801   */\n      dup6\n        /* \"#utility.yul\":790:813   */\n      sub\n        /* \"#utility.yul\":786:818   */\n      slt\n        /* \"#utility.yul\":783:902   */\n      iszero\n      tag_39\n      jumpi\n        /* \"#utility.yul\":821:900   */\n      tag_40\n      tag_21\n      jump\t// in\n    tag_40:\n        /* \"#utility.yul\":783:902   */\n    tag_39:\n        /* \"#utility.yul\":941:942   */\n      0x00\n        /* \"#utility.yul\":966:1019   */\n      tag_41\n        /* \"#utility.yul\":1011:1018   */\n      dup6\n        /* \"#utility.yul\":1002:1008   */\n      dup3\n        /* \"#utility.yul\":991:1000   */\n      dup7\n        /* \"#utility.yul\":987:1009   */\n      add\n        /* \"#utility.yul\":966:1019   */\n      tag_25\n      jump\t// in\n    tag_41:\n        /* \"#utility.yul\":956:1019   */\n      swap3\n      pop\n        /* \"#utility.yul\":912:1029   */\n      pop\n        /* \"#utility.yul\":1068:1070   */\n      0x20\n        /* \"#utility.yul\":1094:1147   */\n      tag_42\n        /* \"#utility.yul\":1139:1146   */\n      dup6\n        /* \"#utility.yul\":1130:1136   */\n      dup3\n        /* \"#utility.yul\":1119:1128   */\n      dup7\n        /* \"#utility.yul\":1115:1137   */\n      add\n        /* \"#utility.yul\":1094:1147   */\n      tag_25\n      jump\t// in\n    tag_42:\n        /* \"#utility.yul\":1084:1147   */\n      swap2\n      pop\n        /* \"#utility.yul\":1039:1157   */\n      pop\n        /* \"#utility.yul\":690:1164   */\n      swap3\n      pop\n      swap3\n      swap1\n      pop\n      jump\t// out\n        /* \"#utility.yul\":1170:1288   */\n    tag_26:\n        /* \"#utility.yul\":1257:1281   */\n      tag_44\n        /* \"#utility.yul\":1275:1280   */\n      dup2\n        /* \"#utility.yul\":1257:1281   */\n      tag_23\n      jump\t// in\n    tag_44:\n        /* \"#utility.yul\":1252:1255   */\n      dup3\n        /* \"#utility.yul\":1245:1282   */\n      mstore\n        /* \"#utility.yul\":1170:1288   */\n      pop\n      pop\n      jump\t// out\n        /* \"#utility.yul\":1294:1516   */\n    tag_12:\n        /* \"#utility.yul\":1387:1391   */\n      0x00\n        /* \"#utility.yul\":1425:1427   */\n      0x20\n        /* \"#utility.yul\":1414:1423   */\n      dup3\n        /* \"#utility.yul\":1410:1428   */\n      add\n        /* \"#utility.yul\":1402:1428   */\n      swap1\n      pop\n        /* \"#utility.yul\":1438:1509   */\n      tag_46\n        /* \"#utility.yul\":1506:1507   */\n      0x00\n        /* \"#utility.yul\":1495:1504   */\n      dup4\n        /* \"#utility.yul\":1491:1508   */\n      add\n        /* \"#utility.yul\":1482:1488   */\n      dup5\n        /* \"#utility.yul\":1438:1509   */\n      tag_26\n      jump\t// in\n    tag_46:\n        /* \"#utility.yul\":1294:1516   */\n      swap3\n      swap2\n      pop\n      pop\n      jump\t// out\n        /* \"#utility.yul\":1522:1702   */\n    tag_27:\n        /* \"#utility.yul\":1570:1647   */\n      0x4e487b7100000000000000000000000000000000000000000000000000000000\n        /* \"#utility.yul\":1567:1568   */\n      0x00\n        /* \"#utility.yul\":1560:1648   */\n      mstore\n        /* \"#utility.yul\":1667:1671   */\n      0x12\n        /* \"#utility.yul\":1664:1665   */\n      0x04\n        /* \"#utility.yul\":1657:1672   */\n      mstore\n        /* \"#utility.yul\":1691:1695   */\n      0x24\n        /* \"#utility.yul\":1688:1689   */\n      0x00\n        /* \"#utility.yul\":1681:1696   */\n      revert\n        /* \"#utility.yul\":1708:1884   */\n    tag_15:\n        /* \"#utility.yul\":1740:1741   */\n      0x00\n        /* \"#utility.yul\":1757:1777   */\n      tag_49\n        /* \"#utility.yul\":1775:1776   */\n      dup3\n        /* \"#utility.yul\":1757:1777   */\n      tag_23\n      jump\t// in\n    tag_49:\n        /* \"#utility.yul\":1752:1777   */\n      swap2\n      pop\n        /* \"#utility.yul\":1791:1811   */\n      tag_50\n        /* \"#utility.yul\":1809:1810   */\n      dup4\n        /* \"#utility.yul\":1791:1811   */\n      tag_23\n      jump\t// in\n    tag_50:\n        /* \"#utility.yul\":1786:1811   */\n      swap3\n      pop\n        /* \"#utility.yul\":1830:1831   */\n      dup3\n        /* \"#utility.yul\":1820:1855   */\n      tag_51\n      jumpi\n        /* \"#utility.yul\":1835:1853   */\n      tag_52\n      tag_27\n      jump\t// in\n    tag_52:\n        /* \"#utility.yul\":1820:1855   */\n    tag_51:\n        /* \"#utility.yul\":1876:1877   */\n      dup3\n        /* \"#utility.yul\":1873:1874   */\n      dup3\n        /* \"#utility.yul\":1869:1878   */\n      mod\n        /* \"#utility.yul\":1864:1878   */\n      swap1\n      pop\n        /* \"#utility.yul\":1708:1884   */\n      swap3\n      swap2\n      pop\n      pop\n      jump\t// out\n\n    auxdata: 0xa26469706673582212200734843f96718b00dbb3b6afbbcb56697f3ab475a2dd51962bbc1efd21eca06864736f6c634300081a0033\n}\n",
				"bytecode": {
					"linkReferences": {},
					"object": "608060405260045f553480156012575f80fd5b506102b3806100205f395ff3fe608060405234801561000f575f80fd5b5060043610610034575f3560e01c806353b619a3146100385780636fecb62314610054575b5f80fd5b610052600480360381019061004d91906101ba565b610072565b005b61005c61017e565b6040516100699190610207565b60405180910390f35b81815f600282610082919061024d565b1461008b575f80fd5b60015f8581526020019081526020015f206002015f9054906101000a900473ffffffffffffffffffffffffffffffffffffffff1673ffffffffffffffffffffffffffffffffffffffff163373ffffffffffffffffffffffffffffffffffffffff16146100f5575f80fd5b8260015f8681526020019081526020015f206001018190555060015f8381526020019081526020015f206002015f9054906101000a900473ffffffffffffffffffffffffffffffffffffffff1673ffffffffffffffffffffffffffffffffffffffff163373ffffffffffffffffffffffffffffffffffffffff1614610178575f80fd5b50505050565b5f5481565b5f80fd5b5f819050919050565b61019981610187565b81146101a3575f80fd5b50565b5f813590506101b481610190565b92915050565b5f80604083850312156101d0576101cf610183565b5b5f6101dd858286016101a6565b92505060206101ee858286016101a6565b9150509250929050565b61020181610187565b82525050565b5f60208201905061021a5f8301846101f8565b92915050565b7f4e487b71000000000000000000000000000000000000000000000000000000005f52601260045260245ffd5b5f61025782610187565b915061026283610187565b92508261027257610271610220565b5b82820690509291505056fea26469706673582212200734843f96718b00dbb3b6afbbcb56697f3ab475a2dd51962bbc1efd21eca06864736f6c634300081a0033",
					"opcodes": "PUSH1 0x80 PUSH1 0x40 MSTORE PUSH1 0x4 PUSH0 SSTORE CALLVALUE DUP1 ISZERO PUSH1 0x12 JUMPI PUSH0 DUP1 REVERT JUMPDEST POP PUSH2 0x2B3 DUP1 PUSH2 0x20 PUSH0 CODECOPY PUSH0 RETURN INVALID PUSH1 0x80 PUSH1 0x40 MSTORE CALLVALUE DUP1 ISZERO PUSH2 0xF JUMPI PUSH0 DUP1 REVERT JUMPDEST POP PUSH1 0x4 CALLDATASIZE LT PUSH2 0x34 JUMPI PUSH0 CALLDATALOAD PUSH1 0xE0 SHR DUP1 PUSH4 0x53B619A3 EQ PUSH2 0x38 JUMPI DUP1 PUSH4 0x6FECB623 EQ PUSH2 0x54 JUMPI JUMPDEST PUSH0 DUP1 REVERT JUMPDEST PUSH2 0x52 PUSH1 0x4 DUP1 CALLDATASIZE SUB DUP2 ADD SWAP1 PUSH2 0x4D SWAP2 SWAP1 PUSH2 0x1BA JUMP JUMPDEST PUSH2 0x72 JUMP JUMPDEST STOP JUMPDEST PUSH2 0x5C PUSH2 0x17E JUMP JUMPDEST PUSH1 0x40 MLOAD PUSH2 0x69 SWAP2 SWAP1 PUSH2 0x207 JUMP JUMPDEST PUSH1 0x40 MLOAD DUP1 SWAP2 SUB SWAP1 RETURN JUMPDEST DUP2 DUP2 PUSH0 PUSH1 0x2 DUP3 PUSH2 0x82 SWAP2 SWAP1 PUSH2 0x24D JUMP JUMPDEST EQ PUSH2 0x8B JUMPI PUSH0 DUP1 REVERT JUMPDEST PUSH1 0x1 PUSH0 DUP6 DUP2 MSTORE PUSH1 0x20 ADD SWAP1 DUP2 MSTORE PUSH1 0x20 ADD PUSH0 KECCAK256 PUSH1 0x2 ADD PUSH0 SWAP1 SLOAD SWAP1 PUSH2 0x100 EXP SWAP1 DIV PUSH20 0xFFFFFFFFFFFFFFFFFFFFFFFFFFFFFFFFFFFFFFFF AND PUSH20 0xFFFFFFFFFFFFFFFFFFFFFFFFFFFFFFFFFFFFFFFF AND CALLER PUSH20 0xFFFFFFFFFFFFFFFFFFFFFFFFFFFFFFFFFFFFFFFF AND EQ PUSH2 0xF5 JUMPI PUSH0 DUP1 REVERT JUMPDEST DUP3 PUSH1 0x1 PUSH0 DUP7 DUP2 MSTORE PUSH1 0x20 ADD SWAP1 DUP2 MSTORE PUSH1 0x20 ADD PUSH0 KECCAK256 PUSH1 0x1 ADD DUP2 SWAP1 SSTORE POP PUSH1 0x1 PUSH0 DUP4 DUP2 MSTORE PUSH1 0x20 ADD SWAP1 DUP2 MSTORE PUSH1 0x20 ADD PUSH0 KECCAK256 PUSH1 0x2 ADD PUSH0 SWAP1 SLOAD SWAP1 PUSH2 0x100 EXP SWAP1 DIV PUSH20 0xFFFFFFFFFFFFFFFFFFFFFFFFFFFFFFFFFFFFFFFF AND PUSH20 0xFFFFFFFFFFFFFFFFFFFFFFFFFFFFFFFFFFFFFFFF AND CALLER PUSH20 0xFFFFFFFFFFFFFFFFFFFFFFFFFFFFFFFFFFFFFFFF AND EQ PUSH2 0x178 JUMPI PUSH0 DUP1 REVERT JUMPDEST POP POP POP POP JUMP JUMPDEST PUSH0 SLOAD DUP2 JUMP JUMPDEST PUSH0 DUP1 REVERT JUMPDEST PUSH0 DUP2 SWAP1 POP SWAP2 SWAP1 POP JUMP JUMPDEST PUSH2 0x199 DUP2 PUSH2 0x187 JUMP JUMPDEST DUP2 EQ PUSH2 0x1A3 JUMPI PUSH0 DUP1 REVERT JUMPDEST POP JUMP JUMPDEST PUSH0 DUP2 CALLDATALOAD SWAP1 POP PUSH2 0x1B4 DUP2 PUSH2 0x190 JUMP JUMPDEST SWAP3 SWAP2 POP POP JUMP JUMPDEST PUSH0 DUP1 PUSH1 0x40 DUP4 DUP6 SUB SLT ISZERO PUSH2 0x1D0 JUMPI PUSH2 0x1CF PUSH2 0x183 JUMP JUMPDEST JUMPDEST PUSH0 PUSH2 0x1DD DUP6 DUP3 DUP7 ADD PUSH2 0x1A6 JUMP JUMPDEST SWAP3 POP POP PUSH1 0x20 PUSH2 0x1EE DUP6 DUP3 DUP7 ADD PUSH2 0x1A6 JUMP JUMPDEST SWAP2 POP POP SWAP3 POP SWAP3 SWAP1 POP JUMP JUMPDEST PUSH2 0x201 DUP2 PUSH2 0x187 JUMP JUMPDEST DUP3 MSTORE POP POP JUMP JUMPDEST PUSH0 PUSH1 0x20 DUP3 ADD SWAP1 POP PUSH2 0x21A PUSH0 DUP4 ADD DUP5 PUSH2 0x1F8 JUMP JUMPDEST SWAP3 SWAP2 POP POP JUMP JUMPDEST PUSH32 0x4E487B7100000000000000000000000000000000000000000000000000000000 PUSH0 MSTORE PUSH1 0x12 PUSH1 0x4 MSTORE PUSH1 0x24 PUSH0 REVERT JUMPDEST PUSH0 PUSH2 0x257 DUP3 PUSH2 0x187 JUMP JUMPDEST SWAP2 POP PUSH2 0x262 DUP4 PUSH2 0x187 JUMP JUMPDEST SWAP3 POP DUP3 PUSH2 0x272 JUMPI PUSH2 0x271 PUSH2 0x220 JUMP JUMPDEST JUMPDEST DUP3 DUP3 MOD SWAP1 POP SWAP3 SWAP2 POP POP JUMP INVALID LOG2 PUSH5 0x6970667358 0x22 SLT KECCAK256 SMOD CALLVALUE DUP5 EXTCODEHASH SWAP7 PUSH18 0x8B00DBB3B6AFBBCB56697F3AB475A2DD5196 0x2B 0xBC 0x1E REVERT 0x21 0xEC LOG0 PUSH9 0x64736F6C634300081A STOP CALLER "
				},
				"gasEstimates": {
					"creation": {
						"codeDepositCost": "138200",
						"executionCost": "22286",
						"totalCost": "160486"
					},
					"external": {
						"G()": "2424",
						"edit(uint256,uint256)": "infinite"
					}
				},
				"methodIdentifiers": {
					"G()": "6fecb623",
					"edit(uint256,uint256)": "53b619a3"
				}
			},
			"storageLayout": {
				"storage": [
					{
						"astId": 37,
						"contract": "simple_parent.sol:SimpleStorage",
						"label": "G",
						"offset": 0,
						"slot": "0",
						"type": "t_uint256"
					},
					{
						"astId": 75,
						"contract": "simple_parent.sol:SimpleStorage",
						"label": "apples",
						"offset": 0,
						"slot": "1",
						"type": "t_mapping(t_uint256,t_struct(Apple)44_storage)"
					}
				],
				"types": {
					"t_address": {
						"encoding": "inplace",
						"label": "address",
						"numberOfBytes": "20"
					},
					"t_mapping(t_uint256,t_struct(Apple)44_storage)": {
						"encoding": "mapping",
						"key": "t_uint256",
						"label": "mapping(uint256 => struct SimpleStorage.Apple)",
						"numberOfBytes": "32",
						"value": "t_struct(Apple)44_storage"
					},
					"t_struct(Apple)44_storage": {
						"encoding": "inplace",
						"label": "struct SimpleStorage.Apple",
						"members": [
							{
								"astId": 39,
								"contract": "simple_parent.sol:SimpleStorage",
								"label": "id",
								"offset": 0,
								"slot": "0",
								"type": "t_uint256"
							},
							{
								"astId": 41,
								"contract": "simple_parent.sol:SimpleStorage",
								"label": "data",
								"offset": 0,
								"slot": "1",
								"type": "t_uint256"
							},
							{
								"astId": 43,
								"contract": "simple_parent.sol:SimpleStorage",
								"label": "owner",
								"offset": 0,
								"slot": "2",
								"type": "t_address"
							}
						],
						"numberOfBytes": "96"
					},
					"t_uint256": {
						"encoding": "inplace",
						"label": "uint256",
						"numberOfBytes": "32"
					}
				}
			},
			"userdoc": {
				"kind": "user",
				"methods": {},
				"version": 1
			}
		}
	}
}