{
	"Child.sol": {
		"Child": {
			"abi": [
				{
					"inputs": [
						{
							"internalType": "string",
							"name": "_name",
							"type": "string"
						}
					],
					"name": "changeName",
					"outputs": [],
					"stateMutability": "nonpayable",
					"type": "function"
				},
				{
					"inputs": [
						{
							"internalType": "string",
							"name": "_name",
							"type": "string"
						},
						{
							"internalType": "int256",
							"name": "num",
							"type": "int256"
						}
					],
					"name": "changeNameAndNum",
					"outputs": [],
					"stateMutability": "nonpayable",
					"type": "function"
				},
				{
					"inputs": [
						{
							"internalType": "int256",
							"name": "_num",
							"type": "int256"
						}
					],
					"name": "changeNum",
					"outputs": [],
					"stateMutability": "nonpayable",
					"type": "function"
				},
				{
					"inputs": [],
					"name": "name",
					"outputs": [
						{
							"internalType": "string",
							"name": "",
							"type": "string"
						}
					],
					"stateMutability": "view",
					"type": "function"
				},
				{
					"inputs": [],
					"name": "num",
					"outputs": [
						{
							"internalType": "int256",
							"name": "",
							"type": "int256"
						}
					],
					"stateMutability": "view",
					"type": "function"
				}
			],
			"devdoc": {
				"kind": "dev",
				"methods": {},
				"version": 1
			},
			"evm": {
				"assembly": "    /* \"Child.sol\":50:323  contract Child is Parent {... */\n  mstore(0x40, 0x80)\n  callvalue\n  dup1\n  iszero\n  tag_1\n  jumpi\n  0x00\n  dup1\n  revert\ntag_1:\n  pop\n  dataSize(sub_0)\n  dup1\n  dataOffset(sub_0)\n  0x00\n  codecopy\n  0x00\n  return\nstop\n\nsub_0: assembly {\n        /* \"Child.sol\":50:323  contract Child is Parent {... */\n      mstore(0x40, 0x80)\n      callvalue\n      dup1\n      iszero\n      tag_1\n      jumpi\n      0x00\n      dup1\n      revert\n    tag_1:\n      pop\n      jumpi(tag_2, lt(calldatasize, 0x04))\n      shr(0xe0, calldataload(0x00))\n      dup1\n      0x06fdde03\n      eq\n      tag_3\n      jumpi\n      dup1\n      0x1584653a\n      eq\n      tag_4\n      jumpi\n      dup1\n      0x2f42b8ec\n      eq\n      tag_5\n      jumpi\n      dup1\n      0x4e70b1dc\n      eq\n      tag_6\n      jumpi\n      dup1\n      0x5353a2d8\n      eq\n      tag_7\n      jumpi\n    tag_2:\n      0x00\n      dup1\n      revert\n        /* \"Child.sol\":82:100  string public name */\n    tag_3:\n      tag_8\n      tag_9\n      jump\t// in\n    tag_8:\n      mload(0x40)\n      tag_10\n      swap2\n      swap1\n      tag_11\n      jump\t// in\n    tag_10:\n      mload(0x40)\n      dup1\n      swap2\n      sub\n      swap1\n      return\n        /* \"Child.sol\":196:320  function changeNameAndNum(string memory _name, int num) public {... */\n    tag_4:\n      tag_12\n      0x04\n      dup1\n      calldatasize\n      sub\n      dup2\n      add\n      swap1\n      tag_13\n      swap2\n      swap1\n      tag_14\n      jump\t// in\n    tag_13:\n      tag_15\n      jump\t// in\n    tag_12:\n      stop\n        /* \"Parent.sol\":112:177  function changeNum(int _num) public {... */\n    tag_5:\n      tag_16\n      0x04\n      dup1\n      calldatasize\n      sub\n      dup2\n      add\n      swap1\n      tag_17\n      swap2\n      swap1\n      tag_18\n      jump\t// in\n    tag_17:\n      tag_19\n      jump\t// in\n    tag_16:\n      stop\n        /* \"Parent.sol\":89:103  int public num */\n    tag_6:\n      tag_20\n      tag_21\n      jump\t// in\n    tag_20:\n      mload(0x40)\n      tag_22\n      swap2\n      swap1\n      tag_23\n      jump\t// in\n    tag_22:\n      mload(0x40)\n      dup1\n      swap2\n      sub\n      swap1\n      return\n        /* \"Child.sol\":109:188  function changeName(string memory _name) public {... */\n    tag_7:\n      tag_24\n      0x04\n      dup1\n      calldatasize\n      sub\n      dup2\n      add\n      swap1\n      tag_25\n      swap2\n      swap1\n      tag_26\n      jump\t// in\n    tag_25:\n      tag_27\n      jump\t// in\n    tag_24:\n      stop\n        /* \"Child.sol\":82:100  string public name */\n    tag_9:\n      0x01\n      dup1\n      sload\n      tag_28\n      swap1\n      tag_29\n      jump\t// in\n    tag_28:\n      dup1\n      0x1f\n      add\n      0x20\n      dup1\n      swap2\n      div\n      mul\n      0x20\n      add\n      mload(0x40)\n      swap1\n      dup2\n      add\n      0x40\n      mstore\n      dup1\n      swap3\n      swap2\n      swap1\n      dup2\n      dup2\n      mstore\n      0x20\n      add\n      dup3\n      dup1\n      sload\n      tag_30\n      swap1\n      tag_29\n      jump\t// in\n    tag_30:\n      dup1\n      iszero\n      tag_31\n      jumpi\n      dup1\n      0x1f\n      lt\n      tag_32\n      jumpi\n      0x0100\n      dup1\n      dup4\n      sload\n      div\n      mul\n      dup4\n      mstore\n      swap2\n      0x20\n      add\n      swap2\n      jump(tag_31)\n    tag_32:\n      dup3\n      add\n      swap2\n      swap1\n      0x00\n      mstore\n      keccak256(0x00, 0x20)\n      swap1\n    tag_33:\n      dup2\n      sload\n      dup2\n      mstore\n      swap1\n      0x01\n      add\n      swap1\n      0x20\n      add\n      dup1\n      dup4\n      gt\n      tag_33\n      jumpi\n      dup3\n      swap1\n      sub\n      0x1f\n      and\n      dup3\n      add\n      swap2\n    tag_31:\n      pop\n      pop\n      pop\n      pop\n      pop\n      dup2\n      jump\t// out\n        /* \"Child.sol\":196:320  function changeNameAndNum(string memory _name, int num) public {... */\n    tag_15:\n        /* \"Child.sol\":270:287  changeName(_name) */\n      tag_35\n        /* \"Child.sol\":281:286  _name */\n      dup3\n        /* \"Child.sol\":270:280  changeName */\n      tag_27\n        /* \"Child.sol\":270:287  changeName(_name) */\n      jump\t// in\n    tag_35:\n        /* \"Child.sol\":298:312  changeNum(num) */\n      tag_36\n        /* \"Child.sol\":308:311  num */\n      dup2\n        /* \"Child.sol\":298:307  changeNum */\n      tag_19\n        /* \"Child.sol\":298:312  changeNum(num) */\n      jump\t// in\n    tag_36:\n        /* \"Child.sol\":196:320  function changeNameAndNum(string memory _name, int num) public {... */\n      pop\n      pop\n      jump\t// out\n        /* \"Parent.sol\":112:177  function changeNum(int _num) public {... */\n    tag_19:\n        /* \"Parent.sol\":165:169  _num */\n      dup1\n        /* \"Parent.sol\":159:162  num */\n      0x00\n        /* \"Parent.sol\":159:169  num = _num */\n      dup2\n      swap1\n      sstore\n      pop\n        /* \"Parent.sol\":112:177  function changeNum(int _num) public {... */\n      pop\n      jump\t// out\n        /* \"Parent.sol\":89:103  int public num */\n    tag_21:\n      sload(0x00)\n      dup2\n      jump\t// out\n        /* \"Child.sol\":109:188  function changeName(string memory _name) public {... */\n    tag_27:\n        /* \"Child.sol\":175:180  _name */\n      dup1\n        /* \"Child.sol\":168:172  name */\n      0x01\n        /* \"Child.sol\":168:180  name = _name */\n      swap1\n      dup2\n      tag_39\n      swap2\n      swap1\n      tag_40\n      jump\t// in\n    tag_39:\n      pop\n        /* \"Child.sol\":109:188  function changeName(string memory _name) public {... */\n      pop\n      jump\t// out\n        /* \"#utility.yul\":7:106   */\n    tag_41:\n        /* \"#utility.yul\":59:65   */\n      0x00\n        /* \"#utility.yul\":93:98   */\n      dup2\n        /* \"#utility.yul\":87:99   */\n      mload\n        /* \"#utility.yul\":77:99   */\n      swap1\n      pop\n        /* \"#utility.yul\":7:106   */\n      swap2\n      swap1\n      pop\n      jump\t// out\n        /* \"#utility.yul\":112:281   */\n    tag_42:\n        /* \"#utility.yul\":196:207   */\n      0x00\n        /* \"#utility.yul\":230:236   */\n      dup3\n        /* \"#utility.yul\":225:228   */\n      dup3\n        /* \"#utility.yul\":218:237   */\n      mstore\n        /* \"#utility.yul\":270:274   */\n      0x20\n        /* \"#utility.yul\":265:268   */\n      dup3\n        /* \"#utility.yul\":261:275   */\n      add\n        /* \"#utility.yul\":246:275   */\n      swap1\n      pop\n        /* \"#utility.yul\":112:281   */\n      swap3\n      swap2\n      pop\n      pop\n      jump\t// out\n        /* \"#utility.yul\":287:426   */\n    tag_43:\n        /* \"#utility.yul\":376:382   */\n      dup3\n        /* \"#utility.yul\":371:374   */\n      dup2\n        /* \"#utility.yul\":366:369   */\n      dup4\n        /* \"#utility.yul\":360:383   */\n      mcopy\n        /* \"#utility.yul\":417:418   */\n      0x00\n        /* \"#utility.yul\":408:414   */\n      dup4\n        /* \"#utility.yul\":403:406   */\n      dup4\n        /* \"#utility.yul\":399:415   */\n      add\n        /* \"#utility.yul\":392:419   */\n      mstore\n        /* \"#utility.yul\":287:426   */\n      pop\n      pop\n      pop\n      jump\t// out\n        /* \"#utility.yul\":432:534   */\n    tag_44:\n        /* \"#utility.yul\":473:479   */\n      0x00\n        /* \"#utility.yul\":524:526   */\n      0x1f\n        /* \"#utility.yul\":520:527   */\n      not\n        /* \"#utility.yul\":515:517   */\n      0x1f\n        /* \"#utility.yul\":508:513   */\n      dup4\n        /* \"#utility.yul\":504:518   */\n      add\n        /* \"#utility.yul\":500:528   */\n      and\n        /* \"#utility.yul\":490:528   */\n      swap1\n      pop\n        /* \"#utility.yul\":432:534   */\n      swap2\n      swap1\n      pop\n      jump\t// out\n        /* \"#utility.yul\":540:917   */\n    tag_45:\n        /* \"#utility.yul\":628:631   */\n      0x00\n        /* \"#utility.yul\":656:695   */\n      tag_85\n        /* \"#utility.yul\":689:694   */\n      dup3\n        /* \"#utility.yul\":656:695   */\n      tag_41\n      jump\t// in\n    tag_85:\n        /* \"#utility.yul\":711:782   */\n      tag_86\n        /* \"#utility.yul\":775:781   */\n      dup2\n        /* \"#utility.yul\":770:773   */\n      dup6\n        /* \"#utility.yul\":711:782   */\n      tag_42\n      jump\t// in\n    tag_86:\n        /* \"#utility.yul\":704:782   */\n      swap4\n      pop\n        /* \"#utility.yul\":791:856   */\n      tag_87\n        /* \"#utility.yul\":849:855   */\n      dup2\n        /* \"#utility.yul\":844:847   */\n      dup6\n        /* \"#utility.yul\":837:841   */\n      0x20\n        /* \"#utility.yul\":830:835   */\n      dup7\n        /* \"#utility.yul\":826:842   */\n      add\n        /* \"#utility.yul\":791:856   */\n      tag_43\n      jump\t// in\n    tag_87:\n        /* \"#utility.yul\":881:910   */\n      tag_88\n        /* \"#utility.yul\":903:909   */\n      dup2\n        /* \"#utility.yul\":881:910   */\n      tag_44\n      jump\t// in\n    tag_88:\n        /* \"#utility.yul\":876:879   */\n      dup5\n        /* \"#utility.yul\":872:911   */\n      add\n        /* \"#utility.yul\":865:911   */\n      swap2\n      pop\n        /* \"#utility.yul\":632:917   */\n      pop\n        /* \"#utility.yul\":540:917   */\n      swap3\n      swap2\n      pop\n      pop\n      jump\t// out\n        /* \"#utility.yul\":923:1236   */\n    tag_11:\n        /* \"#utility.yul\":1036:1040   */\n      0x00\n        /* \"#utility.yul\":1074:1076   */\n      0x20\n        /* \"#utility.yul\":1063:1072   */\n      dup3\n        /* \"#utility.yul\":1059:1077   */\n      add\n        /* \"#utility.yul\":1051:1077   */\n      swap1\n      pop\n        /* \"#utility.yul\":1123:1132   */\n      dup2\n        /* \"#utility.yul\":1117:1121   */\n      dup2\n        /* \"#utility.yul\":1113:1133   */\n      sub\n        /* \"#utility.yul\":1109:1110   */\n      0x00\n        /* \"#utility.yul\":1098:1107   */\n      dup4\n        /* \"#utility.yul\":1094:1111   */\n      add\n        /* \"#utility.yul\":1087:1134   */\n      mstore\n        /* \"#utility.yul\":1151:1229   */\n      tag_90\n        /* \"#utility.yul\":1224:1228   */\n      dup2\n        /* \"#utility.yul\":1215:1221   */\n      dup5\n        /* \"#utility.yul\":1151:1229   */\n      tag_45\n      jump\t// in\n    tag_90:\n        /* \"#utility.yul\":1143:1229   */\n      swap1\n      pop\n        /* \"#utility.yul\":923:1236   */\n      swap3\n      swap2\n      pop\n      pop\n      jump\t// out\n        /* \"#utility.yul\":1242:1317   */\n    tag_46:\n        /* \"#utility.yul\":1275:1281   */\n      0x00\n        /* \"#utility.yul\":1308:1310   */\n      0x40\n        /* \"#utility.yul\":1302:1311   */\n      mload\n        /* \"#utility.yul\":1292:1311   */\n      swap1\n      pop\n        /* \"#utility.yul\":1242:1317   */\n      swap1\n      jump\t// out\n        /* \"#utility.yul\":1323:1440   */\n    tag_47:\n        /* \"#utility.yul\":1432:1433   */\n      0x00\n        /* \"#utility.yul\":1429:1430   */\n      dup1\n        /* \"#utility.yul\":1422:1434   */\n      revert\n        /* \"#utility.yul\":1446:1563   */\n    tag_48:\n        /* \"#utility.yul\":1555:1556   */\n      0x00\n        /* \"#utility.yul\":1552:1553   */\n      dup1\n        /* \"#utility.yul\":1545:1557   */\n      revert\n        /* \"#utility.yul\":1569:1686   */\n    tag_49:\n        /* \"#utility.yul\":1678:1679   */\n      0x00\n        /* \"#utility.yul\":1675:1676   */\n      dup1\n        /* \"#utility.yul\":1668:1680   */\n      revert\n        /* \"#utility.yul\":1692:1809   */\n    tag_50:\n        /* \"#utility.yul\":1801:1802   */\n      0x00\n        /* \"#utility.yul\":1798:1799   */\n      dup1\n        /* \"#utility.yul\":1791:1803   */\n      revert\n        /* \"#utility.yul\":1815:1995   */\n    tag_51:\n        /* \"#utility.yul\":1863:1940   */\n      0x4e487b7100000000000000000000000000000000000000000000000000000000\n        /* \"#utility.yul\":1860:1861   */\n      0x00\n        /* \"#utility.yul\":1853:1941   */\n      mstore\n        /* \"#utility.yul\":1960:1964   */\n      0x41\n        /* \"#utility.yul\":1957:1958   */\n      0x04\n        /* \"#utility.yul\":1950:1965   */\n      mstore\n        /* \"#utility.yul\":1984:1988   */\n      0x24\n        /* \"#utility.yul\":1981:1982   */\n      0x00\n        /* \"#utility.yul\":1974:1989   */\n      revert\n        /* \"#utility.yul\":2001:2282   */\n    tag_52:\n        /* \"#utility.yul\":2084:2111   */\n      tag_98\n        /* \"#utility.yul\":2106:2110   */\n      dup3\n        /* \"#utility.yul\":2084:2111   */\n      tag_44\n      jump\t// in\n    tag_98:\n        /* \"#utility.yul\":2076:2082   */\n      dup2\n        /* \"#utility.yul\":2072:2112   */\n      add\n        /* \"#utility.yul\":2214:2220   */\n      dup2\n        /* \"#utility.yul\":2202:2212   */\n      dup2\n        /* \"#utility.yul\":2199:2221   */\n      lt\n        /* \"#utility.yul\":2178:2196   */\n      0xffffffffffffffff\n        /* \"#utility.yul\":2166:2176   */\n      dup3\n        /* \"#utility.yul\":2163:2197   */\n      gt\n        /* \"#utility.yul\":2160:2222   */\n      or\n        /* \"#utility.yul\":2157:2245   */\n      iszero\n      tag_99\n      jumpi\n        /* \"#utility.yul\":2225:2243   */\n      tag_100\n      tag_51\n      jump\t// in\n    tag_100:\n        /* \"#utility.yul\":2157:2245   */\n    tag_99:\n        /* \"#utility.yul\":2265:2275   */\n      dup1\n        /* \"#utility.yul\":2261:2263   */\n      0x40\n        /* \"#utility.yul\":2254:2276   */\n      mstore\n        /* \"#utility.yul\":2044:2282   */\n      pop\n        /* \"#utility.yul\":2001:2282   */\n      pop\n      pop\n      jump\t// out\n        /* \"#utility.yul\":2288:2417   */\n    tag_53:\n        /* \"#utility.yul\":2322:2328   */\n      0x00\n        /* \"#utility.yul\":2349:2369   */\n      tag_102\n      tag_46\n      jump\t// in\n    tag_102:\n        /* \"#utility.yul\":2339:2369   */\n      swap1\n      pop\n        /* \"#utility.yul\":2378:2411   */\n      tag_103\n        /* \"#utility.yul\":2406:2410   */\n      dup3\n        /* \"#utility.yul\":2398:2404   */\n      dup3\n        /* \"#utility.yul\":2378:2411   */\n      tag_52\n      jump\t// in\n    tag_103:\n        /* \"#utility.yul\":2288:2417   */\n      swap2\n      swap1\n      pop\n      jump\t// out\n        /* \"#utility.yul\":2423:2731   */\n    tag_54:\n        /* \"#utility.yul\":2485:2489   */\n      0x00\n        /* \"#utility.yul\":2575:2593   */\n      0xffffffffffffffff\n        /* \"#utility.yul\":2567:2573   */\n      dup3\n        /* \"#utility.yul\":2564:2594   */\n      gt\n        /* \"#utility.yul\":2561:2617   */\n      iszero\n      tag_105\n      jumpi\n        /* \"#utility.yul\":2597:2615   */\n      tag_106\n      tag_51\n      jump\t// in\n    tag_106:\n        /* \"#utility.yul\":2561:2617   */\n    tag_105:\n        /* \"#utility.yul\":2635:2664   */\n      tag_107\n        /* \"#utility.yul\":2657:2663   */\n      dup3\n        /* \"#utility.yul\":2635:2664   */\n      tag_44\n      jump\t// in\n    tag_107:\n        /* \"#utility.yul\":2627:2664   */\n      swap1\n      pop\n        /* \"#utility.yul\":2719:2723   */\n      0x20\n        /* \"#utility.yul\":2713:2717   */\n      dup2\n        /* \"#utility.yul\":2709:2724   */\n      add\n        /* \"#utility.yul\":2701:2724   */\n      swap1\n      pop\n        /* \"#utility.yul\":2423:2731   */\n      swap2\n      swap1\n      pop\n      jump\t// out\n        /* \"#utility.yul\":2737:2885   */\n    tag_55:\n        /* \"#utility.yul\":2835:2841   */\n      dup3\n        /* \"#utility.yul\":2830:2833   */\n      dup2\n        /* \"#utility.yul\":2825:2828   */\n      dup4\n        /* \"#utility.yul\":2812:2842   */\n      calldatacopy\n        /* \"#utility.yul\":2876:2877   */\n      0x00\n        /* \"#utility.yul\":2867:2873   */\n      dup4\n        /* \"#utility.yul\":2862:2865   */\n      dup4\n        /* \"#utility.yul\":2858:2874   */\n      add\n        /* \"#utility.yul\":2851:2878   */\n      mstore\n        /* \"#utility.yul\":2737:2885   */\n      pop\n      pop\n      pop\n      jump\t// out\n        /* \"#utility.yul\":2891:3316   */\n    tag_56:\n        /* \"#utility.yul\":2969:2974   */\n      0x00\n        /* \"#utility.yul\":2994:3060   */\n      tag_110\n        /* \"#utility.yul\":3010:3059   */\n      tag_111\n        /* \"#utility.yul\":3052:3058   */\n      dup5\n        /* \"#utility.yul\":3010:3059   */\n      tag_54\n      jump\t// in\n    tag_111:\n        /* \"#utility.yul\":2994:3060   */\n      tag_53\n      jump\t// in\n    tag_110:\n        /* \"#utility.yul\":2985:3060   */\n      swap1\n      pop\n        /* \"#utility.yul\":3083:3089   */\n      dup3\n        /* \"#utility.yul\":3076:3081   */\n      dup2\n        /* \"#utility.yul\":3069:3090   */\n      mstore\n        /* \"#utility.yul\":3121:3125   */\n      0x20\n        /* \"#utility.yul\":3114:3119   */\n      dup2\n        /* \"#utility.yul\":3110:3126   */\n      add\n        /* \"#utility.yul\":3159:3162   */\n      dup5\n        /* \"#utility.yul\":3150:3156   */\n      dup5\n        /* \"#utility.yul\":3145:3148   */\n      dup5\n        /* \"#utility.yul\":3141:3157   */\n      add\n        /* \"#utility.yul\":3138:3163   */\n      gt\n        /* \"#utility.yul\":3135:3247   */\n      iszero\n      tag_112\n      jumpi\n        /* \"#utility.yul\":3166:3245   */\n      tag_113\n      tag_50\n      jump\t// in\n    tag_113:\n        /* \"#utility.yul\":3135:3247   */\n    tag_112:\n        /* \"#utility.yul\":3256:3310   */\n      tag_114\n        /* \"#utility.yul\":3303:3309   */\n      dup5\n        /* \"#utility.yul\":3298:3301   */\n      dup3\n        /* \"#utility.yul\":3293:3296   */\n      dup6\n        /* \"#utility.yul\":3256:3310   */\n      tag_55\n      jump\t// in\n    tag_114:\n        /* \"#utility.yul\":2975:3316   */\n      pop\n        /* \"#utility.yul\":2891:3316   */\n      swap4\n      swap3\n      pop\n      pop\n      pop\n      jump\t// out\n        /* \"#utility.yul\":3336:3676   */\n    tag_57:\n        /* \"#utility.yul\":3392:3397   */\n      0x00\n        /* \"#utility.yul\":3441:3444   */\n      dup3\n        /* \"#utility.yul\":3434:3438   */\n      0x1f\n        /* \"#utility.yul\":3426:3432   */\n      dup4\n        /* \"#utility.yul\":3422:3439   */\n      add\n        /* \"#utility.yul\":3418:3445   */\n      slt\n        /* \"#utility.yul\":3408:3530   */\n      tag_116\n      jumpi\n        /* \"#utility.yul\":3449:3528   */\n      tag_117\n      tag_49\n      jump\t// in\n    tag_117:\n        /* \"#utility.yul\":3408:3530   */\n    tag_116:\n        /* \"#utility.yul\":3566:3572   */\n      dup2\n        /* \"#utility.yul\":3553:3573   */\n      calldataload\n        /* \"#utility.yul\":3591:3670   */\n      tag_118\n        /* \"#utility.yul\":3666:3669   */\n      dup5\n        /* \"#utility.yul\":3658:3664   */\n      dup3\n        /* \"#utility.yul\":3651:3655   */\n      0x20\n        /* \"#utility.yul\":3643:3649   */\n      dup7\n        /* \"#utility.yul\":3639:3656   */\n      add\n        /* \"#utility.yul\":3591:3670   */\n      tag_56\n      jump\t// in\n    tag_118:\n        /* \"#utility.yul\":3582:3670   */\n      swap2\n      pop\n        /* \"#utility.yul\":3398:3676   */\n      pop\n        /* \"#utility.yul\":3336:3676   */\n      swap3\n      swap2\n      pop\n      pop\n      jump\t// out\n        /* \"#utility.yul\":3682:3758   */\n    tag_58:\n        /* \"#utility.yul\":3718:3725   */\n      0x00\n        /* \"#utility.yul\":3747:3752   */\n      dup2\n        /* \"#utility.yul\":3736:3752   */\n      swap1\n      pop\n        /* \"#utility.yul\":3682:3758   */\n      swap2\n      swap1\n      pop\n      jump\t// out\n        /* \"#utility.yul\":3764:3884   */\n    tag_59:\n        /* \"#utility.yul\":3836:3859   */\n      tag_121\n        /* \"#utility.yul\":3853:3858   */\n      dup2\n        /* \"#utility.yul\":3836:3859   */\n      tag_58\n      jump\t// in\n    tag_121:\n        /* \"#utility.yul\":3829:3834   */\n      dup2\n        /* \"#utility.yul\":3826:3860   */\n      eq\n        /* \"#utility.yul\":3816:3878   */\n      tag_122\n      jumpi\n        /* \"#utility.yul\":3874:3875   */\n      0x00\n        /* \"#utility.yul\":3871:3872   */\n      dup1\n        /* \"#utility.yul\":3864:3876   */\n      revert\n        /* \"#utility.yul\":3816:3878   */\n    tag_122:\n        /* \"#utility.yul\":3764:3884   */\n      pop\n      jump\t// out\n        /* \"#utility.yul\":3890:4027   */\n    tag_60:\n        /* \"#utility.yul\":3935:3940   */\n      0x00\n        /* \"#utility.yul\":3973:3979   */\n      dup2\n        /* \"#utility.yul\":3960:3980   */\n      calldataload\n        /* \"#utility.yul\":3951:3980   */\n      swap1\n      pop\n        /* \"#utility.yul\":3989:4021   */\n      tag_124\n        /* \"#utility.yul\":4015:4020   */\n      dup2\n        /* \"#utility.yul\":3989:4021   */\n      tag_59\n      jump\t// in\n    tag_124:\n        /* \"#utility.yul\":3890:4027   */\n      swap3\n      swap2\n      pop\n      pop\n      jump\t// out\n        /* \"#utility.yul\":4033:4685   */\n    tag_14:\n        /* \"#utility.yul\":4110:4116   */\n      0x00\n        /* \"#utility.yul\":4118:4124   */\n      dup1\n        /* \"#utility.yul\":4167:4169   */\n      0x40\n        /* \"#utility.yul\":4155:4164   */\n      dup4\n        /* \"#utility.yul\":4146:4153   */\n      dup6\n        /* \"#utility.yul\":4142:4165   */\n      sub\n        /* \"#utility.yul\":4138:4170   */\n      slt\n        /* \"#utility.yul\":4135:4254   */\n      iszero\n      tag_126\n      jumpi\n        /* \"#utility.yul\":4173:4252   */\n      tag_127\n      tag_47\n      jump\t// in\n    tag_127:\n        /* \"#utility.yul\":4135:4254   */\n    tag_126:\n        /* \"#utility.yul\":4321:4322   */\n      0x00\n        /* \"#utility.yul\":4310:4319   */\n      dup4\n        /* \"#utility.yul\":4306:4323   */\n      add\n        /* \"#utility.yul\":4293:4324   */\n      calldataload\n        /* \"#utility.yul\":4351:4369   */\n      0xffffffffffffffff\n        /* \"#utility.yul\":4343:4349   */\n      dup2\n        /* \"#utility.yul\":4340:4370   */\n      gt\n        /* \"#utility.yul\":4337:4454   */\n      iszero\n      tag_128\n      jumpi\n        /* \"#utility.yul\":4373:4452   */\n      tag_129\n      tag_48\n      jump\t// in\n    tag_129:\n        /* \"#utility.yul\":4337:4454   */\n    tag_128:\n        /* \"#utility.yul\":4478:4541   */\n      tag_130\n        /* \"#utility.yul\":4533:4540   */\n      dup6\n        /* \"#utility.yul\":4524:4530   */\n      dup3\n        /* \"#utility.yul\":4513:4522   */\n      dup7\n        /* \"#utility.yul\":4509:4531   */\n      add\n        /* \"#utility.yul\":4478:4541   */\n      tag_57\n      jump\t// in\n    tag_130:\n        /* \"#utility.yul\":4468:4541   */\n      swap3\n      pop\n        /* \"#utility.yul\":4264:4551   */\n      pop\n        /* \"#utility.yul\":4590:4592   */\n      0x20\n        /* \"#utility.yul\":4616:4668   */\n      tag_131\n        /* \"#utility.yul\":4660:4667   */\n      dup6\n        /* \"#utility.yul\":4651:4657   */\n      dup3\n        /* \"#utility.yul\":4640:4649   */\n      dup7\n        /* \"#utility.yul\":4636:4658   */\n      add\n        /* \"#utility.yul\":4616:4668   */\n      tag_60\n      jump\t// in\n    tag_131:\n        /* \"#utility.yul\":4606:4668   */\n      swap2\n      pop\n        /* \"#utility.yul\":4561:4678   */\n      pop\n        /* \"#utility.yul\":4033:4685   */\n      swap3\n      pop\n      swap3\n      swap1\n      pop\n      jump\t// out\n        /* \"#utility.yul\":4691:5018   */\n    tag_18:\n        /* \"#utility.yul\":4749:4755   */\n      0x00\n        /* \"#utility.yul\":4798:4800   */\n      0x20\n        /* \"#utility.yul\":4786:4795   */\n      dup3\n        /* \"#utility.yul\":4777:4784   */\n      dup5\n        /* \"#utility.yul\":4773:4796   */\n      sub\n        /* \"#utility.yul\":4769:4801   */\n      slt\n        /* \"#utility.yul\":4766:4885   */\n      iszero\n      tag_133\n      jumpi\n        /* \"#utility.yul\":4804:4883   */\n      tag_134\n      tag_47\n      jump\t// in\n    tag_134:\n        /* \"#utility.yul\":4766:4885   */\n    tag_133:\n        /* \"#utility.yul\":4924:4925   */\n      0x00\n        /* \"#utility.yul\":4949:5001   */\n      tag_135\n        /* \"#utility.yul\":4993:5000   */\n      dup5\n        /* \"#utility.yul\":4984:4990   */\n      dup3\n        /* \"#utility.yul\":4973:4982   */\n      dup6\n        /* \"#utility.yul\":4969:4991   */\n      add\n        /* \"#utility.yul\":4949:5001   */\n      tag_60\n      jump\t// in\n    tag_135:\n        /* \"#utility.yul\":4939:5001   */\n      swap2\n      pop\n        /* \"#utility.yul\":4895:5011   */\n      pop\n        /* \"#utility.yul\":4691:5018   */\n      swap3\n      swap2\n      pop\n      pop\n      jump\t// out\n        /* \"#utility.yul\":5024:5139   */\n    tag_61:\n        /* \"#utility.yul\":5109:5132   */\n      tag_137\n        /* \"#utility.yul\":5126:5131   */\n      dup2\n        /* \"#utility.yul\":5109:5132   */\n      tag_58\n      jump\t// in\n    tag_137:\n        /* \"#utility.yul\":5104:5107   */\n      dup3\n        /* \"#utility.yul\":5097:5133   */\n      mstore\n        /* \"#utility.yul\":5024:5139   */\n      pop\n      pop\n      jump\t// out\n        /* \"#utility.yul\":5145:5363   */\n    tag_23:\n        /* \"#utility.yul\":5236:5240   */\n      0x00\n        /* \"#utility.yul\":5274:5276   */\n      0x20\n        /* \"#utility.yul\":5263:5272   */\n      dup3\n        /* \"#utility.yul\":5259:5277   */\n      add\n        /* \"#utility.yul\":5251:5277   */\n      swap1\n      pop\n        /* \"#utility.yul\":5287:5356   */\n      tag_139\n        /* \"#utility.yul\":5353:5354   */\n      0x00\n        /* \"#utility.yul\":5342:5351   */\n      dup4\n        /* \"#utility.yul\":5338:5355   */\n      add\n        /* \"#utility.yul\":5329:5335   */\n      dup5\n        /* \"#utility.yul\":5287:5356   */\n      tag_61\n      jump\t// in\n    tag_139:\n        /* \"#utility.yul\":5145:5363   */\n      swap3\n      swap2\n      pop\n      pop\n      jump\t// out\n        /* \"#utility.yul\":5369:5878   */\n    tag_26:\n        /* \"#utility.yul\":5438:5444   */\n      0x00\n        /* \"#utility.yul\":5487:5489   */\n      0x20\n        /* \"#utility.yul\":5475:5484   */\n      dup3\n        /* \"#utility.yul\":5466:5473   */\n      dup5\n        /* \"#utility.yul\":5462:5485   */\n      sub\n        /* \"#utility.yul\":5458:5490   */\n      slt\n        /* \"#utility.yul\":5455:5574   */\n      iszero\n      tag_141\n      jumpi\n        /* \"#utility.yul\":5493:5572   */\n      tag_142\n      tag_47\n      jump\t// in\n    tag_142:\n        /* \"#utility.yul\":5455:5574   */\n    tag_141:\n        /* \"#utility.yul\":5641:5642   */\n      0x00\n        /* \"#utility.yul\":5630:5639   */\n      dup3\n        /* \"#utility.yul\":5626:5643   */\n      add\n        /* \"#utility.yul\":5613:5644   */\n      calldataload\n        /* \"#utility.yul\":5671:5689   */\n      0xffffffffffffffff\n        /* \"#utility.yul\":5663:5669   */\n      dup2\n        /* \"#utility.yul\":5660:5690   */\n      gt\n        /* \"#utility.yul\":5657:5774   */\n      iszero\n      tag_143\n      jumpi\n        /* \"#utility.yul\":5693:5772   */\n      tag_144\n      tag_48\n      jump\t// in\n    tag_144:\n        /* \"#utility.yul\":5657:5774   */\n    tag_143:\n        /* \"#utility.yul\":5798:5861   */\n      tag_145\n        /* \"#utility.yul\":5853:5860   */\n      dup5\n        /* \"#utility.yul\":5844:5850   */\n      dup3\n        /* \"#utility.yul\":5833:5842   */\n      dup6\n        /* \"#utility.yul\":5829:5851   */\n      add\n        /* \"#utility.yul\":5798:5861   */\n      tag_57\n      jump\t// in\n    tag_145:\n        /* \"#utility.yul\":5788:5861   */\n      swap2\n      pop\n        /* \"#utility.yul\":5584:5871   */\n      pop\n        /* \"#utility.yul\":5369:5878   */\n      swap3\n      swap2\n      pop\n      pop\n      jump\t// out\n        /* \"#utility.yul\":5884:6064   */\n    tag_62:\n        /* \"#utility.yul\":5932:6009   */\n      0x4e487b7100000000000000000000000000000000000000000000000000000000\n        /* \"#utility.yul\":5929:5930   */\n      0x00\n        /* \"#utility.yul\":5922:6010   */\n      mstore\n        /* \"#utility.yul\":6029:6033   */\n      0x22\n        /* \"#utility.yul\":6026:6027   */\n      0x04\n        /* \"#utility.yul\":6019:6034   */\n      mstore\n        /* \"#utility.yul\":6053:6057   */\n      0x24\n        /* \"#utility.yul\":6050:6051   */\n      0x00\n        /* \"#utility.yul\":6043:6058   */\n      revert\n        /* \"#utility.yul\":6070:6390   */\n    tag_29:\n        /* \"#utility.yul\":6114:6120   */\n      0x00\n        /* \"#utility.yul\":6151:6152   */\n      0x02\n        /* \"#utility.yul\":6145:6149   */\n      dup3\n        /* \"#utility.yul\":6141:6153   */\n      div\n        /* \"#utility.yul\":6131:6153   */\n      swap1\n      pop\n        /* \"#utility.yul\":6198:6199   */\n      0x01\n        /* \"#utility.yul\":6192:6196   */\n      dup3\n        /* \"#utility.yul\":6188:6200   */\n      and\n        /* \"#utility.yul\":6219:6237   */\n      dup1\n        /* \"#utility.yul\":6209:6290   */\n      tag_148\n      jumpi\n        /* \"#utility.yul\":6275:6279   */\n      0x7f\n        /* \"#utility.yul\":6267:6273   */\n      dup3\n        /* \"#utility.yul\":6263:6280   */\n      and\n        /* \"#utility.yul\":6253:6280   */\n      swap2\n      pop\n        /* \"#utility.yul\":6209:6290   */\n    tag_148:\n        /* \"#utility.yul\":6337:6339   */\n      0x20\n        /* \"#utility.yul\":6329:6335   */\n      dup3\n        /* \"#utility.yul\":6326:6340   */\n      lt\n        /* \"#utility.yul\":6306:6324   */\n      dup2\n        /* \"#utility.yul\":6303:6341   */\n      sub\n        /* \"#utility.yul\":6300:6384   */\n      tag_149\n      jumpi\n        /* \"#utility.yul\":6356:6374   */\n      tag_150\n      tag_62\n      jump\t// in\n    tag_150:\n        /* \"#utility.yul\":6300:6384   */\n    tag_149:\n        /* \"#utility.yul\":6121:6390   */\n      pop\n        /* \"#utility.yul\":6070:6390   */\n      swap2\n      swap1\n      pop\n      jump\t// out\n        /* \"#utility.yul\":6396:6537   */\n    tag_63:\n        /* \"#utility.yul\":6445:6449   */\n      0x00\n        /* \"#utility.yul\":6468:6471   */\n      dup2\n        /* \"#utility.yul\":6460:6471   */\n      swap1\n      pop\n        /* \"#utility.yul\":6491:6494   */\n      dup2\n        /* \"#utility.yul\":6488:6489   */\n      0x00\n        /* \"#utility.yul\":6481:6495   */\n      mstore\n        /* \"#utility.yul\":6525:6529   */\n      0x20\n        /* \"#utility.yul\":6522:6523   */\n      0x00\n        /* \"#utility.yul\":6512:6530   */\n      keccak256\n        /* \"#utility.yul\":6504:6530   */\n      swap1\n      pop\n        /* \"#utility.yul\":6396:6537   */\n      swap2\n      swap1\n      pop\n      jump\t// out\n        /* \"#utility.yul\":6543:6636   */\n    tag_64:\n        /* \"#utility.yul\":6580:6586   */\n      0x00\n        /* \"#utility.yul\":6627:6629   */\n      0x20\n        /* \"#utility.yul\":6622:6624   */\n      0x1f\n        /* \"#utility.yul\":6615:6620   */\n      dup4\n        /* \"#utility.yul\":6611:6625   */\n      add\n        /* \"#utility.yul\":6607:6630   */\n      div\n        /* \"#utility.yul\":6597:6630   */\n      swap1\n      pop\n        /* \"#utility.yul\":6543:6636   */\n      swap2\n      swap1\n      pop\n      jump\t// out\n        /* \"#utility.yul\":6642:6749   */\n    tag_65:\n        /* \"#utility.yul\":6686:6694   */\n      0x00\n        /* \"#utility.yul\":6736:6741   */\n      dup3\n        /* \"#utility.yul\":6730:6734   */\n      dup3\n        /* \"#utility.yul\":6726:6742   */\n      shl\n        /* \"#utility.yul\":6705:6742   */\n      swap1\n      pop\n        /* \"#utility.yul\":6642:6749   */\n      swap3\n      swap2\n      pop\n      pop\n      jump\t// out\n        /* \"#utility.yul\":6755:7148   */\n    tag_66:\n        /* \"#utility.yul\":6824:6830   */\n      0x00\n        /* \"#utility.yul\":6874:6875   */\n      0x08\n        /* \"#utility.yul\":6862:6872   */\n      dup4\n        /* \"#utility.yul\":6858:6876   */\n      mul\n        /* \"#utility.yul\":6897:6994   */\n      tag_155\n        /* \"#utility.yul\":6927:6993   */\n      0xffffffffffffffffffffffffffffffffffffffffffffffffffffffffffffffff\n        /* \"#utility.yul\":6916:6925   */\n      dup3\n        /* \"#utility.yul\":6897:6994   */\n      tag_65\n      jump\t// in\n    tag_155:\n        /* \"#utility.yul\":7015:7054   */\n      tag_156\n        /* \"#utility.yul\":7045:7053   */\n      dup7\n        /* \"#utility.yul\":7034:7043   */\n      dup4\n        /* \"#utility.yul\":7015:7054   */\n      tag_65\n      jump\t// in\n    tag_156:\n        /* \"#utility.yul\":7003:7054   */\n      swap6\n      pop\n        /* \"#utility.yul\":7087:7091   */\n      dup1\n        /* \"#utility.yul\":7083:7092   */\n      not\n        /* \"#utility.yul\":7076:7081   */\n      dup5\n        /* \"#utility.yul\":7072:7093   */\n      and\n        /* \"#utility.yul\":7063:7093   */\n      swap4\n      pop\n        /* \"#utility.yul\":7136:7140   */\n      dup1\n        /* \"#utility.yul\":7126:7134   */\n      dup7\n        /* \"#utility.yul\":7122:7141   */\n      and\n        /* \"#utility.yul\":7115:7120   */\n      dup5\n        /* \"#utility.yul\":7112:7142   */\n      or\n        /* \"#utility.yul\":7102:7142   */\n      swap3\n      pop\n        /* \"#utility.yul\":6831:7148   */\n      pop\n      pop\n        /* \"#utility.yul\":6755:7148   */\n      swap4\n      swap3\n      pop\n      pop\n      pop\n      jump\t// out\n        /* \"#utility.yul\":7154:7231   */\n    tag_67:\n        /* \"#utility.yul\":7191:7198   */\n      0x00\n        /* \"#utility.yul\":7220:7225   */\n      dup2\n        /* \"#utility.yul\":7209:7225   */\n      swap1\n      pop\n        /* \"#utility.yul\":7154:7231   */\n      swap2\n      swap1\n      pop\n      jump\t// out\n        /* \"#utility.yul\":7237:7297   */\n    tag_68:\n        /* \"#utility.yul\":7265:7268   */\n      0x00\n        /* \"#utility.yul\":7286:7291   */\n      dup2\n        /* \"#utility.yul\":7279:7291   */\n      swap1\n      pop\n        /* \"#utility.yul\":7237:7297   */\n      swap2\n      swap1\n      pop\n      jump\t// out\n        /* \"#utility.yul\":7303:7445   */\n    tag_69:\n        /* \"#utility.yul\":7353:7362   */\n      0x00\n        /* \"#utility.yul\":7386:7439   */\n      tag_160\n        /* \"#utility.yul\":7404:7438   */\n      tag_161\n        /* \"#utility.yul\":7413:7437   */\n      tag_162\n        /* \"#utility.yul\":7431:7436   */\n      dup5\n        /* \"#utility.yul\":7413:7437   */\n      tag_67\n      jump\t// in\n    tag_162:\n        /* \"#utility.yul\":7404:7438   */\n      tag_68\n      jump\t// in\n    tag_161:\n        /* \"#utility.yul\":7386:7439   */\n      tag_67\n      jump\t// in\n    tag_160:\n        /* \"#utility.yul\":7373:7439   */\n      swap1\n      pop\n        /* \"#utility.yul\":7303:7445   */\n      swap2\n      swap1\n      pop\n      jump\t// out\n        /* \"#utility.yul\":7451:7526   */\n    tag_70:\n        /* \"#utility.yul\":7494:7497   */\n      0x00\n        /* \"#utility.yul\":7515:7520   */\n      dup2\n        /* \"#utility.yul\":7508:7520   */\n      swap1\n      pop\n        /* \"#utility.yul\":7451:7526   */\n      swap2\n      swap1\n      pop\n      jump\t// out\n        /* \"#utility.yul\":7532:7801   */\n    tag_71:\n        /* \"#utility.yul\":7642:7681   */\n      tag_165\n        /* \"#utility.yul\":7673:7680   */\n      dup4\n        /* \"#utility.yul\":7642:7681   */\n      tag_69\n      jump\t// in\n    tag_165:\n        /* \"#utility.yul\":7703:7794   */\n      tag_166\n        /* \"#utility.yul\":7752:7793   */\n      tag_167\n        /* \"#utility.yul\":7776:7792   */\n      dup3\n        /* \"#utility.yul\":7752:7793   */\n      tag_70\n      jump\t// in\n    tag_167:\n        /* \"#utility.yul\":7744:7750   */\n      dup5\n        /* \"#utility.yul\":7737:7741   */\n      dup5\n        /* \"#utility.yul\":7731:7742   */\n      sload\n        /* \"#utility.yul\":7703:7794   */\n      tag_66\n      jump\t// in\n    tag_166:\n        /* \"#utility.yul\":7697:7701   */\n      dup3\n        /* \"#utility.yul\":7690:7795   */\n      sstore\n        /* \"#utility.yul\":7608:7801   */\n      pop\n        /* \"#utility.yul\":7532:7801   */\n      pop\n      pop\n      pop\n      jump\t// out\n        /* \"#utility.yul\":7807:7880   */\n    tag_72:\n        /* \"#utility.yul\":7852:7855   */\n      0x00\n        /* \"#utility.yul\":7807:7880   */\n      swap1\n      jump\t// out\n        /* \"#utility.yul\":7886:8075   */\n    tag_73:\n        /* \"#utility.yul\":7963:7995   */\n      tag_170\n      tag_72\n      jump\t// in\n    tag_170:\n        /* \"#utility.yul\":8004:8069   */\n      tag_171\n        /* \"#utility.yul\":8062:8068   */\n      dup2\n        /* \"#utility.yul\":8054:8060   */\n      dup5\n        /* \"#utility.yul\":8048:8052   */\n      dup5\n        /* \"#utility.yul\":8004:8069   */\n      tag_71\n      jump\t// in\n    tag_171:\n        /* \"#utility.yul\":7939:8075   */\n      pop\n        /* \"#utility.yul\":7886:8075   */\n      pop\n      pop\n      jump\t// out\n        /* \"#utility.yul\":8081:8267   */\n    tag_74:\n        /* \"#utility.yul\":8141:8261   */\n    tag_173:\n        /* \"#utility.yul\":8158:8161   */\n      dup2\n        /* \"#utility.yul\":8151:8156   */\n      dup2\n        /* \"#utility.yul\":8148:8162   */\n      lt\n        /* \"#utility.yul\":8141:8261   */\n      iszero\n      tag_175\n      jumpi\n        /* \"#utility.yul\":8212:8251   */\n      tag_176\n        /* \"#utility.yul\":8249:8250   */\n      0x00\n        /* \"#utility.yul\":8242:8247   */\n      dup3\n        /* \"#utility.yul\":8212:8251   */\n      tag_73\n      jump\t// in\n    tag_176:\n        /* \"#utility.yul\":8185:8186   */\n      0x01\n        /* \"#utility.yul\":8178:8183   */\n      dup2\n        /* \"#utility.yul\":8174:8187   */\n      add\n        /* \"#utility.yul\":8165:8187   */\n      swap1\n      pop\n        /* \"#utility.yul\":8141:8261   */\n      jump(tag_173)\n    tag_175:\n        /* \"#utility.yul\":8081:8267   */\n      pop\n      pop\n      jump\t// out\n        /* \"#utility.yul\":8273:8816   */\n    tag_75:\n        /* \"#utility.yul\":8374:8376   */\n      0x1f\n        /* \"#utility.yul\":8369:8372   */\n      dup3\n        /* \"#utility.yul\":8366:8377   */\n      gt\n        /* \"#utility.yul\":8363:8809   */\n      iszero\n      tag_178\n      jumpi\n        /* \"#utility.yul\":8408:8446   */\n      tag_179\n        /* \"#utility.yul\":8440:8445   */\n      dup2\n        /* \"#utility.yul\":8408:8446   */\n      tag_63\n      jump\t// in\n    tag_179:\n        /* \"#utility.yul\":8492:8521   */\n      tag_180\n        /* \"#utility.yul\":8510:8520   */\n      dup5\n        /* \"#utility.yul\":8492:8521   */\n      tag_64\n      jump\t// in\n    tag_180:\n        /* \"#utility.yul\":8482:8490   */\n      dup2\n        /* \"#utility.yul\":8478:8522   */\n      add\n        /* \"#utility.yul\":8675:8677   */\n      0x20\n        /* \"#utility.yul\":8663:8673   */\n      dup6\n        /* \"#utility.yul\":8660:8678   */\n      lt\n        /* \"#utility.yul\":8657:8706   */\n      iszero\n      tag_181\n      jumpi\n        /* \"#utility.yul\":8696:8704   */\n      dup2\n        /* \"#utility.yul\":8681:8704   */\n      swap1\n      pop\n        /* \"#utility.yul\":8657:8706   */\n    tag_181:\n        /* \"#utility.yul\":8719:8799   */\n      tag_182\n        /* \"#utility.yul\":8775:8797   */\n      tag_183\n        /* \"#utility.yul\":8793:8796   */\n      dup6\n        /* \"#utility.yul\":8775:8797   */\n      tag_64\n      jump\t// in\n    tag_183:\n        /* \"#utility.yul\":8765:8773   */\n      dup4\n        /* \"#utility.yul\":8761:8798   */\n      add\n        /* \"#utility.yul\":8748:8759   */\n      dup3\n        /* \"#utility.yul\":8719:8799   */\n      tag_74\n      jump\t// in\n    tag_182:\n        /* \"#utility.yul\":8378:8809   */\n      pop\n      pop\n        /* \"#utility.yul\":8363:8809   */\n    tag_178:\n        /* \"#utility.yul\":8273:8816   */\n      pop\n      pop\n      pop\n      jump\t// out\n        /* \"#utility.yul\":8822:8939   */\n    tag_76:\n        /* \"#utility.yul\":8876:8884   */\n      0x00\n        /* \"#utility.yul\":8926:8931   */\n      dup3\n        /* \"#utility.yul\":8920:8924   */\n      dup3\n        /* \"#utility.yul\":8916:8932   */\n      shr\n        /* \"#utility.yul\":8895:8932   */\n      swap1\n      pop\n        /* \"#utility.yul\":8822:8939   */\n      swap3\n      swap2\n      pop\n      pop\n      jump\t// out\n        /* \"#utility.yul\":8945:9114   */\n    tag_77:\n        /* \"#utility.yul\":8989:8995   */\n      0x00\n        /* \"#utility.yul\":9022:9073   */\n      tag_186\n        /* \"#utility.yul\":9070:9071   */\n      0x00\n        /* \"#utility.yul\":9066:9072   */\n      not\n        /* \"#utility.yul\":9058:9063   */\n      dup5\n        /* \"#utility.yul\":9055:9056   */\n      0x08\n        /* \"#utility.yul\":9051:9064   */\n      mul\n        /* \"#utility.yul\":9022:9073   */\n      tag_76\n      jump\t// in\n    tag_186:\n        /* \"#utility.yul\":9018:9074   */\n      not\n        /* \"#utility.yul\":9103:9107   */\n      dup1\n        /* \"#utility.yul\":9097:9101   */\n      dup4\n        /* \"#utility.yul\":9093:9108   */\n      and\n        /* \"#utility.yul\":9083:9108   */\n      swap2\n      pop\n        /* \"#utility.yul\":8996:9114   */\n      pop\n        /* \"#utility.yul\":8945:9114   */\n      swap3\n      swap2\n      pop\n      pop\n      jump\t// out\n        /* \"#utility.yul\":9119:9414   */\n    tag_78:\n        /* \"#utility.yul\":9195:9199   */\n      0x00\n        /* \"#utility.yul\":9341:9370   */\n      tag_188\n        /* \"#utility.yul\":9366:9369   */\n      dup4\n        /* \"#utility.yul\":9360:9364   */\n      dup4\n        /* \"#utility.yul\":9341:9370   */\n      tag_77\n      jump\t// in\n    tag_188:\n        /* \"#utility.yul\":9333:9370   */\n      swap2\n      pop\n        /* \"#utility.yul\":9403:9406   */\n      dup3\n        /* \"#utility.yul\":9400:9401   */\n      0x02\n        /* \"#utility.yul\":9396:9407   */\n      mul\n        /* \"#utility.yul\":9390:9394   */\n      dup3\n        /* \"#utility.yul\":9387:9408   */\n      or\n        /* \"#utility.yul\":9379:9408   */\n      swap1\n      pop\n        /* \"#utility.yul\":9119:9414   */\n      swap3\n      swap2\n      pop\n      pop\n      jump\t// out\n        /* \"#utility.yul\":9419:10814   */\n    tag_40:\n        /* \"#utility.yul\":9536:9573   */\n      tag_190\n        /* \"#utility.yul\":9569:9572   */\n      dup3\n        /* \"#utility.yul\":9536:9573   */\n      tag_41\n      jump\t// in\n    tag_190:\n        /* \"#utility.yul\":9638:9656   */\n      0xffffffffffffffff\n        /* \"#utility.yul\":9630:9636   */\n      dup2\n        /* \"#utility.yul\":9627:9657   */\n      gt\n        /* \"#utility.yul\":9624:9680   */\n      iszero\n      tag_191\n      jumpi\n        /* \"#utility.yul\":9660:9678   */\n      tag_192\n      tag_51\n      jump\t// in\n    tag_192:\n        /* \"#utility.yul\":9624:9680   */\n    tag_191:\n        /* \"#utility.yul\":9704:9742   */\n      tag_193\n        /* \"#utility.yul\":9736:9740   */\n      dup3\n        /* \"#utility.yul\":9730:9741   */\n      sload\n        /* \"#utility.yul\":9704:9742   */\n      tag_29\n      jump\t// in\n    tag_193:\n        /* \"#utility.yul\":9789:9856   */\n      tag_194\n        /* \"#utility.yul\":9849:9855   */\n      dup3\n        /* \"#utility.yul\":9841:9847   */\n      dup3\n        /* \"#utility.yul\":9835:9839   */\n      dup6\n        /* \"#utility.yul\":9789:9856   */\n      tag_75\n      jump\t// in\n    tag_194:\n        /* \"#utility.yul\":9883:9884   */\n      0x00\n        /* \"#utility.yul\":9907:9911   */\n      0x20\n        /* \"#utility.yul\":9894:9911   */\n      swap1\n      pop\n        /* \"#utility.yul\":9939:9941   */\n      0x1f\n        /* \"#utility.yul\":9931:9937   */\n      dup4\n        /* \"#utility.yul\":9928:9942   */\n      gt\n        /* \"#utility.yul\":9956:9957   */\n      0x01\n        /* \"#utility.yul\":9951:10569   */\n      dup2\n      eq\n      tag_196\n      jumpi\n        /* \"#utility.yul\":10613:10614   */\n      0x00\n        /* \"#utility.yul\":10630:10636   */\n      dup5\n        /* \"#utility.yul\":10627:10704   */\n      iszero\n      tag_197\n      jumpi\n        /* \"#utility.yul\":10679:10688   */\n      dup3\n        /* \"#utility.yul\":10674:10677   */\n      dup8\n        /* \"#utility.yul\":10670:10689   */\n      add\n        /* \"#utility.yul\":10664:10690   */\n      mload\n        /* \"#utility.yul\":10655:10690   */\n      swap1\n      pop\n        /* \"#utility.yul\":10627:10704   */\n    tag_197:\n        /* \"#utility.yul\":10730:10797   */\n      tag_198\n        /* \"#utility.yul\":10790:10796   */\n      dup6\n        /* \"#utility.yul\":10783:10788   */\n      dup3\n        /* \"#utility.yul\":10730:10797   */\n      tag_78\n      jump\t// in\n    tag_198:\n        /* \"#utility.yul\":10724:10728   */\n      dup7\n        /* \"#utility.yul\":10717:10798   */\n      sstore\n        /* \"#utility.yul\":10586:10808   */\n      pop\n        /* \"#utility.yul\":9921:10808   */\n      jump(tag_195)\n        /* \"#utility.yul\":9951:10569   */\n    tag_196:\n        /* \"#utility.yul\":10003:10007   */\n      0x1f\n        /* \"#utility.yul\":9999:10008   */\n      not\n        /* \"#utility.yul\":9991:9997   */\n      dup5\n        /* \"#utility.yul\":9987:10009   */\n      and\n        /* \"#utility.yul\":10037:10074   */\n      tag_199\n        /* \"#utility.yul\":10069:10073   */\n      dup7\n        /* \"#utility.yul\":10037:10074   */\n      tag_63\n      jump\t// in\n    tag_199:\n        /* \"#utility.yul\":10096:10097   */\n      0x00\n        /* \"#utility.yul\":10110:10318   */\n    tag_200:\n        /* \"#utility.yul\":10124:10131   */\n      dup3\n        /* \"#utility.yul\":10121:10122   */\n      dup2\n        /* \"#utility.yul\":10118:10132   */\n      lt\n        /* \"#utility.yul\":10110:10318   */\n      iszero\n      tag_202\n      jumpi\n        /* \"#utility.yul\":10203:10212   */\n      dup5\n        /* \"#utility.yul\":10198:10201   */\n      dup10\n        /* \"#utility.yul\":10194:10213   */\n      add\n        /* \"#utility.yul\":10188:10214   */\n      mload\n        /* \"#utility.yul\":10180:10186   */\n      dup3\n        /* \"#utility.yul\":10173:10215   */\n      sstore\n        /* \"#utility.yul\":10254:10255   */\n      0x01\n        /* \"#utility.yul\":10246:10252   */\n      dup3\n        /* \"#utility.yul\":10242:10256   */\n      add\n        /* \"#utility.yul\":10232:10256   */\n      swap2\n      pop\n        /* \"#utility.yul\":10301:10303   */\n      0x20\n        /* \"#utility.yul\":10290:10299   */\n      dup6\n        /* \"#utility.yul\":10286:10304   */\n      add\n        /* \"#utility.yul\":10273:10304   */\n      swap5\n      pop\n        /* \"#utility.yul\":10147:10151   */\n      0x20\n        /* \"#utility.yul\":10144:10145   */\n      dup2\n        /* \"#utility.yul\":10140:10152   */\n      add\n        /* \"#utility.yul\":10135:10152   */\n      swap1\n      pop\n        /* \"#utility.yul\":10110:10318   */\n      jump(tag_200)\n    tag_202:\n        /* \"#utility.yul\":10346:10352   */\n      dup7\n        /* \"#utility.yul\":10337:10344   */\n      dup4\n        /* \"#utility.yul\":10334:10353   */\n      lt\n        /* \"#utility.yul\":10331:10510   */\n      iszero\n      tag_203\n      jumpi\n        /* \"#utility.yul\":10404:10413   */\n      dup5\n        /* \"#utility.yul\":10399:10402   */\n      dup10\n        /* \"#utility.yul\":10395:10414   */\n      add\n        /* \"#utility.yul\":10389:10415   */\n      mload\n        /* \"#utility.yul\":10447:10495   */\n      tag_204\n        /* \"#utility.yul\":10489:10493   */\n      0x1f\n        /* \"#utility.yul\":10481:10487   */\n      dup10\n        /* \"#utility.yul\":10477:10494   */\n      and\n        /* \"#utility.yul\":10466:10475   */\n      dup3\n        /* \"#utility.yul\":10447:10495   */\n      tag_77\n      jump\t// in\n    tag_204:\n        /* \"#utility.yul\":10439:10445   */\n      dup4\n        /* \"#utility.yul\":10432:10496   */\n      sstore\n        /* \"#utility.yul\":10354:10510   */\n      pop\n        /* \"#utility.yul\":10331:10510   */\n    tag_203:\n        /* \"#utility.yul\":10556:10557   */\n      0x01\n        /* \"#utility.yul\":10552:10553   */\n      0x02\n        /* \"#utility.yul\":10544:10550   */\n      dup9\n        /* \"#utility.yul\":10540:10554   */\n      mul\n        /* \"#utility.yul\":10536:10558   */\n      add\n        /* \"#utility.yul\":10530:10534   */\n      dup9\n        /* \"#utility.yul\":10523:10559   */\n      sstore\n        /* \"#utility.yul\":9958:10569   */\n      pop\n      pop\n      pop\n        /* \"#utility.yul\":9921:10808   */\n    tag_195:\n      pop\n        /* \"#utility.yul\":9511:10814   */\n      pop\n      pop\n      pop\n        /* \"#utility.yul\":9419:10814   */\n      pop\n      pop\n      jump\t// out\n\n    auxdata: 0xa2646970667358221220086eb48c7c45995c7e91a0f763e40c1940ef9a54a92c5374ff6a349e9719be7064736f6c634300081a0033\n}\n",
				"bytecode": {
					"linkReferences": {},
					"object": "6080604052348015600e575f80fd5b506107a88061001c5f395ff3fe608060405234801561000f575f80fd5b5060043610610055575f3560e01c806306fdde03146100595780631584653a146100775780632f42b8ec146100935780634e70b1dc146100af5780635353a2d8146100cd575b5f80fd5b6100616100e9565b60405161006e919061021c565b60405180910390f35b610091600480360381019061008c91906103ac565b610175565b005b6100ad60048036038101906100a89190610406565b61018b565b005b6100b7610194565b6040516100c49190610440565b60405180910390f35b6100e760048036038101906100e29190610459565b610199565b005b600180546100f6906104cd565b80601f0160208091040260200160405190810160405280929190818152602001828054610122906104cd565b801561016d5780601f106101445761010080835404028352916020019161016d565b820191905f5260205f20905b81548152906001019060200180831161015057829003601f168201915b505050505081565b61017e82610199565b6101878161018b565b5050565b805f8190555050565b5f5481565b80600190816101a891906106a3565b5050565b5f81519050919050565b5f82825260208201905092915050565b8281835e5f83830152505050565b5f601f19601f8301169050919050565b5f6101ee826101ac565b6101f881856101b6565b93506102088185602086016101c6565b610211816101d4565b840191505092915050565b5f6020820190508181035f83015261023481846101e4565b905092915050565b5f604051905090565b5f80fd5b5f80fd5b5f80fd5b5f80fd5b7f4e487b71000000000000000000000000000000000000000000000000000000005f52604160045260245ffd5b61028b826101d4565b810181811067ffffffffffffffff821117156102aa576102a9610255565b5b80604052505050565b5f6102bc61023c565b90506102c88282610282565b919050565b5f67ffffffffffffffff8211156102e7576102e6610255565b5b6102f0826101d4565b9050602081019050919050565b828183375f83830152505050565b5f61031d610318846102cd565b6102b3565b90508281526020810184848401111561033957610338610251565b5b6103448482856102fd565b509392505050565b5f82601f8301126103605761035f61024d565b5b813561037084826020860161030b565b91505092915050565b5f819050919050565b61038b81610379565b8114610395575f80fd5b50565b5f813590506103a681610382565b92915050565b5f80604083850312156103c2576103c1610245565b5b5f83013567ffffffffffffffff8111156103df576103de610249565b5b6103eb8582860161034c565b92505060206103fc85828601610398565b9150509250929050565b5f6020828403121561041b5761041a610245565b5b5f61042884828501610398565b91505092915050565b61043a81610379565b82525050565b5f6020820190506104535f830184610431565b92915050565b5f6020828403121561046e5761046d610245565b5b5f82013567ffffffffffffffff81111561048b5761048a610249565b5b6104978482850161034c565b91505092915050565b7f4e487b71000000000000000000000000000000000000000000000000000000005f52602260045260245ffd5b5f60028204905060018216806104e457607f821691505b6020821081036104f7576104f66104a0565b5b50919050565b5f819050815f5260205f209050919050565b5f6020601f8301049050919050565b5f82821b905092915050565b5f600883026105597fffffffffffffffffffffffffffffffffffffffffffffffffffffffffffffffff8261051e565b610563868361051e565b95508019841693508086168417925050509392505050565b5f819050919050565b5f819050919050565b5f6105a76105a261059d8461057b565b610584565b61057b565b9050919050565b5f819050919050565b6105c08361058d565b6105d46105cc826105ae565b84845461052a565b825550505050565b5f90565b6105e86105dc565b6105f38184846105b7565b505050565b5b818110156106165761060b5f826105e0565b6001810190506105f9565b5050565b601f82111561065b5761062c816104fd565b6106358461050f565b81016020851015610644578190505b6106586106508561050f565b8301826105f8565b50505b505050565b5f82821c905092915050565b5f61067b5f1984600802610660565b1980831691505092915050565b5f610693838361066c565b9150826002028217905092915050565b6106ac826101ac565b67ffffffffffffffff8111156106c5576106c4610255565b5b6106cf82546104cd565b6106da82828561061a565b5f60209050601f83116001811461070b575f84156106f9578287015190505b6107038582610688565b86555061076a565b601f198416610719866104fd565b5f5b828110156107405784890151825560018201915060208501945060208101905061071b565b8683101561075d5784890151610759601f89168261066c565b8355505b6001600288020188555050505b50505050505056fea2646970667358221220086eb48c7c45995c7e91a0f763e40c1940ef9a54a92c5374ff6a349e9719be7064736f6c634300081a0033",
					"opcodes": "PUSH1 0x80 PUSH1 0x40 MSTORE CALLVALUE DUP1 ISZERO PUSH1 0xE JUMPI PUSH0 DUP1 REVERT JUMPDEST POP PUSH2 0x7A8 DUP1 PUSH2 0x1C PUSH0 CODECOPY PUSH0 RETURN INVALID PUSH1 0x80 PUSH1 0x40 MSTORE CALLVALUE DUP1 ISZERO PUSH2 0xF JUMPI PUSH0 DUP1 REVERT JUMPDEST POP PUSH1 0x4 CALLDATASIZE LT PUSH2 0x55 JUMPI PUSH0 CALLDATALOAD PUSH1 0xE0 SHR DUP1 PUSH4 0x6FDDE03 EQ PUSH2 0x59 JUMPI DUP1 PUSH4 0x1584653A EQ PUSH2 0x77 JUMPI DUP1 PUSH4 0x2F42B8EC EQ PUSH2 0x93 JUMPI DUP1 PUSH4 0x4E70B1DC EQ PUSH2 0xAF JUMPI DUP1 PUSH4 0x5353A2D8 EQ PUSH2 0xCD JUMPI JUMPDEST PUSH0 DUP1 REVERT JUMPDEST PUSH2 0x61 PUSH2 0xE9 JUMP JUMPDEST PUSH1 0x40 MLOAD PUSH2 0x6E SWAP2 SWAP1 PUSH2 0x21C JUMP JUMPDEST PUSH1 0x40 MLOAD DUP1 SWAP2 SUB SWAP1 RETURN JUMPDEST PUSH2 0x91 PUSH1 0x4 DUP1 CALLDATASIZE SUB DUP2 ADD SWAP1 PUSH2 0x8C SWAP2 SWAP1 PUSH2 0x3AC JUMP JUMPDEST PUSH2 0x175 JUMP JUMPDEST STOP JUMPDEST PUSH2 0xAD PUSH1 0x4 DUP1 CALLDATASIZE SUB DUP2 ADD SWAP1 PUSH2 0xA8 SWAP2 SWAP1 PUSH2 0x406 JUMP JUMPDEST PUSH2 0x18B JUMP JUMPDEST STOP JUMPDEST PUSH2 0xB7 PUSH2 0x194 JUMP JUMPDEST PUSH1 0x40 MLOAD PUSH2 0xC4 SWAP2 SWAP1 PUSH2 0x440 JUMP JUMPDEST PUSH1 0x40 MLOAD DUP1 SWAP2 SUB SWAP1 RETURN JUMPDEST PUSH2 0xE7 PUSH1 0x4 DUP1 CALLDATASIZE SUB DUP2 ADD SWAP1 PUSH2 0xE2 SWAP2 SWAP1 PUSH2 0x459 JUMP JUMPDEST PUSH2 0x199 JUMP JUMPDEST STOP JUMPDEST PUSH1 0x1 DUP1 SLOAD PUSH2 0xF6 SWAP1 PUSH2 0x4CD JUMP JUMPDEST DUP1 PUSH1 0x1F ADD PUSH1 0x20 DUP1 SWAP2 DIV MUL PUSH1 0x20 ADD PUSH1 0x40 MLOAD SWAP1 DUP2 ADD PUSH1 0x40 MSTORE DUP1 SWAP3 SWAP2 SWAP1 DUP2 DUP2 MSTORE PUSH1 0x20 ADD DUP3 DUP1 SLOAD PUSH2 0x122 SWAP1 PUSH2 0x4CD JUMP JUMPDEST DUP1 ISZERO PUSH2 0x16D JUMPI DUP1 PUSH1 0x1F LT PUSH2 0x144 JUMPI PUSH2 0x100 DUP1 DUP4 SLOAD DIV MUL DUP4 MSTORE SWAP2 PUSH1 0x20 ADD SWAP2 PUSH2 0x16D JUMP JUMPDEST DUP3 ADD SWAP2 SWAP1 PUSH0 MSTORE PUSH1 0x20 PUSH0 KECCAK256 SWAP1 JUMPDEST DUP2 SLOAD DUP2 MSTORE SWAP1 PUSH1 0x1 ADD SWAP1 PUSH1 0x20 ADD DUP1 DUP4 GT PUSH2 0x150 JUMPI DUP3 SWAP1 SUB PUSH1 0x1F AND DUP3 ADD SWAP2 JUMPDEST POP POP POP POP POP DUP2 JUMP JUMPDEST PUSH2 0x17E DUP3 PUSH2 0x199 JUMP JUMPDEST PUSH2 0x187 DUP2 PUSH2 0x18B JUMP JUMPDEST POP POP JUMP JUMPDEST DUP1 PUSH0 DUP2 SWAP1 SSTORE POP POP JUMP JUMPDEST PUSH0 SLOAD DUP2 JUMP JUMPDEST DUP1 PUSH1 0x1 SWAP1 DUP2 PUSH2 0x1A8 SWAP2 SWAP1 PUSH2 0x6A3 JUMP JUMPDEST POP POP JUMP JUMPDEST PUSH0 DUP2 MLOAD SWAP1 POP SWAP2 SWAP1 POP JUMP JUMPDEST PUSH0 DUP3 DUP3 MSTORE PUSH1 0x20 DUP3 ADD SWAP1 POP SWAP3 SWAP2 POP POP JUMP JUMPDEST DUP3 DUP2 DUP4 MCOPY PUSH0 DUP4 DUP4 ADD MSTORE POP POP POP JUMP JUMPDEST PUSH0 PUSH1 0x1F NOT PUSH1 0x1F DUP4 ADD AND SWAP1 POP SWAP2 SWAP1 POP JUMP JUMPDEST PUSH0 PUSH2 0x1EE DUP3 PUSH2 0x1AC JUMP JUMPDEST PUSH2 0x1F8 DUP2 DUP6 PUSH2 0x1B6 JUMP JUMPDEST SWAP4 POP PUSH2 0x208 DUP2 DUP6 PUSH1 0x20 DUP7 ADD PUSH2 0x1C6 JUMP JUMPDEST PUSH2 0x211 DUP2 PUSH2 0x1D4 JUMP JUMPDEST DUP5 ADD SWAP2 POP POP SWAP3 SWAP2 POP POP JUMP JUMPDEST PUSH0 PUSH1 0x20 DUP3 ADD SWAP1 POP DUP2 DUP2 SUB PUSH0 DUP4 ADD MSTORE PUSH2 0x234 DUP2 DUP5 PUSH2 0x1E4 JUMP JUMPDEST SWAP1 POP SWAP3 SWAP2 POP POP JUMP JUMPDEST PUSH0 PUSH1 0x40 MLOAD SWAP1 POP SWAP1 JUMP JUMPDEST PUSH0 DUP1 REVERT JUMPDEST PUSH0 DUP1 REVERT JUMPDEST PUSH0 DUP1 REVERT JUMPDEST PUSH0 DUP1 REVERT JUMPDEST PUSH32 0x4E487B7100000000000000000000000000000000000000000000000000000000 PUSH0 MSTORE PUSH1 0x41 PUSH1 0x4 MSTORE PUSH1 0x24 PUSH0 REVERT JUMPDEST PUSH2 0x28B DUP3 PUSH2 0x1D4 JUMP JUMPDEST DUP2 ADD DUP2 DUP2 LT PUSH8 0xFFFFFFFFFFFFFFFF DUP3 GT OR ISZERO PUSH2 0x2AA JUMPI PUSH2 0x2A9 PUSH2 0x255 JUMP JUMPDEST JUMPDEST DUP1 PUSH1 0x40 MSTORE POP POP POP JUMP JUMPDEST PUSH0 PUSH2 0x2BC PUSH2 0x23C JUMP JUMPDEST SWAP1 POP PUSH2 0x2C8 DUP3 DUP3 PUSH2 0x282 JUMP JUMPDEST SWAP2 SWAP1 POP JUMP JUMPDEST PUSH0 PUSH8 0xFFFFFFFFFFFFFFFF DUP3 GT ISZERO PUSH2 0x2E7 JUMPI PUSH2 0x2E6 PUSH2 0x255 JUMP JUMPDEST JUMPDEST PUSH2 0x2F0 DUP3 PUSH2 0x1D4 JUMP JUMPDEST SWAP1 POP PUSH1 0x20 DUP2 ADD SWAP1 POP SWAP2 SWAP1 POP JUMP JUMPDEST DUP3 DUP2 DUP4 CALLDATACOPY PUSH0 DUP4 DUP4 ADD MSTORE POP POP POP JUMP JUMPDEST PUSH0 PUSH2 0x31D PUSH2 0x318 DUP5 PUSH2 0x2CD JUMP JUMPDEST PUSH2 0x2B3 JUMP JUMPDEST SWAP1 POP DUP3 DUP2 MSTORE PUSH1 0x20 DUP2 ADD DUP5 DUP5 DUP5 ADD GT ISZERO PUSH2 0x339 JUMPI PUSH2 0x338 PUSH2 0x251 JUMP JUMPDEST JUMPDEST PUSH2 0x344 DUP5 DUP3 DUP6 PUSH2 0x2FD JUMP JUMPDEST POP SWAP4 SWAP3 POP POP POP JUMP JUMPDEST PUSH0 DUP3 PUSH1 0x1F DUP4 ADD SLT PUSH2 0x360 JUMPI PUSH2 0x35F PUSH2 0x24D JUMP JUMPDEST JUMPDEST DUP2 CALLDATALOAD PUSH2 0x370 DUP5 DUP3 PUSH1 0x20 DUP7 ADD PUSH2 0x30B JUMP JUMPDEST SWAP2 POP POP SWAP3 SWAP2 POP POP JUMP JUMPDEST PUSH0 DUP2 SWAP1 POP SWAP2 SWAP1 POP JUMP JUMPDEST PUSH2 0x38B DUP2 PUSH2 0x379 JUMP JUMPDEST DUP2 EQ PUSH2 0x395 JUMPI PUSH0 DUP1 REVERT JUMPDEST POP JUMP JUMPDEST PUSH0 DUP2 CALLDATALOAD SWAP1 POP PUSH2 0x3A6 DUP2 PUSH2 0x382 JUMP JUMPDEST SWAP3 SWAP2 POP POP JUMP JUMPDEST PUSH0 DUP1 PUSH1 0x40 DUP4 DUP6 SUB SLT ISZERO PUSH2 0x3C2 JUMPI PUSH2 0x3C1 PUSH2 0x245 JUMP JUMPDEST JUMPDEST PUSH0 DUP4 ADD CALLDATALOAD PUSH8 0xFFFFFFFFFFFFFFFF DUP2 GT ISZERO PUSH2 0x3DF JUMPI PUSH2 0x3DE PUSH2 0x249 JUMP JUMPDEST JUMPDEST PUSH2 0x3EB DUP6 DUP3 DUP7 ADD PUSH2 0x34C JUMP JUMPDEST SWAP3 POP POP PUSH1 0x20 PUSH2 0x3FC DUP6 DUP3 DUP7 ADD PUSH2 0x398 JUMP JUMPDEST SWAP2 POP POP SWAP3 POP SWAP3 SWAP1 POP JUMP JUMPDEST PUSH0 PUSH1 0x20 DUP3 DUP5 SUB SLT ISZERO PUSH2 0x41B JUMPI PUSH2 0x41A PUSH2 0x245 JUMP JUMPDEST JUMPDEST PUSH0 PUSH2 0x428 DUP5 DUP3 DUP6 ADD PUSH2 0x398 JUMP JUMPDEST SWAP2 POP POP SWAP3 SWAP2 POP POP JUMP JUMPDEST PUSH2 0x43A DUP2 PUSH2 0x379 JUMP JUMPDEST DUP3 MSTORE POP POP JUMP JUMPDEST PUSH0 PUSH1 0x20 DUP3 ADD SWAP1 POP PUSH2 0x453 PUSH0 DUP4 ADD DUP5 PUSH2 0x431 JUMP JUMPDEST SWAP3 SWAP2 POP POP JUMP JUMPDEST PUSH0 PUSH1 0x20 DUP3 DUP5 SUB SLT ISZERO PUSH2 0x46E JUMPI PUSH2 0x46D PUSH2 0x245 JUMP JUMPDEST JUMPDEST PUSH0 DUP3 ADD CALLDATALOAD PUSH8 0xFFFFFFFFFFFFFFFF DUP2 GT ISZERO PUSH2 0x48B JUMPI PUSH2 0x48A PUSH2 0x249 JUMP JUMPDEST JUMPDEST PUSH2 0x497 DUP5 DUP3 DUP6 ADD PUSH2 0x34C JUMP JUMPDEST SWAP2 POP POP SWAP3 SWAP2 POP POP JUMP JUMPDEST PUSH32 0x4E487B7100000000000000000000000000000000000000000000000000000000 PUSH0 MSTORE PUSH1 0x22 PUSH1 0x4 MSTORE PUSH1 0x24 PUSH0 REVERT JUMPDEST PUSH0 PUSH1 0x2 DUP3 DIV SWAP1 POP PUSH1 0x1 DUP3 AND DUP1 PUSH2 0x4E4 JUMPI PUSH1 0x7F DUP3 AND SWAP2 POP JUMPDEST PUSH1 0x20 DUP3 LT DUP2 SUB PUSH2 0x4F7 JUMPI PUSH2 0x4F6 PUSH2 0x4A0 JUMP JUMPDEST JUMPDEST POP SWAP2 SWAP1 POP JUMP JUMPDEST PUSH0 DUP2 SWAP1 POP DUP2 PUSH0 MSTORE PUSH1 0x20 PUSH0 KECCAK256 SWAP1 POP SWAP2 SWAP1 POP JUMP JUMPDEST PUSH0 PUSH1 0x20 PUSH1 0x1F DUP4 ADD DIV SWAP1 POP SWAP2 SWAP1 POP JUMP JUMPDEST PUSH0 DUP3 DUP3 SHL SWAP1 POP SWAP3 SWAP2 POP POP JUMP JUMPDEST PUSH0 PUSH1 0x8 DUP4 MUL PUSH2 0x559 PUSH32 0xFFFFFFFFFFFFFFFFFFFFFFFFFFFFFFFFFFFFFFFFFFFFFFFFFFFFFFFFFFFFFFFF DUP3 PUSH2 0x51E JUMP JUMPDEST PUSH2 0x563 DUP7 DUP4 PUSH2 0x51E JUMP JUMPDEST SWAP6 POP DUP1 NOT DUP5 AND SWAP4 POP DUP1 DUP7 AND DUP5 OR SWAP3 POP POP POP SWAP4 SWAP3 POP POP POP JUMP JUMPDEST PUSH0 DUP2 SWAP1 POP SWAP2 SWAP1 POP JUMP JUMPDEST PUSH0 DUP2 SWAP1 POP SWAP2 SWAP1 POP JUMP JUMPDEST PUSH0 PUSH2 0x5A7 PUSH2 0x5A2 PUSH2 0x59D DUP5 PUSH2 0x57B JUMP JUMPDEST PUSH2 0x584 JUMP JUMPDEST PUSH2 0x57B JUMP JUMPDEST SWAP1 POP SWAP2 SWAP1 POP JUMP JUMPDEST PUSH0 DUP2 SWAP1 POP SWAP2 SWAP1 POP JUMP JUMPDEST PUSH2 0x5C0 DUP4 PUSH2 0x58D JUMP JUMPDEST PUSH2 0x5D4 PUSH2 0x5CC DUP3 PUSH2 0x5AE JUMP JUMPDEST DUP5 DUP5 SLOAD PUSH2 0x52A JUMP JUMPDEST DUP3 SSTORE POP POP POP POP JUMP JUMPDEST PUSH0 SWAP1 JUMP JUMPDEST PUSH2 0x5E8 PUSH2 0x5DC JUMP JUMPDEST PUSH2 0x5F3 DUP2 DUP5 DUP5 PUSH2 0x5B7 JUMP JUMPDEST POP POP POP JUMP JUMPDEST JUMPDEST DUP2 DUP2 LT ISZERO PUSH2 0x616 JUMPI PUSH2 0x60B PUSH0 DUP3 PUSH2 0x5E0 JUMP JUMPDEST PUSH1 0x1 DUP2 ADD SWAP1 POP PUSH2 0x5F9 JUMP JUMPDEST POP POP JUMP JUMPDEST PUSH1 0x1F DUP3 GT ISZERO PUSH2 0x65B JUMPI PUSH2 0x62C DUP2 PUSH2 0x4FD JUMP JUMPDEST PUSH2 0x635 DUP5 PUSH2 0x50F JUMP JUMPDEST DUP2 ADD PUSH1 0x20 DUP6 LT ISZERO PUSH2 0x644 JUMPI DUP2 SWAP1 POP JUMPDEST PUSH2 0x658 PUSH2 0x650 DUP6 PUSH2 0x50F JUMP JUMPDEST DUP4 ADD DUP3 PUSH2 0x5F8 JUMP JUMPDEST POP POP JUMPDEST POP POP POP JUMP JUMPDEST PUSH0 DUP3 DUP3 SHR SWAP1 POP SWAP3 SWAP2 POP POP JUMP JUMPDEST PUSH0 PUSH2 0x67B PUSH0 NOT DUP5 PUSH1 0x8 MUL PUSH2 0x660 JUMP JUMPDEST NOT DUP1 DUP4 AND SWAP2 POP POP SWAP3 SWAP2 POP POP JUMP JUMPDEST PUSH0 PUSH2 0x693 DUP4 DUP4 PUSH2 0x66C JUMP JUMPDEST SWAP2 POP DUP3 PUSH1 0x2 MUL DUP3 OR SWAP1 POP SWAP3 SWAP2 POP POP JUMP JUMPDEST PUSH2 0x6AC DUP3 PUSH2 0x1AC JUMP JUMPDEST PUSH8 0xFFFFFFFFFFFFFFFF DUP2 GT ISZERO PUSH2 0x6C5 JUMPI PUSH2 0x6C4 PUSH2 0x255 JUMP JUMPDEST JUMPDEST PUSH2 0x6CF DUP3 SLOAD PUSH2 0x4CD JUMP JUMPDEST PUSH2 0x6DA DUP3 DUP3 DUP6 PUSH2 0x61A JUMP JUMPDEST PUSH0 PUSH1 0x20 SWAP1 POP PUSH1 0x1F DUP4 GT PUSH1 0x1 DUP2 EQ PUSH2 0x70B JUMPI PUSH0 DUP5 ISZERO PUSH2 0x6F9 JUMPI DUP3 DUP8 ADD MLOAD SWAP1 POP JUMPDEST PUSH2 0x703 DUP6 DUP3 PUSH2 0x688 JUMP JUMPDEST DUP7 SSTORE POP PUSH2 0x76A JUMP JUMPDEST PUSH1 0x1F NOT DUP5 AND PUSH2 0x719 DUP7 PUSH2 0x4FD JUMP JUMPDEST PUSH0 JUMPDEST DUP3 DUP2 LT ISZERO PUSH2 0x740 JUMPI DUP5 DUP10 ADD MLOAD DUP3 SSTORE PUSH1 0x1 DUP3 ADD SWAP2 POP PUSH1 0x20 DUP6 ADD SWAP5 POP PUSH1 0x20 DUP2 ADD SWAP1 POP PUSH2 0x71B JUMP JUMPDEST DUP7 DUP4 LT ISZERO PUSH2 0x75D JUMPI DUP5 DUP10 ADD MLOAD PUSH2 0x759 PUSH1 0x1F DUP10 AND DUP3 PUSH2 0x66C JUMP JUMPDEST DUP4 SSTORE POP JUMPDEST PUSH1 0x1 PUSH1 0x2 DUP9 MUL ADD DUP9 SSTORE POP POP POP JUMPDEST POP POP POP POP POP POP JUMP INVALID LOG2 PUSH5 0x6970667358 0x22 SLT KECCAK256 ADDMOD PUSH15 0xB48C7C45995C7E91A0F763E40C1940 0xEF SWAP11 SLOAD 0xA9 0x2C MSTORE8 PUSH21 0xFF6A349E9719BE7064736F6C634300081A00330000 "
				},
				"gasEstimates": {
					"creation": {
						"codeDepositCost": "392000",
						"executionCost": "428",
						"totalCost": "392428"
					},
					"external": {
						"changeName(string)": "infinite",
						"changeNameAndNum(string,int256)": "infinite",
						"changeNum(int256)": "22536",
						"name()": "infinite",
						"num()": "2468"
					}
				},
				"methodIdentifiers": {
					"changeName(string)": "5353a2d8",
					"changeNameAndNum(string,int256)": "1584653a",
					"changeNum(int256)": "2f42b8ec",
					"name()": "06fdde03",
					"num()": "4e70b1dc"
				}
			},
			"storageLayout": {
				"storage": [
					{
						"astId": 37,
						"contract": "Child.sol:Child",
						"label": "num",
						"offset": 0,
						"slot": "0",
						"type": "t_int256"
					},
					{
						"astId": 6,
						"contract": "Child.sol:Child",
						"label": "name",
						"offset": 0,
						"slot": "1",
						"type": "t_string_storage"
					}
				],
				"types": {
					"t_int256": {
						"encoding": "inplace",
						"label": "int256",
						"numberOfBytes": "32"
					},
					"t_string_storage": {
						"encoding": "bytes",
						"label": "string",
						"numberOfBytes": "32"
					}
				}
			},
			"userdoc": {
				"kind": "user",
				"methods": {},
				"version": 1
			}
		}
	}
}