{
	"msgValue.sol": {
		"msgValueExample": {
			"abi": [
				{
					"inputs": [],
					"name": "payForReturn",
					"outputs": [
						{
							"internalType": "uint256",
							"name": "",
							"type": "uint256"
						}
					],
					"stateMutability": "payable",
					"type": "function"
				},
				{
					"inputs": [],
					"name": "requirePaymentForNum",
					"outputs": [],
					"stateMutability": "payable",
					"type": "function"
				}
			],
			"devdoc": {
				"kind": "dev",
				"methods": {},
				"version": 1
			},
			"evm": {
				"assembly": "    /* \"msgValue.sol\":58:342  contract msgValueExample {... */\n  mstore(0x40, 0x80)\n  callvalue\n  dup1\n  iszero\n  tag_1\n  jumpi\n  0x00\n  dup1\n  revert\ntag_1:\n  pop\n  dataSize(sub_0)\n  dup1\n  dataOffset(sub_0)\n  0x00\n  codecopy\n  0x00\n  return\nstop\n\nsub_0: assembly {\n        /* \"msgValue.sol\":58:342  contract msgValueExample {... */\n      mstore(0x40, 0x80)\n      jumpi(tag_1, lt(calldatasize, 0x04))\n      shr(0xe0, calldataload(0x00))\n      dup1\n      0x1339ff7a\n      eq\n      tag_2\n      jumpi\n      dup1\n      0x16a2b472\n      eq\n      tag_3\n      jumpi\n    tag_1:\n      0x00\n      dup1\n      revert\n        /* \"msgValue.sol\":112:203  function payForReturn() payable public returns(uint256) {... */\n    tag_2:\n      tag_4\n      tag_5\n      jump\t// in\n    tag_4:\n      mload(0x40)\n      tag_6\n      swap2\n      swap1\n      tag_7\n      jump\t// in\n    tag_6:\n      mload(0x40)\n      dup1\n      swap2\n      sub\n      swap1\n      return\n        /* \"msgValue.sol\":211:339  function requirePaymentForNum() payable public {... */\n    tag_3:\n      tag_8\n      tag_9\n      jump\t// in\n    tag_8:\n      stop\n        /* \"msgValue.sol\":112:203  function payForReturn() payable public returns(uint256) {... */\n    tag_5:\n        /* \"msgValue.sol\":159:166  uint256 */\n      0x00\n        /* \"msgValue.sol\":186:195  msg.value */\n      callvalue\n        /* \"msgValue.sol\":179:195  return msg.value */\n      swap1\n      pop\n        /* \"msgValue.sol\":112:203  function payForReturn() payable public returns(uint256) {... */\n      swap1\n      jump\t// out\n        /* \"msgValue.sol\":211:339  function requirePaymentForNum() payable public {... */\n    tag_9:\n        /* \"msgValue.sol\":286:287  1 */\n      0x01\n        /* \"msgValue.sol\":279:282  num */\n      0x00\n      dup1\n        /* \"msgValue.sol\":279:287  num += 1 */\n      dup3\n      dup3\n      sload\n      tag_12\n      swap2\n      swap1\n      tag_13\n      jump\t// in\n    tag_12:\n      swap3\n      pop\n      pop\n      dup2\n      swap1\n      sstore\n      pop\n        /* \"msgValue.sol\":319:320  5 */\n      0x05\n        /* \"msgValue.sol\":306:315  msg.value */\n      callvalue\n        /* \"msgValue.sol\":306:320  msg.value == 5 */\n      eq\n        /* \"msgValue.sol\":298:321  require(msg.value == 5) */\n      tag_14\n      jumpi\n      0x00\n      dup1\n      revert\n    tag_14:\n        /* \"msgValue.sol\":211:339  function requirePaymentForNum() payable public {... */\n      jump\t// out\n        /* \"#utility.yul\":7:84   */\n    tag_15:\n        /* \"#utility.yul\":44:51   */\n      0x00\n        /* \"#utility.yul\":73:78   */\n      dup2\n        /* \"#utility.yul\":62:78   */\n      swap1\n      pop\n        /* \"#utility.yul\":7:84   */\n      swap2\n      swap1\n      pop\n      jump\t// out\n        /* \"#utility.yul\":90:208   */\n    tag_16:\n        /* \"#utility.yul\":177:201   */\n      tag_22\n        /* \"#utility.yul\":195:200   */\n      dup2\n        /* \"#utility.yul\":177:201   */\n      tag_15\n      jump\t// in\n    tag_22:\n        /* \"#utility.yul\":172:175   */\n      dup3\n        /* \"#utility.yul\":165:202   */\n      mstore\n        /* \"#utility.yul\":90:208   */\n      pop\n      pop\n      jump\t// out\n        /* \"#utility.yul\":214:436   */\n    tag_7:\n        /* \"#utility.yul\":307:311   */\n      0x00\n        /* \"#utility.yul\":345:347   */\n      0x20\n        /* \"#utility.yul\":334:343   */\n      dup3\n        /* \"#utility.yul\":330:348   */\n      add\n        /* \"#utility.yul\":322:348   */\n      swap1\n      pop\n        /* \"#utility.yul\":358:429   */\n      tag_24\n        /* \"#utility.yul\":426:427   */\n      0x00\n        /* \"#utility.yul\":415:424   */\n      dup4\n        /* \"#utility.yul\":411:428   */\n      add\n        /* \"#utility.yul\":402:408   */\n      dup5\n        /* \"#utility.yul\":358:429   */\n      tag_16\n      jump\t// in\n    tag_24:\n        /* \"#utility.yul\":214:436   */\n      swap3\n      swap2\n      pop\n      pop\n      jump\t// out\n        /* \"#utility.yul\":442:518   */\n    tag_17:\n        /* \"#utility.yul\":478:485   */\n      0x00\n        /* \"#utility.yul\":507:512   */\n      dup2\n        /* \"#utility.yul\":496:512   */\n      swap1\n      pop\n        /* \"#utility.yul\":442:518   */\n      swap2\n      swap1\n      pop\n      jump\t// out\n        /* \"#utility.yul\":524:704   */\n    tag_18:\n        /* \"#utility.yul\":572:649   */\n      0x4e487b7100000000000000000000000000000000000000000000000000000000\n        /* \"#utility.yul\":569:570   */\n      0x00\n        /* \"#utility.yul\":562:650   */\n      mstore\n        /* \"#utility.yul\":669:673   */\n      0x11\n        /* \"#utility.yul\":666:667   */\n      0x04\n        /* \"#utility.yul\":659:674   */\n      mstore\n        /* \"#utility.yul\":693:697   */\n      0x24\n        /* \"#utility.yul\":690:691   */\n      0x00\n        /* \"#utility.yul\":683:698   */\n      revert\n        /* \"#utility.yul\":710:1085   */\n    tag_13:\n        /* \"#utility.yul\":749:752   */\n      0x00\n        /* \"#utility.yul\":768:787   */\n      tag_28\n        /* \"#utility.yul\":785:786   */\n      dup3\n        /* \"#utility.yul\":768:787   */\n      tag_17\n      jump\t// in\n    tag_28:\n        /* \"#utility.yul\":763:787   */\n      swap2\n      pop\n        /* \"#utility.yul\":801:820   */\n      tag_29\n        /* \"#utility.yul\":818:819   */\n      dup4\n        /* \"#utility.yul\":801:820   */\n      tag_17\n      jump\t// in\n    tag_29:\n        /* \"#utility.yul\":796:820   */\n      swap3\n      pop\n        /* \"#utility.yul\":843:844   */\n      dup3\n        /* \"#utility.yul\":840:841   */\n      dup3\n        /* \"#utility.yul\":836:845   */\n      add\n        /* \"#utility.yul\":829:845   */\n      swap1\n      pop\n        /* \"#utility.yul\":1041:1042   */\n      dup3\n        /* \"#utility.yul\":1036:1039   */\n      dup2\n        /* \"#utility.yul\":1032:1043   */\n      slt\n        /* \"#utility.yul\":1025:1044   */\n      iszero\n        /* \"#utility.yul\":1021:1022   */\n      0x00\n        /* \"#utility.yul\":1018:1019   */\n      dup4\n        /* \"#utility.yul\":1014:1023   */\n      slt\n        /* \"#utility.yul\":1010:1045   */\n      and\n        /* \"#utility.yul\":993:994   */\n      dup4\n        /* \"#utility.yul\":988:991   */\n      dup3\n        /* \"#utility.yul\":984:995   */\n      slt\n        /* \"#utility.yul\":979:980   */\n      0x00\n        /* \"#utility.yul\":976:977   */\n      dup5\n        /* \"#utility.yul\":972:981   */\n      slt\n        /* \"#utility.yul\":965:982   */\n      iszero\n        /* \"#utility.yul\":961:996   */\n      and\n        /* \"#utility.yul\":945:1055   */\n      or\n        /* \"#utility.yul\":942:1078   */\n      iszero\n      tag_30\n      jumpi\n        /* \"#utility.yul\":1058:1076   */\n      tag_31\n      tag_18\n      jump\t// in\n    tag_31:\n        /* \"#utility.yul\":942:1078   */\n    tag_30:\n        /* \"#utility.yul\":710:1085   */\n      swap3\n      swap2\n      pop\n      pop\n      jump\t// out\n\n    auxdata: 0xa2646970667358221220ab00907b1870156b7057750edc560f0882875d2814aa45f43fb3dd2afabc1f7e64736f6c634300081a0033\n}\n",
				"bytecode": {
					"linkReferences": {},
					"object": "6080604052348015600e575f80fd5b5061015f8061001c5f395ff3fe608060405260043610610028575f3560e01c80631339ff7a1461002c57806316a2b4721461004a575b5f80fd5b610034610054565b6040516100419190610099565b60405180910390f35b61005261005b565b005b5f34905090565b60015f8082825461006c91906100e8565b925050819055506005341461007f575f80fd5b565b5f819050919050565b61009381610081565b82525050565b5f6020820190506100ac5f83018461008a565b92915050565b5f819050919050565b7f4e487b71000000000000000000000000000000000000000000000000000000005f52601160045260245ffd5b5f6100f2826100b2565b91506100fd836100b2565b92508282019050828112155f8312168382125f841215161715610123576101226100bb565b5b9291505056fea2646970667358221220ab00907b1870156b7057750edc560f0882875d2814aa45f43fb3dd2afabc1f7e64736f6c634300081a0033",
					"opcodes": "PUSH1 0x80 PUSH1 0x40 MSTORE CALLVALUE DUP1 ISZERO PUSH1 0xE JUMPI PUSH0 DUP1 REVERT JUMPDEST POP PUSH2 0x15F DUP1 PUSH2 0x1C PUSH0 CODECOPY PUSH0 RETURN INVALID PUSH1 0x80 PUSH1 0x40 MSTORE PUSH1 0x4 CALLDATASIZE LT PUSH2 0x28 JUMPI PUSH0 CALLDATALOAD PUSH1 0xE0 SHR DUP1 PUSH4 0x1339FF7A EQ PUSH2 0x2C JUMPI DUP1 PUSH4 0x16A2B472 EQ PUSH2 0x4A JUMPI JUMPDEST PUSH0 DUP1 REVERT JUMPDEST PUSH2 0x34 PUSH2 0x54 JUMP JUMPDEST PUSH1 0x40 MLOAD PUSH2 0x41 SWAP2 SWAP1 PUSH2 0x99 JUMP JUMPDEST PUSH1 0x40 MLOAD DUP1 SWAP2 SUB SWAP1 RETURN JUMPDEST PUSH2 0x52 PUSH2 0x5B JUMP JUMPDEST STOP JUMPDEST PUSH0 CALLVALUE SWAP1 POP SWAP1 JUMP JUMPDEST PUSH1 0x1 PUSH0 DUP1 DUP3 DUP3 SLOAD PUSH2 0x6C SWAP2 SWAP1 PUSH2 0xE8 JUMP JUMPDEST SWAP3 POP POP DUP2 SWAP1 SSTORE POP PUSH1 0x5 CALLVALUE EQ PUSH2 0x7F JUMPI PUSH0 DUP1 REVERT JUMPDEST JUMP JUMPDEST PUSH0 DUP2 SWAP1 POP SWAP2 SWAP1 POP JUMP JUMPDEST PUSH2 0x93 DUP2 PUSH2 0x81 JUMP JUMPDEST DUP3 MSTORE POP POP JUMP JUMPDEST PUSH0 PUSH1 0x20 DUP3 ADD SWAP1 POP PUSH2 0xAC PUSH0 DUP4 ADD DUP5 PUSH2 0x8A JUMP JUMPDEST SWAP3 SWAP2 POP POP JUMP JUMPDEST PUSH0 DUP2 SWAP1 POP SWAP2 SWAP1 POP JUMP JUMPDEST PUSH32 0x4E487B7100000000000000000000000000000000000000000000000000000000 PUSH0 MSTORE PUSH1 0x11 PUSH1 0x4 MSTORE PUSH1 0x24 PUSH0 REVERT JUMPDEST PUSH0 PUSH2 0xF2 DUP3 PUSH2 0xB2 JUMP JUMPDEST SWAP2 POP PUSH2 0xFD DUP4 PUSH2 0xB2 JUMP JUMPDEST SWAP3 POP DUP3 DUP3 ADD SWAP1 POP DUP3 DUP2 SLT ISZERO PUSH0 DUP4 SLT AND DUP4 DUP3 SLT PUSH0 DUP5 SLT ISZERO AND OR ISZERO PUSH2 0x123 JUMPI PUSH2 0x122 PUSH2 0xBB JUMP JUMPDEST JUMPDEST SWAP3 SWAP2 POP POP JUMP INVALID LOG2 PUSH5 0x6970667358 0x22 SLT KECCAK256 0xAB STOP SWAP1 PUSH28 0x1870156B7057750EDC560F0882875D2814AA45F43FB3DD2AFABC1F7E PUSH5 0x736F6C6343 STOP ADDMOD BYTE STOP CALLER "
				},
				"gasEstimates": {
					"creation": {
						"codeDepositCost": "70200",
						"executionCost": "115",
						"totalCost": "70315"
					},
					"external": {
						"payForReturn()": "285",
						"requirePaymentForNum()": "infinite"
					}
				},
				"methodIdentifiers": {
					"payForReturn()": "1339ff7a",
					"requirePaymentForNum()": "16a2b472"
				}
			},
			"storageLayout": {
				"storage": [
					{
						"astId": 3,
						"contract": "msgValue.sol:msgValueExample",
						"label": "num",
						"offset": 0,
						"slot": "0",
						"type": "t_int256"
					}
				],
				"types": {
					"t_int256": {
						"encoding": "inplace",
						"label": "int256",
						"numberOfBytes": "32"
					}
				}
			},
			"userdoc": {
				"kind": "user",
				"methods": {},
				"version": 1
			}
		}
	}
}