{
	"data": {
		"bytecode": {
			"linkReferences": {},
			"object": "60806040526040518060400160405280600781526020017f6578616d706c65000000000000000000000000000000000000000000000000008152505f908161004791906102da565b506001805f6101000a81548160ff021916908315150217905550600160025560016003557fffffffffffffffffffffffffffffffffffffffffffffffffffffffffffffffff60045534801561009a575f80fd5b506103a9565b5f81519050919050565b7f4e487b71000000000000000000000000000000000000000000000000000000005f52604160045260245ffd5b7f4e487b71000000000000000000000000000000000000000000000000000000005f52602260045260245ffd5b5f600282049050600182168061011b57607f821691505b60208210810361012e5761012d6100d7565b5b50919050565b5f819050815f5260205f209050919050565b5f6020601f8301049050919050565b5f82821b905092915050565b5f600883026101907fffffffffffffffffffffffffffffffffffffffffffffffffffffffffffffffff82610155565b61019a8683610155565b95508019841693508086168417925050509392505050565b5f819050919050565b5f819050919050565b5f6101de6101d96101d4846101b2565b6101bb565b6101b2565b9050919050565b5f819050919050565b6101f7836101c4565b61020b610203826101e5565b848454610161565b825550505050565b5f90565b61021f610213565b61022a8184846101ee565b505050565b5b8181101561024d576102425f82610217565b600181019050610230565b5050565b601f8211156102925761026381610134565b61026c84610146565b8101602085101561027b578190505b61028f61028785610146565b83018261022f565b50505b505050565b5f82821c905092915050565b5f6102b25f1984600802610297565b1980831691505092915050565b5f6102ca83836102a3565b9150826002028217905092915050565b6102e3826100a0565b67ffffffffffffffff8111156102fc576102fb6100aa565b5b6103068254610104565b610311828285610251565b5f60209050601f831160018114610342575f8415610330578287015190505b61033a85826102bf565b8655506103a1565b601f19841661035086610134565b5f5b8281101561037757848901518255600182019150602085019450602081019050610352565b868310156103945784890151610390601f8916826102a3565b8355505b6001600288020188555050505b505050505050565b6109b6806103b65f395ff3fe608060405234801561000f575f80fd5b5060043610610060575f3560e01c80632b31133714610064578063366d7728146100805780633b9eac4b1461009c57806355341938146100ba5780635e46e590146100eb57806367e0badb1461010a575b5f80fd5b61007e60048036038101906100799190610346565b610128565b005b61009a600480360381019061009591906104ad565b61013e565b005b6100a46101a7565b6040516100b19190610516565b60405180910390f35b6100d460048036038101906100cf9190610346565b6101ad565b6040516100e292919061058f565b60405180910390f35b6100f3610262565b60405161010192919061058f565b60405180910390f35b6101126102f9565b60405161011f9190610516565b60405180910390f35b806002819055506012811161013b575f80fd5b50565b8160065f0181905550806006600101908161015991906107b7565b5060086006908060018154018082558091505060019003905f5260205f2090600202015f909190919091505f820154815f0155600182018160010190816101a0919061089b565b5050505050565b60025481565b600881815481106101bc575f80fd5b905f5260205f2090600202015f91509050805f0154908060010180546101e1906105ea565b80601f016020809104026020016040519081016040528092919081815260200182805461020d906105ea565b80156102585780601f1061022f57610100808354040283529160200191610258565b820191905f5260205f20905b81548152906001019060200180831161023b57829003601f168201915b5050505050905082565b6006805f015490806001018054610278906105ea565b80601f01602080910402602001604051908101604052809291908181526020018280546102a4906105ea565b80156102ef5780601f106102c6576101008083540402835291602001916102ef565b820191905f5260205f20905b8154815290600101906020018083116102d257829003601f168201915b5050505050905082565b5f600254905090565b5f604051905090565b5f80fd5b5f80fd5b5f819050919050565b61032581610313565b811461032f575f80fd5b50565b5f813590506103408161031c565b92915050565b5f6020828403121561035b5761035a61030b565b5b5f61036884828501610332565b91505092915050565b5f80fd5b5f80fd5b5f601f19601f8301169050919050565b7f4e487b71000000000000000000000000000000000000000000000000000000005f52604160045260245ffd5b6103bf82610379565b810181811067ffffffffffffffff821117156103de576103dd610389565b5b80604052505050565b5f6103f0610302565b90506103fc82826103b6565b919050565b5f67ffffffffffffffff82111561041b5761041a610389565b5b61042482610379565b9050602081019050919050565b828183375f83830152505050565b5f61045161044c84610401565b6103e7565b90508281526020810184848401111561046d5761046c610375565b5b610478848285610431565b509392505050565b5f82601f83011261049457610493610371565b5b81356104a484826020860161043f565b91505092915050565b5f80604083850312156104c3576104c261030b565b5b5f6104d085828601610332565b925050602083013567ffffffffffffffff8111156104f1576104f061030f565b5b6104fd85828601610480565b9150509250929050565b61051081610313565b82525050565b5f6020820190506105295f830184610507565b92915050565b5f81519050919050565b5f82825260208201905092915050565b8281835e5f83830152505050565b5f6105618261052f565b61056b8185610539565b935061057b818560208601610549565b61058481610379565b840191505092915050565b5f6040820190506105a25f830185610507565b81810360208301526105b48184610557565b90509392505050565b7f4e487b71000000000000000000000000000000000000000000000000000000005f52602260045260245ffd5b5f600282049050600182168061060157607f821691505b602082108103610614576106136105bd565b5b50919050565b5f819050815f5260205f209050919050565b5f6020601f8301049050919050565b5f82821b905092915050565b5f600883026106767fffffffffffffffffffffffffffffffffffffffffffffffffffffffffffffffff8261063b565b610680868361063b565b95508019841693508086168417925050509392505050565b5f819050919050565b5f6106bb6106b66106b184610313565b610698565b610313565b9050919050565b5f819050919050565b6106d4836106a1565b6106e86106e0826106c2565b848454610647565b825550505050565b5f90565b6106fc6106f0565b6107078184846106cb565b505050565b5b8181101561072a5761071f5f826106f4565b60018101905061070d565b5050565b601f82111561076f576107408161061a565b6107498461062c565b81016020851015610758578190505b61076c6107648561062c565b83018261070c565b50505b505050565b5f82821c905092915050565b5f61078f5f1984600802610774565b1980831691505092915050565b5f6107a78383610780565b9150826002028217905092915050565b6107c08261052f565b67ffffffffffffffff8111156107d9576107d8610389565b5b6107e382546105ea565b6107ee82828561072e565b5f60209050601f83116001811461081f575f841561080d578287015190505b610817858261079c565b86555061087e565b601f19841661082d8661061a565b5f5b828110156108545784890151825560018201915060208501945060208101905061082f565b86831015610871578489015161086d601f891682610780565b8355505b6001600288020188555050505b505050505050565b5f81549050610894816105ea565b9050919050565b8181036108a957505061097e565b6108b282610886565b67ffffffffffffffff8111156108cb576108ca610389565b5b6108d582546105ea565b6108e082828561072e565b5f601f83116001811461090d575f84156108fb578287015490505b610905858261079c565b865550610977565b601f19841661091b8761061a565b96506109268661061a565b5f5b8281101561094d57848901548255600182019150600185019450602081019050610928565b8683101561096a5784890154610966601f891682610780565b8355505b6001600288020188555050505b5050505050505b56fea2646970667358221220a0feebc9e6fbd71773d3fb1c7d4b403ef36c0977e2c873848009139d2e06c49f64736f6c634300081a0033",
			"opcodes": "PUSH1 0x80 PUSH1 0x40 MSTORE PUSH1 0x40 MLOAD DUP1 PUSH1 0x40 ADD PUSH1 0x40 MSTORE DUP1 PUSH1 0x7 DUP2 MSTORE PUSH1 0x20 ADD PUSH32 0x6578616D706C6500000000000000000000000000000000000000000000000000 DUP2 MSTORE POP PUSH0 SWAP1 DUP2 PUSH2 0x47 SWAP2 SWAP1 PUSH2 0x2DA JUMP JUMPDEST POP PUSH1 0x1 DUP1 PUSH0 PUSH2 0x100 EXP DUP2 SLOAD DUP2 PUSH1 0xFF MUL NOT AND SWAP1 DUP4 ISZERO ISZERO MUL OR SWAP1 SSTORE POP PUSH1 0x1 PUSH1 0x2 SSTORE PUSH1 0x1 PUSH1 0x3 SSTORE PUSH32 0xFFFFFFFFFFFFFFFFFFFFFFFFFFFFFFFFFFFFFFFFFFFFFFFFFFFFFFFFFFFFFFFF PUSH1 0x4 SSTORE CALLVALUE DUP1 ISZERO PUSH2 0x9A JUMPI PUSH0 DUP1 REVERT JUMPDEST POP PUSH2 0x3A9 JUMP JUMPDEST PUSH0 DUP2 MLOAD SWAP1 POP SWAP2 SWAP1 POP JUMP JUMPDEST PUSH32 0x4E487B7100000000000000000000000000000000000000000000000000000000 PUSH0 MSTORE PUSH1 0x41 PUSH1 0x4 MSTORE PUSH1 0x24 PUSH0 REVERT JUMPDEST PUSH32 0x4E487B7100000000000000000000000000000000000000000000000000000000 PUSH0 MSTORE PUSH1 0x22 PUSH1 0x4 MSTORE PUSH1 0x24 PUSH0 REVERT JUMPDEST PUSH0 PUSH1 0x2 DUP3 DIV SWAP1 POP PUSH1 0x1 DUP3 AND DUP1 PUSH2 0x11B JUMPI PUSH1 0x7F DUP3 AND SWAP2 POP JUMPDEST PUSH1 0x20 DUP3 LT DUP2 SUB PUSH2 0x12E JUMPI PUSH2 0x12D PUSH2 0xD7 JUMP JUMPDEST JUMPDEST POP SWAP2 SWAP1 POP JUMP JUMPDEST PUSH0 DUP2 SWAP1 POP DUP2 PUSH0 MSTORE PUSH1 0x20 PUSH0 KECCAK256 SWAP1 POP SWAP2 SWAP1 POP JUMP JUMPDEST PUSH0 PUSH1 0x20 PUSH1 0x1F DUP4 ADD DIV SWAP1 POP SWAP2 SWAP1 POP JUMP JUMPDEST PUSH0 DUP3 DUP3 SHL SWAP1 POP SWAP3 SWAP2 POP POP JUMP JUMPDEST PUSH0 PUSH1 0x8 DUP4 MUL PUSH2 0x190 PUSH32 0xFFFFFFFFFFFFFFFFFFFFFFFFFFFFFFFFFFFFFFFFFFFFFFFFFFFFFFFFFFFFFFFF DUP3 PUSH2 0x155 JUMP JUMPDEST PUSH2 0x19A DUP7 DUP4 PUSH2 0x155 JUMP JUMPDEST SWAP6 POP DUP1 NOT DUP5 AND SWAP4 POP DUP1 DUP7 AND DUP5 OR SWAP3 POP POP POP SWAP4 SWAP3 POP POP POP JUMP JUMPDEST PUSH0 DUP2 SWAP1 POP SWAP2 SWAP1 POP JUMP JUMPDEST PUSH0 DUP2 SWAP1 POP SWAP2 SWAP1 POP JUMP JUMPDEST PUSH0 PUSH2 0x1DE PUSH2 0x1D9 PUSH2 0x1D4 DUP5 PUSH2 0x1B2 JUMP JUMPDEST PUSH2 0x1BB JUMP JUMPDEST PUSH2 0x1B2 JUMP JUMPDEST SWAP1 POP SWAP2 SWAP1 POP JUMP JUMPDEST PUSH0 DUP2 SWAP1 POP SWAP2 SWAP1 POP JUMP JUMPDEST PUSH2 0x1F7 DUP4 PUSH2 0x1C4 JUMP JUMPDEST PUSH2 0x20B PUSH2 0x203 DUP3 PUSH2 0x1E5 JUMP JUMPDEST DUP5 DUP5 SLOAD PUSH2 0x161 JUMP JUMPDEST DUP3 SSTORE POP POP POP POP JUMP JUMPDEST PUSH0 SWAP1 JUMP JUMPDEST PUSH2 0x21F PUSH2 0x213 JUMP JUMPDEST PUSH2 0x22A DUP2 DUP5 DUP5 PUSH2 0x1EE JUMP JUMPDEST POP POP POP JUMP JUMPDEST JUMPDEST DUP2 DUP2 LT ISZERO PUSH2 0x24D JUMPI PUSH2 0x242 PUSH0 DUP3 PUSH2 0x217 JUMP JUMPDEST PUSH1 0x1 DUP2 ADD SWAP1 POP PUSH2 0x230 JUMP JUMPDEST POP POP JUMP JUMPDEST PUSH1 0x1F DUP3 GT ISZERO PUSH2 0x292 JUMPI PUSH2 0x263 DUP2 PUSH2 0x134 JUMP JUMPDEST PUSH2 0x26C DUP5 PUSH2 0x146 JUMP JUMPDEST DUP2 ADD PUSH1 0x20 DUP6 LT ISZERO PUSH2 0x27B JUMPI DUP2 SWAP1 POP JUMPDEST PUSH2 0x28F PUSH2 0x287 DUP6 PUSH2 0x146 JUMP JUMPDEST DUP4 ADD DUP3 PUSH2 0x22F JUMP JUMPDEST POP POP JUMPDEST POP POP POP JUMP JUMPDEST PUSH0 DUP3 DUP3 SHR SWAP1 POP SWAP3 SWAP2 POP POP JUMP JUMPDEST PUSH0 PUSH2 0x2B2 PUSH0 NOT DUP5 PUSH1 0x8 MUL PUSH2 0x297 JUMP JUMPDEST NOT DUP1 DUP4 AND SWAP2 POP POP SWAP3 SWAP2 POP POP JUMP JUMPDEST PUSH0 PUSH2 0x2CA DUP4 DUP4 PUSH2 0x2A3 JUMP JUMPDEST SWAP2 POP DUP3 PUSH1 0x2 MUL DUP3 OR SWAP1 POP SWAP3 SWAP2 POP POP JUMP JUMPDEST PUSH2 0x2E3 DUP3 PUSH2 0xA0 JUMP JUMPDEST PUSH8 0xFFFFFFFFFFFFFFFF DUP2 GT ISZERO PUSH2 0x2FC JUMPI PUSH2 0x2FB PUSH2 0xAA JUMP JUMPDEST JUMPDEST PUSH2 0x306 DUP3 SLOAD PUSH2 0x104 JUMP JUMPDEST PUSH2 0x311 DUP3 DUP3 DUP6 PUSH2 0x251 JUMP JUMPDEST PUSH0 PUSH1 0x20 SWAP1 POP PUSH1 0x1F DUP4 GT PUSH1 0x1 DUP2 EQ PUSH2 0x342 JUMPI PUSH0 DUP5 ISZERO PUSH2 0x330 JUMPI DUP3 DUP8 ADD MLOAD SWAP1 POP JUMPDEST PUSH2 0x33A DUP6 DUP3 PUSH2 0x2BF JUMP JUMPDEST DUP7 SSTORE POP PUSH2 0x3A1 JUMP JUMPDEST PUSH1 0x1F NOT DUP5 AND PUSH2 0x350 DUP7 PUSH2 0x134 JUMP JUMPDEST PUSH0 JUMPDEST DUP3 DUP2 LT ISZERO PUSH2 0x377 JUMPI DUP5 DUP10 ADD MLOAD DUP3 SSTORE PUSH1 0x1 DUP3 ADD SWAP2 POP PUSH1 0x20 DUP6 ADD SWAP5 POP PUSH1 0x20 DUP2 ADD SWAP1 POP PUSH2 0x352 JUMP JUMPDEST DUP7 DUP4 LT ISZERO PUSH2 0x394 JUMPI DUP5 DUP10 ADD MLOAD PUSH2 0x390 PUSH1 0x1F DUP10 AND DUP3 PUSH2 0x2A3 JUMP JUMPDEST DUP4 SSTORE POP JUMPDEST PUSH1 0x1 PUSH1 0x2 DUP9 MUL ADD DUP9 SSTORE POP POP POP JUMPDEST POP POP POP POP POP POP JUMP JUMPDEST PUSH2 0x9B6 DUP1 PUSH2 0x3B6 PUSH0 CODECOPY PUSH0 RETURN INVALID PUSH1 0x80 PUSH1 0x40 MSTORE CALLVALUE DUP1 ISZERO PUSH2 0xF JUMPI PUSH0 DUP1 REVERT JUMPDEST POP PUSH1 0x4 CALLDATASIZE LT PUSH2 0x60 JUMPI PUSH0 CALLDATALOAD PUSH1 0xE0 SHR DUP1 PUSH4 0x2B311337 EQ PUSH2 0x64 JUMPI DUP1 PUSH4 0x366D7728 EQ PUSH2 0x80 JUMPI DUP1 PUSH4 0x3B9EAC4B EQ PUSH2 0x9C JUMPI DUP1 PUSH4 0x55341938 EQ PUSH2 0xBA JUMPI DUP1 PUSH4 0x5E46E590 EQ PUSH2 0xEB JUMPI DUP1 PUSH4 0x67E0BADB EQ PUSH2 0x10A JUMPI JUMPDEST PUSH0 DUP1 REVERT JUMPDEST PUSH2 0x7E PUSH1 0x4 DUP1 CALLDATASIZE SUB DUP2 ADD SWAP1 PUSH2 0x79 SWAP2 SWAP1 PUSH2 0x346 JUMP JUMPDEST PUSH2 0x128 JUMP JUMPDEST STOP JUMPDEST PUSH2 0x9A PUSH1 0x4 DUP1 CALLDATASIZE SUB DUP2 ADD SWAP1 PUSH2 0x95 SWAP2 SWAP1 PUSH2 0x4AD JUMP JUMPDEST PUSH2 0x13E JUMP JUMPDEST STOP JUMPDEST PUSH2 0xA4 PUSH2 0x1A7 JUMP JUMPDEST PUSH1 0x40 MLOAD PUSH2 0xB1 SWAP2 SWAP1 PUSH2 0x516 JUMP JUMPDEST PUSH1 0x40 MLOAD DUP1 SWAP2 SUB SWAP1 RETURN JUMPDEST PUSH2 0xD4 PUSH1 0x4 DUP1 CALLDATASIZE SUB DUP2 ADD SWAP1 PUSH2 0xCF SWAP2 SWAP1 PUSH2 0x346 JUMP JUMPDEST PUSH2 0x1AD JUMP JUMPDEST PUSH1 0x40 MLOAD PUSH2 0xE2 SWAP3 SWAP2 SWAP1 PUSH2 0x58F JUMP JUMPDEST PUSH1 0x40 MLOAD DUP1 SWAP2 SUB SWAP1 RETURN JUMPDEST PUSH2 0xF3 PUSH2 0x262 JUMP JUMPDEST PUSH1 0x40 MLOAD PUSH2 0x101 SWAP3 SWAP2 SWAP1 PUSH2 0x58F JUMP JUMPDEST PUSH1 0x40 MLOAD DUP1 SWAP2 SUB SWAP1 RETURN JUMPDEST PUSH2 0x112 PUSH2 0x2F9 JUMP JUMPDEST PUSH1 0x40 MLOAD PUSH2 0x11F SWAP2 SWAP1 PUSH2 0x516 JUMP JUMPDEST PUSH1 0x40 MLOAD DUP1 SWAP2 SUB SWAP1 RETURN JUMPDEST DUP1 PUSH1 0x2 DUP2 SWAP1 SSTORE POP PUSH1 0x12 DUP2 GT PUSH2 0x13B JUMPI PUSH0 DUP1 REVERT JUMPDEST POP JUMP JUMPDEST DUP2 PUSH1 0x6 PUSH0 ADD DUP2 SWAP1 SSTORE POP DUP1 PUSH1 0x6 PUSH1 0x1 ADD SWAP1 DUP2 PUSH2 0x159 SWAP2 SWAP1 PUSH2 0x7B7 JUMP JUMPDEST POP PUSH1 0x8 PUSH1 0x6 SWAP1 DUP1 PUSH1 0x1 DUP2 SLOAD ADD DUP1 DUP3 SSTORE DUP1 SWAP2 POP POP PUSH1 0x1 SWAP1 SUB SWAP1 PUSH0 MSTORE PUSH1 0x20 PUSH0 KECCAK256 SWAP1 PUSH1 0x2 MUL ADD PUSH0 SWAP1 SWAP2 SWAP1 SWAP2 SWAP1 SWAP2 POP PUSH0 DUP3 ADD SLOAD DUP2 PUSH0 ADD SSTORE PUSH1 0x1 DUP3 ADD DUP2 PUSH1 0x1 ADD SWAP1 DUP2 PUSH2 0x1A0 SWAP2 SWAP1 PUSH2 0x89B JUMP JUMPDEST POP POP POP POP POP JUMP JUMPDEST PUSH1 0x2 SLOAD DUP2 JUMP JUMPDEST PUSH1 0x8 DUP2 DUP2 SLOAD DUP2 LT PUSH2 0x1BC JUMPI PUSH0 DUP1 REVERT JUMPDEST SWAP1 PUSH0 MSTORE PUSH1 0x20 PUSH0 KECCAK256 SWAP1 PUSH1 0x2 MUL ADD PUSH0 SWAP2 POP SWAP1 POP DUP1 PUSH0 ADD SLOAD SWAP1 DUP1 PUSH1 0x1 ADD DUP1 SLOAD PUSH2 0x1E1 SWAP1 PUSH2 0x5EA JUMP JUMPDEST DUP1 PUSH1 0x1F ADD PUSH1 0x20 DUP1 SWAP2 DIV MUL PUSH1 0x20 ADD PUSH1 0x40 MLOAD SWAP1 DUP2 ADD PUSH1 0x40 MSTORE DUP1 SWAP3 SWAP2 SWAP1 DUP2 DUP2 MSTORE PUSH1 0x20 ADD DUP3 DUP1 SLOAD PUSH2 0x20D SWAP1 PUSH2 0x5EA JUMP JUMPDEST DUP1 ISZERO PUSH2 0x258 JUMPI DUP1 PUSH1 0x1F LT PUSH2 0x22F JUMPI PUSH2 0x100 DUP1 DUP4 SLOAD DIV MUL DUP4 MSTORE SWAP2 PUSH1 0x20 ADD SWAP2 PUSH2 0x258 JUMP JUMPDEST DUP3 ADD SWAP2 SWAP1 PUSH0 MSTORE PUSH1 0x20 PUSH0 KECCAK256 SWAP1 JUMPDEST DUP2 SLOAD DUP2 MSTORE SWAP1 PUSH1 0x1 ADD SWAP1 PUSH1 0x20 ADD DUP1 DUP4 GT PUSH2 0x23B JUMPI DUP3 SWAP1 SUB PUSH1 0x1F AND DUP3 ADD SWAP2 JUMPDEST POP POP POP POP POP SWAP1 POP DUP3 JUMP JUMPDEST PUSH1 0x6 DUP1 PUSH0 ADD SLOAD SWAP1 DUP1 PUSH1 0x1 ADD DUP1 SLOAD PUSH2 0x278 SWAP1 PUSH2 0x5EA JUMP JUMPDEST DUP1 PUSH1 0x1F ADD PUSH1 0x20 DUP1 SWAP2 DIV MUL PUSH1 0x20 ADD PUSH1 0x40 MLOAD SWAP1 DUP2 ADD PUSH1 0x40 MSTORE DUP1 SWAP3 SWAP2 SWAP1 DUP2 DUP2 MSTORE PUSH1 0x20 ADD DUP3 DUP1 SLOAD PUSH2 0x2A4 SWAP1 PUSH2 0x5EA JUMP JUMPDEST DUP1 ISZERO PUSH2 0x2EF JUMPI DUP1 PUSH1 0x1F LT PUSH2 0x2C6 JUMPI PUSH2 0x100 DUP1 DUP4 SLOAD DIV MUL DUP4 MSTORE SWAP2 PUSH1 0x20 ADD SWAP2 PUSH2 0x2EF JUMP JUMPDEST DUP3 ADD SWAP2 SWAP1 PUSH0 MSTORE PUSH1 0x20 PUSH0 KECCAK256 SWAP1 JUMPDEST DUP2 SLOAD DUP2 MSTORE SWAP1 PUSH1 0x1 ADD SWAP1 PUSH1 0x20 ADD DUP1 DUP4 GT PUSH2 0x2D2 JUMPI DUP3 SWAP1 SUB PUSH1 0x1F AND DUP3 ADD SWAP2 JUMPDEST POP POP POP POP POP SWAP1 POP DUP3 JUMP JUMPDEST PUSH0 PUSH1 0x2 SLOAD SWAP1 POP SWAP1 JUMP JUMPDEST PUSH0 PUSH1 0x40 MLOAD SWAP1 POP SWAP1 JUMP JUMPDEST PUSH0 DUP1 REVERT JUMPDEST PUSH0 DUP1 REVERT JUMPDEST PUSH0 DUP2 SWAP1 POP SWAP2 SWAP1 POP JUMP JUMPDEST PUSH2 0x325 DUP2 PUSH2 0x313 JUMP JUMPDEST DUP2 EQ PUSH2 0x32F JUMPI PUSH0 DUP1 REVERT JUMPDEST POP JUMP JUMPDEST PUSH0 DUP2 CALLDATALOAD SWAP1 POP PUSH2 0x340 DUP2 PUSH2 0x31C JUMP JUMPDEST SWAP3 SWAP2 POP POP JUMP JUMPDEST PUSH0 PUSH1 0x20 DUP3 DUP5 SUB SLT ISZERO PUSH2 0x35B JUMPI PUSH2 0x35A PUSH2 0x30B JUMP JUMPDEST JUMPDEST PUSH0 PUSH2 0x368 DUP5 DUP3 DUP6 ADD PUSH2 0x332 JUMP JUMPDEST SWAP2 POP POP SWAP3 SWAP2 POP POP JUMP JUMPDEST PUSH0 DUP1 REVERT JUMPDEST PUSH0 DUP1 REVERT JUMPDEST PUSH0 PUSH1 0x1F NOT PUSH1 0x1F DUP4 ADD AND SWAP1 POP SWAP2 SWAP1 POP JUMP JUMPDEST PUSH32 0x4E487B7100000000000000000000000000000000000000000000000000000000 PUSH0 MSTORE PUSH1 0x41 PUSH1 0x4 MSTORE PUSH1 0x24 PUSH0 REVERT JUMPDEST PUSH2 0x3BF DUP3 PUSH2 0x379 JUMP JUMPDEST DUP2 ADD DUP2 DUP2 LT PUSH8 0xFFFFFFFFFFFFFFFF DUP3 GT OR ISZERO PUSH2 0x3DE JUMPI PUSH2 0x3DD PUSH2 0x389 JUMP JUMPDEST JUMPDEST DUP1 PUSH1 0x40 MSTORE POP POP POP JUMP JUMPDEST PUSH0 PUSH2 0x3F0 PUSH2 0x302 JUMP JUMPDEST SWAP1 POP PUSH2 0x3FC DUP3 DUP3 PUSH2 0x3B6 JUMP JUMPDEST SWAP2 SWAP1 POP JUMP JUMPDEST PUSH0 PUSH8 0xFFFFFFFFFFFFFFFF DUP3 GT ISZERO PUSH2 0x41B JUMPI PUSH2 0x41A PUSH2 0x389 JUMP JUMPDEST JUMPDEST PUSH2 0x424 DUP3 PUSH2 0x379 JUMP JUMPDEST SWAP1 POP PUSH1 0x20 DUP2 ADD SWAP1 POP SWAP2 SWAP1 POP JUMP JUMPDEST DUP3 DUP2 DUP4 CALLDATACOPY PUSH0 DUP4 DUP4 ADD MSTORE POP POP POP JUMP JUMPDEST PUSH0 PUSH2 0x451 PUSH2 0x44C DUP5 PUSH2 0x401 JUMP JUMPDEST PUSH2 0x3E7 JUMP JUMPDEST SWAP1 POP DUP3 DUP2 MSTORE PUSH1 0x20 DUP2 ADD DUP5 DUP5 DUP5 ADD GT ISZERO PUSH2 0x46D JUMPI PUSH2 0x46C PUSH2 0x375 JUMP JUMPDEST JUMPDEST PUSH2 0x478 DUP5 DUP3 DUP6 PUSH2 0x431 JUMP JUMPDEST POP SWAP4 SWAP3 POP POP POP JUMP JUMPDEST PUSH0 DUP3 PUSH1 0x1F DUP4 ADD SLT PUSH2 0x494 JUMPI PUSH2 0x493 PUSH2 0x371 JUMP JUMPDEST JUMPDEST DUP2 CALLDATALOAD PUSH2 0x4A4 DUP5 DUP3 PUSH1 0x20 DUP7 ADD PUSH2 0x43F JUMP JUMPDEST SWAP2 POP POP SWAP3 SWAP2 POP POP JUMP JUMPDEST PUSH0 DUP1 PUSH1 0x40 DUP4 DUP6 SUB SLT ISZERO PUSH2 0x4C3 JUMPI PUSH2 0x4C2 PUSH2 0x30B JUMP JUMPDEST JUMPDEST PUSH0 PUSH2 0x4D0 DUP6 DUP3 DUP7 ADD PUSH2 0x332 JUMP JUMPDEST SWAP3 POP POP PUSH1 0x20 DUP4 ADD CALLDATALOAD PUSH8 0xFFFFFFFFFFFFFFFF DUP2 GT ISZERO PUSH2 0x4F1 JUMPI PUSH2 0x4F0 PUSH2 0x30F JUMP JUMPDEST JUMPDEST PUSH2 0x4FD DUP6 DUP3 DUP7 ADD PUSH2 0x480 JUMP JUMPDEST SWAP2 POP POP SWAP3 POP SWAP3 SWAP1 POP JUMP JUMPDEST PUSH2 0x510 DUP2 PUSH2 0x313 JUMP JUMPDEST DUP3 MSTORE POP POP JUMP JUMPDEST PUSH0 PUSH1 0x20 DUP3 ADD SWAP1 POP PUSH2 0x529 PUSH0 DUP4 ADD DUP5 PUSH2 0x507 JUMP JUMPDEST SWAP3 SWAP2 POP POP JUMP JUMPDEST PUSH0 DUP2 MLOAD SWAP1 POP SWAP2 SWAP1 POP JUMP JUMPDEST PUSH0 DUP3 DUP3 MSTORE PUSH1 0x20 DUP3 ADD SWAP1 POP SWAP3 SWAP2 POP POP JUMP JUMPDEST DUP3 DUP2 DUP4 MCOPY PUSH0 DUP4 DUP4 ADD MSTORE POP POP POP JUMP JUMPDEST PUSH0 PUSH2 0x561 DUP3 PUSH2 0x52F JUMP JUMPDEST PUSH2 0x56B DUP2 DUP6 PUSH2 0x539 JUMP JUMPDEST SWAP4 POP PUSH2 0x57B DUP2 DUP6 PUSH1 0x20 DUP7 ADD PUSH2 0x549 JUMP JUMPDEST PUSH2 0x584 DUP2 PUSH2 0x379 JUMP JUMPDEST DUP5 ADD SWAP2 POP POP SWAP3 SWAP2 POP POP JUMP JUMPDEST PUSH0 PUSH1 0x40 DUP3 ADD SWAP1 POP PUSH2 0x5A2 PUSH0 DUP4 ADD DUP6 PUSH2 0x507 JUMP JUMPDEST DUP2 DUP2 SUB PUSH1 0x20 DUP4 ADD MSTORE PUSH2 0x5B4 DUP2 DUP5 PUSH2 0x557 JUMP JUMPDEST SWAP1 POP SWAP4 SWAP3 POP POP POP JUMP JUMPDEST PUSH32 0x4E487B7100000000000000000000000000000000000000000000000000000000 PUSH0 MSTORE PUSH1 0x22 PUSH1 0x4 MSTORE PUSH1 0x24 PUSH0 REVERT JUMPDEST PUSH0 PUSH1 0x2 DUP3 DIV SWAP1 POP PUSH1 0x1 DUP3 AND DUP1 PUSH2 0x601 JUMPI PUSH1 0x7F DUP3 AND SWAP2 POP JUMPDEST PUSH1 0x20 DUP3 LT DUP2 SUB PUSH2 0x614 JUMPI PUSH2 0x613 PUSH2 0x5BD JUMP JUMPDEST JUMPDEST POP SWAP2 SWAP1 POP JUMP JUMPDEST PUSH0 DUP2 SWAP1 POP DUP2 PUSH0 MSTORE PUSH1 0x20 PUSH0 KECCAK256 SWAP1 POP SWAP2 SWAP1 POP JUMP JUMPDEST PUSH0 PUSH1 0x20 PUSH1 0x1F DUP4 ADD DIV SWAP1 POP SWAP2 SWAP1 POP JUMP JUMPDEST PUSH0 DUP3 DUP3 SHL SWAP1 POP SWAP3 SWAP2 POP POP JUMP JUMPDEST PUSH0 PUSH1 0x8 DUP4 MUL PUSH2 0x676 PUSH32 0xFFFFFFFFFFFFFFFFFFFFFFFFFFFFFFFFFFFFFFFFFFFFFFFFFFFFFFFFFFFFFFFF DUP3 PUSH2 0x63B JUMP JUMPDEST PUSH2 0x680 DUP7 DUP4 PUSH2 0x63B JUMP JUMPDEST SWAP6 POP DUP1 NOT DUP5 AND SWAP4 POP DUP1 DUP7 AND DUP5 OR SWAP3 POP POP POP SWAP4 SWAP3 POP POP POP JUMP JUMPDEST PUSH0 DUP2 SWAP1 POP SWAP2 SWAP1 POP JUMP JUMPDEST PUSH0 PUSH2 0x6BB PUSH2 0x6B6 PUSH2 0x6B1 DUP5 PUSH2 0x313 JUMP JUMPDEST PUSH2 0x698 JUMP JUMPDEST PUSH2 0x313 JUMP JUMPDEST SWAP1 POP SWAP2 SWAP1 POP JUMP JUMPDEST PUSH0 DUP2 SWAP1 POP SWAP2 SWAP1 POP JUMP JUMPDEST PUSH2 0x6D4 DUP4 PUSH2 0x6A1 JUMP JUMPDEST PUSH2 0x6E8 PUSH2 0x6E0 DUP3 PUSH2 0x6C2 JUMP JUMPDEST DUP5 DUP5 SLOAD PUSH2 0x647 JUMP JUMPDEST DUP3 SSTORE POP POP POP POP JUMP JUMPDEST PUSH0 SWAP1 JUMP JUMPDEST PUSH2 0x6FC PUSH2 0x6F0 JUMP JUMPDEST PUSH2 0x707 DUP2 DUP5 DUP5 PUSH2 0x6CB JUMP JUMPDEST POP POP POP JUMP JUMPDEST JUMPDEST DUP2 DUP2 LT ISZERO PUSH2 0x72A JUMPI PUSH2 0x71F PUSH0 DUP3 PUSH2 0x6F4 JUMP JUMPDEST PUSH1 0x1 DUP2 ADD SWAP1 POP PUSH2 0x70D JUMP JUMPDEST POP POP JUMP JUMPDEST PUSH1 0x1F DUP3 GT ISZERO PUSH2 0x76F JUMPI PUSH2 0x740 DUP2 PUSH2 0x61A JUMP JUMPDEST PUSH2 0x749 DUP5 PUSH2 0x62C JUMP JUMPDEST DUP2 ADD PUSH1 0x20 DUP6 LT ISZERO PUSH2 0x758 JUMPI DUP2 SWAP1 POP JUMPDEST PUSH2 0x76C PUSH2 0x764 DUP6 PUSH2 0x62C JUMP JUMPDEST DUP4 ADD DUP3 PUSH2 0x70C JUMP JUMPDEST POP POP JUMPDEST POP POP POP JUMP JUMPDEST PUSH0 DUP3 DUP3 SHR SWAP1 POP SWAP3 SWAP2 POP POP JUMP JUMPDEST PUSH0 PUSH2 0x78F PUSH0 NOT DUP5 PUSH1 0x8 MUL PUSH2 0x774 JUMP JUMPDEST NOT DUP1 DUP4 AND SWAP2 POP POP SWAP3 SWAP2 POP POP JUMP JUMPDEST PUSH0 PUSH2 0x7A7 DUP4 DUP4 PUSH2 0x780 JUMP JUMPDEST SWAP2 POP DUP3 PUSH1 0x2 MUL DUP3 OR SWAP1 POP SWAP3 SWAP2 POP POP JUMP JUMPDEST PUSH2 0x7C0 DUP3 PUSH2 0x52F JUMP JUMPDEST PUSH8 0xFFFFFFFFFFFFFFFF DUP2 GT ISZERO PUSH2 0x7D9 JUMPI PUSH2 0x7D8 PUSH2 0x389 JUMP JUMPDEST JUMPDEST PUSH2 0x7E3 DUP3 SLOAD PUSH2 0x5EA JUMP JUMPDEST PUSH2 0x7EE DUP3 DUP3 DUP6 PUSH2 0x72E JUMP JUMPDEST PUSH0 PUSH1 0x20 SWAP1 POP PUSH1 0x1F DUP4 GT PUSH1 0x1 DUP2 EQ PUSH2 0x81F JUMPI PUSH0 DUP5 ISZERO PUSH2 0x80D JUMPI DUP3 DUP8 ADD MLOAD SWAP1 POP JUMPDEST PUSH2 0x817 DUP6 DUP3 PUSH2 0x79C JUMP JUMPDEST DUP7 SSTORE POP PUSH2 0x87E JUMP JUMPDEST PUSH1 0x1F NOT DUP5 AND PUSH2 0x82D DUP7 PUSH2 0x61A JUMP JUMPDEST PUSH0 JUMPDEST DUP3 DUP2 LT ISZERO PUSH2 0x854 JUMPI DUP5 DUP10 ADD MLOAD DUP3 SSTORE PUSH1 0x1 DUP3 ADD SWAP2 POP PUSH1 0x20 DUP6 ADD SWAP5 POP PUSH1 0x20 DUP2 ADD SWAP1 POP PUSH2 0x82F JUMP JUMPDEST DUP7 DUP4 LT ISZERO PUSH2 0x871 JUMPI DUP5 DUP10 ADD MLOAD PUSH2 0x86D PUSH1 0x1F DUP10 AND DUP3 PUSH2 0x780 JUMP JUMPDEST DUP4 SSTORE POP JUMPDEST PUSH1 0x1 PUSH1 0x2 DUP9 MUL ADD DUP9 SSTORE POP POP POP JUMPDEST POP POP POP POP POP POP JUMP JUMPDEST PUSH0 DUP2 SLOAD SWAP1 POP PUSH2 0x894 DUP2 PUSH2 0x5EA JUMP JUMPDEST SWAP1 POP SWAP2 SWAP1 POP JUMP JUMPDEST DUP2 DUP2 SUB PUSH2 0x8A9 JUMPI POP POP PUSH2 0x97E JUMP JUMPDEST PUSH2 0x8B2 DUP3 PUSH2 0x886 JUMP JUMPDEST PUSH8 0xFFFFFFFFFFFFFFFF DUP2 GT ISZERO PUSH2 0x8CB JUMPI PUSH2 0x8CA PUSH2 0x389 JUMP JUMPDEST JUMPDEST PUSH2 0x8D5 DUP3 SLOAD PUSH2 0x5EA JUMP JUMPDEST PUSH2 0x8E0 DUP3 DUP3 DUP6 PUSH2 0x72E JUMP JUMPDEST PUSH0 PUSH1 0x1F DUP4 GT PUSH1 0x1 DUP2 EQ PUSH2 0x90D JUMPI PUSH0 DUP5 ISZERO PUSH2 0x8FB JUMPI DUP3 DUP8 ADD SLOAD SWAP1 POP JUMPDEST PUSH2 0x905 DUP6 DUP3 PUSH2 0x79C JUMP JUMPDEST DUP7 SSTORE POP PUSH2 0x977 JUMP JUMPDEST PUSH1 0x1F NOT DUP5 AND PUSH2 0x91B DUP8 PUSH2 0x61A JUMP JUMPDEST SWAP7 POP PUSH2 0x926 DUP7 PUSH2 0x61A JUMP JUMPDEST PUSH0 JUMPDEST DUP3 DUP2 LT ISZERO PUSH2 0x94D JUMPI DUP5 DUP10 ADD SLOAD DUP3 SSTORE PUSH1 0x1 DUP3 ADD SWAP2 POP PUSH1 0x1 DUP6 ADD SWAP5 POP PUSH1 0x20 DUP2 ADD SWAP1 POP PUSH2 0x928 JUMP JUMPDEST DUP7 DUP4 LT ISZERO PUSH2 0x96A JUMPI DUP5 DUP10 ADD SLOAD PUSH2 0x966 PUSH1 0x1F DUP10 AND DUP3 PUSH2 0x780 JUMP JUMPDEST DUP4 SSTORE POP JUMPDEST PUSH1 0x1 PUSH1 0x2 DUP9 MUL ADD DUP9 SSTORE POP POP POP JUMPDEST POP POP POP POP POP POP JUMPDEST JUMP INVALID LOG2 PUSH5 0x6970667358 0x22 SLT KECCAK256 LOG0 INVALID 0xEB 0xC9 0xE6 0xFB 0xD7 OR PUSH20 0xD3FB1C7D4B403EF36C0977E2C873848009139D2E MOD 0xC4 SWAP16 PUSH5 0x736F6C6343 STOP ADDMOD BYTE STOP CALLER "
		},
		"gasEstimates": {
			"creation": {
				"codeDepositCost": "497200",
				"executionCost": "infinite",
				"totalCost": "infinite"
			},
			"external": {
				"changeNum(uint256)": "22516",
				"changeStructs(uint256,string)": "infinite",
				"getNum()": "2520",
				"num1()": "2447",
				"struct1()": "infinite",
				"structs(uint256)": "infinite"
			}
		},
		"methodIdentifiers": {
			"changeNum(uint256)": "2b311337",
			"changeStructs(uint256,string)": "366d7728",
			"getNum()": "67e0badb",
			"num1()": "3b9eac4b",
			"struct1()": "5e46e590",
			"structs(uint256)": "55341938"
		}
	},
	"abi": [
		{
			"inputs": [
				{
					"internalType": "uint256",
					"name": "a",
					"type": "uint256"
				}
			],
			"name": "changeNum",
			"outputs": [],
			"stateMutability": "nonpayable",
			"type": "function"
		},
		{
			"inputs": [
				{
					"internalType": "uint256",
					"name": "n",
					"type": "uint256"
				},
				{
					"internalType": "string",
					"name": "ntest",
					"type": "string"
				}
			],
			"name": "changeStructs",
			"outputs": [],
			"stateMutability": "nonpayable",
			"type": "function"
		},
		{
			"inputs": [],
			"name": "getNum",
			"outputs": [
				{
					"internalType": "uint256",
					"name": "",
					"type": "uint256"
				}
			],
			"stateMutability": "view",
			"type": "function"
		},
		{
			"inputs": [],
			"name": "num1",
			"outputs": [
				{
					"internalType": "uint256",
					"name": "",
					"type": "uint256"
				}
			],
			"stateMutability": "view",
			"type": "function"
		},
		{
			"inputs": [],
			"name": "struct1",
			"outputs": [
				{
					"internalType": "uint256",
					"name": "num",
					"type": "uint256"
				},
				{
					"internalType": "string",
					"name": "test",
					"type": "string"
				}
			],
			"stateMutability": "view",
			"type": "function"
		},
		{
			"inputs": [
				{
					"internalType": "uint256",
					"name": "",
					"type": "uint256"
				}
			],
			"name": "structs",
			"outputs": [
				{
					"internalType": "uint256",
					"name": "num",
					"type": "uint256"
				},
				{
					"internalType": "string",
					"name": "test",
					"type": "string"
				}
			],
			"stateMutability": "view",
			"type": "function"
		}
	]
}